:100000000C94C8180C94F9180C94F9180C94F9185D
:100010000C94F9180C94F9180C94F9180C94F9181C
:100020000C94F9180C94D58A0C94D58A0C94D58A22
:100030000C94F9180C94F9180C94F9180C94F918FC
:100040000C94F9180C9475230C94F9180C94F91865
:100050000C94F9180C94F9180C945B640C941BD153
:100060000C94F9180C94D7BD0C94F9180C94F91849
:100070000C94F9180C94F9180C94F9180C94F918BC
:100080000C941D2C0C94F9180C94F9180C94F91874
:100090000C94F9180C94F9180C94F9180C94F9189C
:1000A0000C94F9180C94F9180C94EF2B0C94F91883
:1000B0000C94F9180C94F9180C94F9180C94C12BA1
:1000C0000C94F9180C94F9180C94F9180C94F9186C
:1000D0000C94F9180C94F9180C94F9180C94F9185C
:1000E0000C94F918A32DA72DB82DC52DD22DDF2DD9
:1000F000EC2DF92D872E062E872E872E1C2E112FE4
:10010000152F392F3D2F432F532F702F862FC4309B
:10011000A72FC430BC2FC430DE2FE42F30304B303B
:100120005F3069308630A730FAA872A7ABA736A92E
:10013000ABA7ABA7ABA7ABA7ABA7ABA7ABA7ABA72F
:10014000ABA7ABA7ABA7ABA7ABA7ABA7ABA7ABA71F
:10015000ABA7ABA7ABA7ABA7ABA7ABA7ABA7ABA70F
:10016000ABA7ABA730A9ABA7ABA7ABA7ABA7ABA778
:10017000ABA7ABA7ABA709A9ABA7ABA7ABA7ABA78F
:10018000ABA7ABA7ABA7ABA7ABA7ABA74DA9A8A73E
:1001900004CF07CFF6CEFACE00CF3ECF0BCF0FCF96
:1001A00015CF19CF1DCF23CF27CF2BCF3ECF31CFA8
:1001B00035CF39CFD3CFD8CFDDCFE7CFF1CF6AD08E
:1001C000FBCF03D00BD015D01FD029D038D042D0D0
:1001D0006AD04CD056D060D0084AD73B3BCE016E97
:1001E00084BCBFFDC12F3D6C74319ABD56833DDA8E
:1001F0003D00C77F11BED9E4BB4C3E916BAAAABE9D
:10020000000000803F05A84CCDB2D44EB93836A9C5
:10021000020C50B9918688083CA6AAAA2ABE000002
:1002200000803F000C94C5830C94152F0C94FBCFD9
:100230000C94FACE0C94DF2D0C9427CF0C9438D06C
:100240000C94D8CF0C94ABA70C940BD00C94D22D5B
:100250000C94D3CF0C942BCF0C94B1800C94C4305D
:100260000C94872E0C949D560C9408760C94AB7EBF
:100270000C94BA7E0C9436A90C94B57E0C9419CFCC
:100280000C94AD830C9486300C948E770C94C21E23
:100290000C9430300C94112F0C94DF7E0C940FCF03
:1002A0000C94A72F0C9430A90C94F1CF0C94A72D8B
:1002B0000C942D7C0C9484EA0C944DA90C94AD8B79
:1002C0000C9444590C944A590C94FAA80C9415CFE8
:1002D0000C94702F0C945F300C941E9A0C94151E85
:1002E0000C94D37E0C9431CF0C94CB560C94F6CE58
:1002F0000C94A2800C94EA2C0C9460D00C94392FAE
:100300000C94947C0C94B55B0C9403D00C94A8A72B
:100310000C9469300C9404CF0C9439CF0C9435CFE5
:100320000C94C6990C944CD00C9400CF0C94D97EAC
:100330000C94FB180C94B07E0C94E7CF0C94CD5623
:100340000C94E81F0C94A32D0C9472A70C94C8195C
:100350000C9442D00C9415D00C941C2E0C9447593C
:100360000C942C720C94B78E0C942E840C9425C48F
:100370000C946AD00C941B7F0C94062E0C94ED2CDC
:100380000C944D910C94E92C0C943ECF0C942919AB
:100390000C94C6830C9423CF0C94AC800C941684DC
:1003A0000C94A7300C94532F0C94B82D0C9456D069
:1003B0000C9406780C9407CF0C94DE2F0C9405A7B0
:1003C0000C94F0990C94F92D0C941E190C941FD0D8
:1003D0000C94EC2D0C9443750C94F4720C947E7474
:1003E0000C94BC2F0C944B300C94DDCF0C94432F09
:1003F0000C941DCF0C943D2F0C94CD760C940BCF08
:100400000C9429D00C9433900C94A7800C94B9735D
:100410000C94CF560C94B5190C94479A0C9441B88F
:100420000C94C52D0C94862F0C9409A90C94E42FE0
:100430000C949B1D0C94B4564E414E494E49545950
:10044000494E46CDCCCC3D0AD7233C17B7D138779F
:10045000CC2B329595E6241FB14F0A0000204100B5
:1004600000C84200401C4620BCBE4CCA1B0E5AAEFF
:10047000C59D74434F4D4D554E49434154494F4ED0
:100480000044525952554E004552524F5253004962
:100490004E464F004543484F0047322F47332062B6
:1004A000616420706172616D65746572730A0053D6
:1004B0006C6565702E2E2E00486F6D652058592092
:1004C00066697273740A00486F6D6520585920661A
:1004D0006972737400205A3A200020593A20004271
:1004E000656420583A20004D65736820706F696E0E
:1004F000742063616E6E6F74206265207265736F25
:100500006C7665640A00436C69636B20746F2072BB
:100510006573756D652E2E2E004E6F206D6F76659E
:100520002E002569730025696D20256973002569F2
:10053000682025696D202569730025696420256977
:10054000682025696D202569730025697920256952
:1005500064202569682025696D2025697300507223
:10056000696E742074696D653A200094048F048864
:1005700004810473046F66660044454255473A009F
:100580004B494C4C45442E20004D31313320530013
:100590006F6B004D617274696E205859204F66660A
:1005A0002E002C20002C2000544845524D414C5F19
:1005B00050524F54454354494F4E004155544F52A9
:1005C00045504F52545F53445F5354415455530068
:1005D000454D455247454E43595F50415253455250
:1005E00000434153455F4C494748545F4252494795
:1005F00048544E45535300544F47474C455F4C4970
:100600004748545300534F4654574152455F504F4B
:10061000574552004255494C445F50455243454E60
:1006200054004C4556454C494E475F4441544100A7
:100630005A5F50524F4245004155544F4C45564524
:100640004C005052494E545F4A4F420050524F475F
:1006500052455353004155544F5245504F52545FE9
:1006600054454D5000564F4C554D4554524943004A
:10067000454550524F4D0053455249414C5F584FEC
:100680004E5F584F4646004649524D574152455FCE
:100690004E414D453A4D61726C696E20312E312EBE
:1006A0003920284769746875622920534F55524391
:1006B000455F434F44455F55524C3A6874747073BC
:1006C0003A2F2F6769746875622E636F6D2F4D61C5
:1006D000726C696E4669726D776172652F4D6172D9
:1006E0006C696E2050524F544F434F4C5F564552E9
:1006F00053494F4E3A312E30204D414348494E45E3
:100700005F545950453A4D617274696E20585920B2
:1007100045585452554445525F434F554E543A3113
:1007200020555549443A64353333326262372D617E
:100730003036392D343737662D383834392D373740
:10074000623133623630653762350A002F2F200060
:100750004D31343520533C696E6465783E206F75A9
:1007600074206F662072616E67652028302D3129F4
:100770000A00205400205200416363656C65726179
:1007800074696F6E3A20500020466C6F773A2000F3
:10079000000136372603FFFFFF3B3C3D380EFFFFCD
:1007A000FF3F2E303E12FFFFFFFF28FF0C08090716
:1007B000FFFF1A1C18FFFF2A08440AFF43206F7529
:1007C00074206F662072616E67650A0053657276E9
:1007D0006F20003A200020536572766F2000432975
:1007E0000A0061626C656420286D696E2074656D15
:1007F000702000436F6C6420657874727564657353
:100800002061726520004E6F2063617365206C6902
:100810006768740A004D65736820706F696E742094
:1008200063616E6E6F74206265207265736F6C76A3
:1008300065640A004D34323120696E636F727265EF
:10084000637420706172616D657465722075736187
:1008500067650A00454550524F4D204F4B0A003FF7
:100860005A206F7574206F662072616E676520284C
:100870002D323020746F203230290A003A20005087
:10088000726F6265205A204F6666736574006178E6
:1008900069733A70776D5F7363616C65207C737404
:1008A000617475735F726573706F6E73657C0A0037
:1008B0004163746976652045787472756465723A2F
:1008C0002000496E76616C69642065787472756485
:1008D00065720A006F6B00456E6473746F707320ED
:1008E000256320256320256320256300205A3A00D4
:1008F00020593A0020583A00656E6473746F707323
:10090000206869743A2000202020202020005A000E
:10091000590020202020005800092000000000007D
:1009200000000000000000003FFFF0000000000099
:10093000000000000000003800700000000000000F
:1009400000000000000030FC30000000000000004B
:10095000000000000020FC1000000000000000006B
:1009600000000000207810000000000000000000DF
:100970000000002030100000000000000000000017
:1009800000002C00D03FC00000000000000000006C
:10099000002E31D07FE000000000000000000000C9
:1009A0002F7BD07FE0000000000000000000002F3F
:1009B0007BD07FE0000000000000000000002E312E
:1009C000D03FC0000000000000000000002C00D05C
:1009D0003FC0000000000000000000002030107F39
:1009E000E0000000000000000000002078107FE020
:1009F0000000000000000000000020FC107FE0006C
:100A000000000000000000000030FC301F800000EB
:100A100000000000000000003800700F000000001F
:100A2000000000000000003FFFF006000000000092
:100A300000000000000000000000000000000000B6
:100A400000000000003FFFF0000000000000000078
:100A500000000000380070000000000000000000EE
:100A6000000000318630000000000000000000009F
:100A700000002387100000000000000000000000BC
:100A80000027879000000000000000000000000028
:100A90002F87D00000000000000000000000002FA1
:100AA00003D03FC000000000000000000000203024
:100AB000107FE0000000000000000000002078101F
:100AC0007FE0000000000000000000002078107FA0
:100AD000E0000000000000000000002030103FC0D7
:100AE000000000000000000000002F03D03FC00005
:100AF0000000000000000000002F87D07FE0000011
:100B000000000000000000002787907FE000000048
:100B1000000000000000002387107FE000000000BC
:100B20000000000000003186301F8000000000003F
:100B300000000000003800700F00000000000000FE
:100B4000000000003FFFF006000000000000000071
:100B50000000000000004D617274696E2058592039
:100B600052656164792E005072696E74696E672EE9
:100B70002E2E005072696E7420706175736564006A
:100B800053746F7720424C546F756368004D323850
:100B90003020503020533930004465706C6F79201C
:100BA000424C546F756368004D323830205030200D
:100BB00053313000424C546F7563682053656C6646
:100BC0002D54657374004D3238302050302053312D
:100BD000323000526573657420424C546F756368FF
:100BE000004D3238302050302053313630004D61C6
:100BF000696E00436F6E74726F6C00507265706145
:100C000072650054756E6500496E666F207363727D
:100C100065656E004261627973746570205A0042A6
:100C200061627973746570205A00466C6F77004674
:100C30006C6F7700466C6F770046616E207370654D
:100C4000656420320046616E2073706565642032F1
:100C50000046616E20737065656420320046616EE7
:100C600020737065656420310046616E2073706585
:100C7000656420310046616E2073706565642031C3
:100C8000004E6F7A7A6C65004E6F7A7A6C65004E12
:100C90006F7A7A6C650046616465204865696768AB
:100CA0007400466164652048656967687400466140
:100CB0006465204865696768740053706565640001
:100CC0005370656564005370656564004D61696EBD
:100CD0000024F4D43050C38E20C2A24017828B70FF
:100CE00011127A910D816CD90AA861E108C7586682
:100CF00007615143061E4B5D05C145A7041A41110A
:100D000004093D9803713931034036DB02653391A4
:100D100002D4305402802E1D02632CEE01752AC5C8
:100D200001B028A001102781018F2564012B244BDD
:100D300001E0223401AC211F018D200D01801FFC38
:100D400000841EED00971DDF00B81CD200E61BC614
:100D500000201BBC00641AB200B219A8000A19A036
:100D6000006A189900D117910040178B00B51684BE
:100D70000031167E00B31579003A157300C7146F61
:100D80000058146A00EE1366008813630025135E92
:100D900000C7125B006C12570015125400C11151AC
:100DA0000070114F0021114B00D61049008D1047E3
:100DB000004610440002104200C00F4000800F3E69
:100DC00000420F3C00060F3B00CB0E3800930E375D
:100DD000005C0E3500270E3400F30D3200C10D31DA
:100DE00000900D3000600D2E00320D2D00050D2CF1
:100DF00000D90C2B00AE0C2900850C29005C0C27B7
:100E000000350C27000E0C2600E80B2400C40B2430
:100E100000A00B23007D0B23005A0B2100390B216E
:100E200000180B2000F80A1F00D90A1E00BB0A1E7A
:100E3000009D0A1D00800A1D00630A1C00470A1B52
:100E4000002C0A1B00110A1A00F7091A00DD091903
:100E500000C4091900AB091900920917007B091891
:100E600000630917004C0916003609160020091600
:100E7000000A091500F5081500E0081400CC081454
:100E800000B8081400A4081400900813007D08128C
:100E9000006B0813005808120046081200340811AD
:100EA00000230811001208110001081100F00710BA
:100EB00000E0071000D0071000C0071000B0070FB7
:100EC00000A107100091070E0083070F0074070FA1
:100ED0000065070E0057070E0049070E003B070D7F
:100EE000002E070E0020070D0013070D0006070D4A
:100EF00000F9060C00ED060D00E0060C00D4060C0F
:100F000000C8060C00BC060C00B0060C00A4060BC2
:100F10000099060C008D060B0082060B0077060B6D
:100F2000006C060B0061060A0057060B004C060A0F
:100F30000042060A0038060A002E060A0024060AA5
:100F4000001A060A001006090007060A00FD050936
:100F500000F4050900EB050900E2050900D90509BF
:100F600000D0050900C7050900BE050900B5050840
:100F700000AD050800A50509009C050800940508BA
:100F8000008C050800840508007C0508007405082D
:100F9000006C050700650508005D0507005605089B
:100FA000004E050700470507004005080038050703
:100FB00000310507002A050700230507001C050668
:100FC00000160507000F05070008050600020507C3
:100FD00000FB040600F5040700EE040600E8040622
:100FE00000E2040700DB040600D5040600CF040677
:100FF00000C9040600C3040600BD040600B70406C9
:1010000000B1040500AC040600A6040600A0040517
:10101000009B04060095040500900406008A040560
:101020000085040500800406007A040500750405A7
:1010300000700405006B04050066040500610405EA
:10104000005C04050057040500520405004D04052A
:101050000048040500430405003E0404003A04056A
:101060000035040500300404002C040500270404A6
:1010700000230405001E0404001A040400160405DD
:1010800000110404000D0404000904050004040414
:101090000000040400FC030400F8030400F403044B
:1010A00000F0030400EC030400E8030400E403047C
:1010B00000E0030400DC030400D8030400D40304AC
:1010C00000D0030400CC030400C8030300C50303DD
:1010D0000024F404D9201BC40C5C0E9804C4095FDE
:1010E0000265077101F405F900FB04B300480487A9
:1010F00000C10369005803550003034500BE023ACE
:10110000008402310053022A002902250004022033
:1011100000E4011C00C8011900AF01170098011478
:101120000084011300710110006101100051010ED3
:101130000043010D0036010B002B010B0020010BB9
:1011400000150109000C01090003010800FB00085B
:1011500000F3000800EB000700E4000600DE0006D4
:1011600000D8000600D2000600CC000500C700052C
:1011700000C2000500BD000400B9000400B5000471
:1011800000B1000400AD000400A9000400A50003A4
:1011900000A20003009F0004009B000300980003CE
:1011A000009500020093000300900003008D0002F0
:1011B000008B000300880002008600020084000308
:1011C00000810002007F0002007D0002007B00021F
:1011D000007900020077000100760002007400022E
:1011E0000072000100710002006F0002006D00013A
:1011F000006C0002006A0001006900020067000143
:101200000066000100650001006400020062000148
:101210000061000100600001005F0002005D00014C
:10122000005C0001005B0001005A00010059000150
:101230000058000100570001005600010055000150
:10124000005400010053000000530001005200014F
:101250000051000100500001004F0001004E00004D
:10126000004E0001004D0001004C0001004B000049
:10127000004B0001004A0001004900010048000045
:101280000048000100470001004600000046000140
:10129000004500000045000100440001004300003B
:1012A0000043000100420000004200010041000034
:1012B0000041000100400001003F0000003F00012C
:1012C000003E0000003E0001003D0000003D000126
:1012D000003C0000003C0000003C0001003B00001E
:1012E000003B0001003A0000003A00010039000014
:1012F000003900010038000000380000003800010B
:101300000037000000370001003600000036000002
:1013100000360001003500000035000000350001F6
:1013200000340000003400000034000100330000ED
:1013300000330000003300010032000000320000E2
:1013400000320001003100000031000000310001D6
:10135000003000000030000000300001002F0000CD
:10136000002F0000002F0000002F0001002E0000C1
:10137000002E0000002E0001002D0000002D0000B6
:10138000002D0000002D0001002C0000002C0000AA
:10139000002C0000002C0001002B0000002B00009E
:1013A000002B0000002B0001002A0000002A000092
:1013B000002A0000002A0001002900000029000086
:1013C0000029000000290000002900010028000079
:1013D000002800000028000000280000002800016C
:1013E0000027000000270000002700000027000061
:1013F0000027000100260000002600000026000053
:101400000026000000260001002500000025000045
:101410000025000000250000002500000025000137
:10142000002400000024000000240000002400002C
:10143000002400010023000000230000002300001E
:10144000002300000023000000230000002300010F
:101450000022000000220000002200000022000004
:1014600000220000002200010021000000210000F5
:1014700000210000002100000021000000210000E8
:1014800000210001002000000020000000200000DA
:1014900000200000002000000020000000200000CC
:1014A00000200001001F0000001F0000001F0000BE
:1014B000001F0000001F0000001F0000001F0001AF
:1014C000001E0000001E0000001E0000001E0000A4
:1014D00000043700001E290000511B0000581000B6
:1014E0000010090000CC0400007802000041010057
:1014F00000747275650066616C7365007472756561
:101500000066616C736500747275650066616C736A
:101510006500313D2E313800303D2E333235002FFD
:101520003331002F3331002F333100747275650071
:1015300066616C736500203D203078004F666673ED
:10154000657473206170706C696564004572723AED
:1015500020546F6F206661722100546F6F206661A6
:10156000722066726F6D207265666572656E636566
:1015700020706F696E740A00526573656E643A205C
:101580000020746F6F206C6F6E67206578747275C1
:1015900073696F6E2070726576656E7465640A009B
:1015A00020636F6C6420657874727573696F6E2048
:1015B00070726576656E7465640A00627573793A57
:1015C0002070617573656420666F7220696E707536
:1015D000740A00627573793A2070617573656420CE
:1015E000666F7220757365720A00627573793A20AE
:1015F00070726F63657373696E670A004B494C4C78
:1016000045442E20004B494C4C2063617573656442
:10161000206279204B494C4C20627574746F6E2F98
:1016200070696E0A004B494C4C45442E20004B49D2
:101630004C4C2063617573656420627920746F6F10
:10164000206D75636820696E6163746976652074C6
:10165000696D65202D2063757272656E7420636FED
:101660006D6D616E643A200020746F6F206C6F6E38
:101670006720657874727573696F6E207072657615
:10168000656E7465640A0020636F6C64206578740D
:10169000727573696F6E2070726576656E746564BD
:1016A0000A0053544F505045442E20005072696E2A
:1016B0007465722073746F70706564206475652042
:1016C000746F206572726F72732E20466978207471
:1016D0006865206572726F7220616E642075736533
:1016E000204D39393920746F2072657374617274BA
:1016F0002E202854656D706572617475726520695D
:10170000732072657365742E20536574206974208C
:1017100061667465722072657374617274696E6754
:10172000290A0053544F502063616C6C6564206239
:10173000656361757365206F6620424C546F7563F5
:1017400068206572726F72202D20726573746172E9
:10175000742077697468204D3939390A0042696C00
:10176000696E656172204C6576656C696E672047AD
:101770007269643A0A00486F6D696E672066616934
:101780006C656400202844525952554E2900473256
:1017900039204175746F20426564204C6576656C14
:1017A000696E67003F20284C2C522C462C42292081
:1017B0006F7574206F6620626F756E64732E0A00F9
:1017C0003F2856296572626F7365206C6576656C7B
:1017D00020697320696D706C61757369626C652036
:1017E00028302D34292E0A00426164205A20766167
:1017F0006C75650A004E6F2062696C696E65617276
:1018000020677269640A00526573746F726520669E
:1018100061696C73616665004C6F61642073657407
:1018200074696E677300496E697469616C697A6581
:1018300020454550524F4D0053746F7265207365BB
:101840007474696E677300424C546F756368004628
:10185000696C616D656E74004D6F74696F6E0054D4
:10186000656D7065726174757265004D61696E00B9
:10187000507265686561742041425320636F6E66E3
:10188000005072656865617420504C4120636F6E32
:1018900066005049442D44005049442D44005049AD
:1018A000442D49005049442D49005049442D5000D1
:1018B0005049442D500020082046616374002008E0
:1018C0002046616374002008204D617800200820C4
:1018D0004D6178002008204D6178002008204D6976
:1018E0006E002008204D696E002008204D696E00B2
:1018F0004F6666004F6E20004175746F74656D70A1
:101900000046616E20737065656420320046616E2A
:1019100020737065656420320046616E20737065C7
:10192000656420320046616E207370656564203105
:101930000046616E20737065656420310046616EFB
:101940002073706565642031004E6F7A7A6C650093
:101950004E6F7A7A6C65004E6F7A7A6C6500436FD1
:101960006E74726F6C0053746F726520736574745B
:10197000696E6773004E6F7A7A6C65004E6F7A7A83
:101980006C65004E6F7A7A6C650046616E207370EC
:101990006565640046616E2073706565640046612C
:1019A0006E2073706565640054656D706572617456
:1019B000757265005654726176206D696E005654DA
:1019C000726176206D696E005654726176206D6981
:1019D0006E00566D696E00566D696E00566D696ECB
:1019E00000566D6178204500566D6178204500569F
:1019F0006D6178204500566D6178205A00566D6102
:101A000078205A00566D6178205A00566D61782012
:101A10005900566D6178205900566D617820590043
:101A2000566D6178205800566D6178205800566DCB
:101A300061782058004D6F74696F6E001000C90204
:101A400010012C014001220170011801B0010E01AA
:101A5000F00104015002FA00B002F0003003E60089
:101A6000D003DC009004D2007005C800A006BE00C0
:101A70000008B400B009AA00D00BA000600E9600C8
:101A800060118C000015820020197800C01D6E00C6
:101A9000A0226400B0275A00902C5000003146006C
:101AA000E0343C0010383200903A2800603C1E00C0
:101AB000A03D1400803E0A00203F00004534004550
:101AC00033004532004531004530005A320059326A
:101AD000005832005A0059005800453120544845FA
:101AE000524D414C2052554E415741590054686562
:101AF000726D616C2052756E61776179004531209D
:101B000048656174696E67206661696C6564004848
:101B1000656174696E67206661696C656400453152
:101B2000204572723A204D415854454D50004D4168
:101B30005854454D5020747269676765726564003A
:101B40004531204572723A204D494E54454D500062
:101B50004D494E54454D50207472696767657265F2
:101B60006400202F0020403A00D81AD61AD41AD187
:101B70001ACE1ACB1AC81AC51AC21ABF1ABC1A2012
:101B80006472697665722063757272656E743A204C
:101B900000747275650066616C7365002074656D14
:101BA0007065726174757265207072657761726EAE
:101BB000207472696767657265643A2000207072EC
:101BC000657761726E20666C616720636C65617217
:101BD00065640A004472697665722072656769738C
:101BE000746572733A0073327673620900733276E9
:101BF0007361090031323043090031343343090045
:101C00003135304309003135374309006F7409001D
:101C10006F7470770900733267610900733267620D
:101C200009006F6C6109006F6C6209007374737452
:101C30000900445256535441545553005374616C37
:101C40006C67756172642074687273002D737461BF
:101C500072740900687973746572657369730A2D0B
:101C6000656E640900626C616E6B2074696D65005D
:101C70006F66662074696D6509004F542070726547
:101C80007761726E206861730A6265656E20747296
:101C900069676765726564004F542070726577618B
:101CA000726E005B6D6D2F735D090070776D0A7445
:101CB00068726573686F6C64090074737465700989
:101CC000006D73746570730900737465616C74687A
:101CD00043686F70007673656E7365090050574DE9
:101CE000207363616C6509004353206163747561FF
:101CF0006C0900486F6C642063757272656E7400C5
:101D000052756E2063757272656E74004D41582075
:101D100063757272656E7400524D532063757272F2
:101D2000656E74005365742063757272656E74001D
:101D3000456E61626C656409000900454550524F6B
:101D40004D206461746173697A65206572726F7287
:101D50002E0A00290A002062797465733B206372A1
:101D600063200053657474696E67732053746F72D7
:101D70006564202800290A002062797465733B207D
:101D800063726320002073746F72656420736574DE
:101D900074696E6773207265747269657665642014
:101DA0002800202863616C63756C61746564292167
:101DB0000A0020213D2000454550524F4D204352FE
:101DC00043206D69736D61746368202D20287374DE
:101DD0006F7265642920002053697A653A200049B2
:101DE0006E6465783A2000204D61726C696E3D56D4
:101DF0003535290A0028454550524F4D3D0045458F
:101E000050524F4D2076657273696F6E206D697305
:101E10006D61746368200046696C2E204469612EF0
:101E20000046696C2E204469612E004F6666004FA3
:101E30006E20004520696E206D6D3300436F6E7417
:101E4000726F6C004D343238004D323830205030D3
:101E5000205331363000424C546F7563682053650F
:101E60006C662D54657374004D323830205030202C
:101E700053313230005072656865617420414253BD
:101E8000005072656865617420504C4100436F6F6B
:101E90006C646F776E00526573657420424C546FAA
:101EA0007563680044697361626C65207374657062
:101EB00070657273004D38340053657420686F6D1F
:101EC00065206F66667365747300466164652048BB
:101ED000656967687400466164652048656967687C
:101EE00074004661646520486569676874004F66E0
:101EF00066004F6E2000426564204C6576656C6913
:101F00006E67004C6576656C206265640047323808
:101F10000A473239004175746F20686F6D6500475C
:101F20003238004D6F76652061786973004D6169C4
:101F30006E004D6F76652058004D6F766520590014
:101F40004D6F7665205A004578747275646572002D
:101F50004D6F766520302E316D6D004D6F766520AA
:101F6000316D6D004D6F76652031306D6D004D6FB8
:101F7000766520617869730045787472756465725E
:101F8000004D6F7665205A004D6F76652059004DE3
:101F90006F76652058004578747275646572004DDF
:101FA0006F7665205A004D6F76652059004D6F762B
:101FB000652058005072657061726500496E6974E1
:101FC00069616C697A6520454550524F4D00436FF9
:101FD0006E74726F6C0000000A0B02090C0D0E0883
:101FE00007030401000000000000000000000000E2
:101FF00000000000000000000000000000000000E1
:10200000000012111000000000000000000000009D
:1020100000000000000000000000000000002000A0
:102020002300260029002C002F00320000010000B0
:1020300003010601090100002200250028002B00F1
:102040002E003100340002010000050108010B01DF
:1020500005050505070508080808020202020A0A24
:102060000808040404040101010101010101030342
:10207000030303030303040707070C0C0C0C0C0CED
:102080000C0C0202020206060606060606060B0BEA
:102090000B0B0B0B0B0B010210202008081020402B
:1020A000102040800201020108040201010204081C
:1020B00010204080804020100804020180040201AA
:1020C00080402010080402010804020101020408F3
:1020D000102040800102040810204080556E6B6E75
:1020E0006F776E20636F6D6D616E643A20220041E0
:1020F0006D6178204500416D6178204500416D613A
:1021000078205A00416D6178205A00416D61782035
:102110005900416D6178205900416D617820580067
:10212000416D6178205800412D74726176656C00B4
:10213000412D74726176656C00412D726574726117
:10214000637400412D72657472616374004163634E
:10215000656C00416363656C004D6F74696F6E0060
:1021600056652D6A65726B0056652D6A65726B0047
:1021700056652D6A65726B00567A2D6A65726B0022
:10218000567A2D6A65726B0056792D6A65726B00FE
:1021900056792D6A65726B0056792D6A65726B00EF
:1021A00056782D6A65726B0056782D6A65726B00E1
:1021B00056782D6A65726B004D6F74696F6E0045BD
:1021C00073746570732F6D6D004573746570732F34
:1021D0006D6D005A73746570732F6D6D005A737452
:1021E0006570732F6D6D005973746570732F6D6D0D
:1021F000005973746570732F6D6D0058737465703A
:10220000732F6D6D005873746570732F6D6D004D75
:102210006F74696F6E0053746570732F6D6D004A33
:1022200065726B00416363656C65726174696F6EA2
:102230000056656C6F636974790050726F62652037
:102240005A204F66667365740050726F6265205A3B
:10225000204F666673657400436F6E74726F6C0016
:10226000506C6561736520726573657400505249E6
:102270004E5445522048414C544544005072696EBA
:102280007465722068616C7465642E206B696C6C77
:1022900028292063616C6C6564210A001FFFFFFF21
:1022A000FFFFFF600000000001FF40000000000091
:1022B000FF8000000000007F83CF00000C303F87CC
:1022C000FF80000C301F867980000C000F8C30C717
:1022D000838C30E78C30CFC7CC31F38C30DCECEC26
:1022E00033B98C30D86C6C33198C30D06C0C3319FA
:1022F0008C30D86C0C33198C30DC6C0E3B198C3064
:10230000CF7C079F198C30C77C038F1940000000D9
:10231000000002600000000000061FFFFFFFFFFF3B
:10232000F82020506C616E6E65724275666665724B
:1023300042797465733A20002046726565204D65C8
:102340006D6F72793A2000436F6D70696C65643A05
:102350002041707220323620323031390A00207C20
:1023600020417574686F723A20284D617274696EED
:10237000204E6F766F746E792C2064656661756C83
:102380007420636F6E666967290A00323031382D18
:1023900030382D303100204C6173742055706461E9
:1023A0007465643A2000312E312E390A004D617275
:1023B0006C696E0020536F66747761726520526598
:1023C0007365740A00205761746368646F672052F4
:1023D000657365740A002042726F776E206F7574A2
:1023E0002052657365740A002045787465726E61C9
:1023F0006C2052657365740A00506F776572557072
:102400000A0073746172740A00000000000000008A
:102410000000000000000048420000484200008028
:1024200040000000005761726E696E673A20486F85
:102430006D696E672042756D702044697669736FAF
:1024400072203C20310A000202040000A04000007B
:10245000A040000000400000484300004843000046
:102460004843FFFFFF4572726F722077726974698B
:102470006E6720746F20454550524F4D210A000071
:10248000060900FE0701920321207FFF07FF07FFD7
:10249000000000060000010707060200808080801F
:1024A000800080030202060105A0A00507070600C0
:1024B000005050F850F850500507070600002078EB
:1024C000A07028F020050707060000C0C8102040B3
:1024D00098180507070600006090A040A8906802C1
:1024E0000303060104C040800307070601002040E3
:1024F00080808040200307070601008040202020C4
:10250000408005050506000120A870A820050505E6
:102510000600012020F820200203030602FFC0402D
:1025200080050101060003F8020202060200C0C095
:102530000505050600010810204080050707060074
:10254000007088888888887003070706010040C0EB
:1025500040404040E0050707060000708808708092
:1025600080F8050707060000F81020100808F0059D
:10257000070706000010305090F8101005070706F6
:102580000000F880F0080888700507070600007052
:102590008080F0888870050707060000F808102082
:1025A0002020200507070600007088887088887042
:1025B000050707060000708888780808700205057E
:1025C000060200C0C000C0C00206060602FFC0C06E
:1025D00000C0408004070706000010204080402013
:1025E00010050303060002F800F8040707060100BF
:1025F00080402010204080050707060000708808F2
:102600001020002005070706000070880868A8A8A9
:1026100070050707060000708888F8888888050715
:1026200007060000F08888F08888F0050707060094
:102630000070888080808870050707060000F08899
:1026400088888888F0050707060000F88080F080F9
:1026500080F8050707060000F88080F0808080057C
:102660000707060000708880B8888870050707068D
:102670000000888888F8888888010707060200809B
:1026800080808080808005070706000038101010C9
:102690001090600507070600008890A0C0A09088F1
:1026A000050707060000808080808080F805070706
:1026B00006000088D8A888888888050707060000D3
:1026C0008888C8A898888805070706000070888849
:1026D00088888870050707060000F08888F08080E9
:1026E0008005070706000070888888A8906805079D
:1026F00007060000F08888F0A0908805070706000C
:1027000000788080700808F0050707060000F820B0
:102710002020202020050707060000888888888858
:10272000887005070706000088888888885020057B
:1027300007070600008888888888A85005070706CC
:102740000000888850205088880507070600008808
:10275000888850202020050707060000F808102070
:102760004080F8030707060100E08080808080E059
:102770000505050600018040201008030707060133
:1027800000E02020202020E0050303060004205064
:1027900088050101060000F80202020602058040D9
:1027A000050505060000700878887805070706000B
:1027B000008080B0C88888F005050506000070809C
:1027C00080887005070706000008086898888878E0
:1027D0000505050600007088F880700507070600EB
:1027E000003048E0404040400506060600FF708883
:1027F000887808700507070600008080B0C88888C0
:10280000880107070602008000808080808003081E
:10281000080601FF200020202020A0400407070612
:102820000000808090A0C0A090030707060100C0B0
:102830004040404040E0050505060000D0A8A8A89B
:10284000A8050505060000B0C888888805050506A6
:10285000000070888888700506060600FFF08888EA
:10286000F080800506060600FF788888780808054D
:102870000505060000B0C88080800505050600003B
:1028800070807008F00407070600004040E04040F8
:10289000403005050506000088888898680505050C
:1028A00006000088888850200505050600008888F5
:1028B000A8A8500505050600008850205088050688
:1028C000060600FF88888878087005050506000060
:1028D000F8102040F8030707060100204040804020
:1028E00040200107070602008080808080808003EE
:1028F0000707060100804040204040800502020694
:102900000002689000000006000050726F62696E5D
:1029100067206661696C65640A0050726F62696E57
:1029200067206661696C656400205A3A200020596E
:102930003A200042656420583A200000060900FE53
:10294000000000000001090008FE0000050808065C
:10295000000040F0C8888898781005080806000034
:10296000C0F88888888888F80505050600012030A9
:10297000F830200508080600002070F820202020EC
:10298000E00509090600FF2070A8A8B88888702013
:102990000509090600FFE080C0B0A82830282805F6
:1029A00009090600FFF8A88888888888A8F8050A19
:1029B0000A0600FE205050505088A8A888700303D3
:1029C0000306000340A04050726F74656374656431
:1029D0002050696E0A0020573A004520436F6F6C03
:1029E000696E672E2E2E00452048656174696E67FA
:1029F0002E2E2E00205A3A0020423A0020436F75B6
:102A00006E7420413A0020453A00205A3A0020597D
:102A10003A00583A003A004361703A005741524E2A
:102A2000494E4721204C6F77205A204A65726B200F
:102A30006D6179206C65616420746F20756E7761BB
:102A40006E746564207061757365732E0A00205A78
:102A500000205900580020204D61783A2000205A6B
:102A600000205900580020204D696E3A20004F6E1A
:102A700020004F666600536F667420656E64737441
:102A80006F70733A200020643A0020693A00207089
:102A90003A00496E76616C69642065787472756479
:102AA00065720A004F66660A0046616465204865E3
:102AB000696768742000426564204C6576656C69BE
:102AC0006E6720004661696C656420746F20656ED6
:102AD00061626C6520426564204C6576656C696E48
:102AE000670A00486F6D652025732573257320667E
:102AF00069727374002066697273740A005A00590F
:102B0000005800486F6D6520006563686F3A0045A6
:102B100072726F723A00656E7175657565696E6780
:102B20002022004B494C4C45442E200053544F501A
:102B30005045442E20005072696E74657220737483
:102B40006F707065642064756520746F20657272A3
:102B50006F72732E204669782074686520657272E2
:102B60006F7220616E6420757365204D393939208C
:102B7000746F20726573746172742E202854656DB1
:102B80007065726174757265206973207265736512
:102B9000742E2053657420697420616674657220F8
:102BA00072657374617274696E67290A004E6F20D2
:102BB000436865636B73756D2077697468206C6911
:102BC0006E65206E756D6265722C204C6173742089
:102BD0004C696E653A2000636865636B73756D20A0
:102BE0006D69736D617463682C204C617374204C43
:102BF000696E653A20004C696E65204E756D6265A0
:102C000072206973206E6F74204C617374204C695C
:102C10006E65204E756D6265722B312C204C617390
:102C200074204C696E653A20004D313130002049E6
:102C30006E76616C69642065787472756465722063
:102C4000000000000000000000000000000000483C
:102C500043000048430000484348617264636F6466
:102C600065642044656661756C742053657474698D
:102C70006E6773204C6F616465640A00B80B0000D6
:102C8000B80B00006400000010270000000096430D
:102C9000000096430000A0400000C8410000A04290
:102CA0000000A04200007A450000FA433A0A0020E2
:102CB000286D6D290020204D39303600205A002023
:102CC00059002058005374657070657220647269F1
:102CD0007665722063757272656E743A0A00202000
:102CE0004D383531205A005A2D50726F6265204F91
:102CF00066667365740020440020490020204D332F
:102D000030312050005049442073657474696E67F7
:102D1000733A0A0020460020420020480020204D3F
:102D20003134352053004D6174657269616C2068DF
:102D3000656174757020706172616D657465727320
:102D40003A0A00205A00204A0020204732392057F2
:102D5000204900205A0020204D34323020530041B9
:102D600075746F20426564204C6576656C696E678A
:102D70003A0A00205A0020590020204D32303620D7
:102D80005800486F6D65206F66667365743A0A0077
:102D9000204500205A0020590020580020540020CF
:102DA000530020204D32303520510020453C6D61CC
:102DB000785F655F6A65726B3E0020583C6D617894
:102DC0005F785F6A65726B3E20593C6D61785F7910
:102DD0005F6A65726B3E205A3C6D61785F7A5F6A0C
:102DE00065726B3E00416476616E6365643A2051A2
:102DF0003C6D696E5F7365676D656E745F74696D58
:102E0000655F75733E20533C6D696E5F66656564F2
:102E1000726174653E20543C6D696E5F74726176B8
:102E2000656C5F66656564726174653E0020540080
:102E300020520020204D3230342050004163636521
:102E40006C65726174696F6E2028756E6974732F7A
:102E50007332293A20503C7072696E745F6163630B
:102E6000656C3E20523C726574726163745F61638D
:102E700063656C3E20543C74726176656C5F61637F
:102E800063656C3E0A00204500205A00205900204E
:102E9000204D3230312058004D6178696D756D20BC
:102EA000416363656C65726174696F6E2028756E2D
:102EB0006974732F7332293A0A00204500205A00A2
:102EC00020590020204D3230332058004D61786960
:102ED0006D756D2066656564726174657320287513
:102EE0006E6974732F73293A0A00204500205A0036
:102EF00020590020204D39322058005374657073DA
:102F00002070657220756E69743A0A0020204D3277
:102F100030302044300A0020204D32303020440030
:102F20002044697361626C65640A0046696C616D76
:102F3000656E742073657474696E67733A0020203F
:102F40004D3134392043203B20556E69747320691C
:102F50006E2043656C736975730A00202047323117
:102F6000202020203B005452494747455245440009
:102F70006F70656E003A20007A5F6D696E00795F50
:102F80006D696E00785F6D696E005265706F727466
:102F9000696E6720656E6473746F702073746174FA
:102FA00075730A0023646566696E65204445464171
:102FB000554C545F4B64200023646566696E652040
:102FC00044454641554C545F4B6920002364656677
:102FD000696E652044454641554C545F4B70200056
:102FE000504944204175746F74756E652066696E32
:102FF0006973686564212050757420746865206C5D
:10300000617374204B702C204B6920616E64204BDF
:103010006420636F6E7374616E74732066726F6D7B
:103020002062656C6F7720696E746F20436F6E66E7
:10303000696775726174696F6E2E680A0050494441
:10304000204175746F74756E65206661696C656486
:10305000212074696D656F75740A004531205448EC
:1030600045524D414C2052554E41574159005468EC
:1030700065726D616C2052756E61776179004531C2
:103080002048656174696E67206661696C656400DB
:1030900048656174696E67206661696C656400509B
:1030A0004944204175746F74756E65206661696C62
:1030B0006564212054656D70657261747572652058
:1030C000746F6F20686967680A00204B643A2000BB
:1030D000204B693A2000204B703A20000A20436CB4
:1030E000617373696320504944200A002054753A83
:1030F0002000204B753A2000206D61783A20002096
:103100006D696E3A200020643A2000206269617384
:103110003A2000504944204175746F74756E6520E3
:103120006661696C6564212042616420657874720F
:1031300075646572206E756D6265720A005049444F
:10314000204175746F74756E652073746172740AB2
:10315000006265640A002C2073797374656D2073B6
:10316000746F7070656421204865617465725F4991
:10317000443A200000002100240027002A002D00EE
:103180003000330001010000040107010A0184EA54
:1031900011241FBECFEFD1E2DEBFCDBF00E00CBFD8
:1031A00013E0A0E0B2E0ECE7F1EF01E00BBF02C0FA
:1031B00007900D92A638B107D9F721E1A6E8B3E050
:1031C00001C01D92AB36B207E1F718E1C8ECD8E1B7
:1031D00000E006C021970109802FFE010E940EF534
:1031E000C73CD10780E00807A9F70E9465D10C947D
:1031F000BCF80C9400006091050270910602072E45
:10320000000C880B990B0E9477F02AE037ED43E21F
:103210005CE30E94D6F02091550430915604409111
:103220005704509158040E94D6F0609301027093A5
:103230000202809303029093040208956091140D9A
:103240007091150D8091160D9091170D41E00C9421
:10325000914F80E00C949364CF93DF9300D01F9242
:10326000CDB7DEB7882319F00E948AA00FC088EB83
:1032700091E09C838B8384E190E09A838983BE01F3
:103280006D5F7F4FCE0101960E942CB40F900F907E
:103290000F900F90DF91CF9108958091CD038230F0
:1032A00029F0813031F086E59BE005C083E79BE0A3
:1032B00002C087E69BE06FEF0C9476A180916906CF
:1032C0008630D8F496E0899FF0011124EB5BF94F2A
:1032D00020914B0230914C02318320834091400D6C
:1032E0005091410D6091420D7091430D4283538383
:1032F000648375838F5F8093690608950F931F938E
:1033000020914B0230914C022817390759F1009156
:103310002C0610912D0620912E0630912F06009339
:10332000140D1093150D2093160D3093170D9093D7
:103330004C0280934B024093400D5093410D60939B
:10334000420D7093430D885C994121F41092FF0C5B
:103350001092690682E080935E0281E080933D0DC9
:103360001092040D1F910F91089540E050E0BA01B2
:103370008BE99DE10E947E191092800610928106D1
:10338000109282061092830681E08093FF0C0895CC
:103390008F929F92AF92BF92CF92DF92EF92FF9265
:1033A0000F931F93CF93DF931092440D8091050DDF
:1033B0001092050D8823A9F00E94CCA940E050E0AE
:1033C000BA0185E19EE1DF91CF911F910F91FF90AE
:1033D000EF90DF90CF90BF90AF909F908F900C9424
:1033E0007E194091400D5091410D6091420D7091B8
:1033F000430D2091540230915502C901840F951F4D
:103400002436310524F4853691053CF416C0243663
:10341000310531F08436910584F484E690E00DC0E6
:10342000473051056105710514F0069706C04A3F03
:103430005F4F6F4F7F4F6CF40696909355028093C9
:1034400054021092400D1092410D1092420D1092B4
:10345000430D80915402909155028A3091053CF0C1
:10346000883EE3E09E072CF087EE93E002C08AE0FE
:1034700090E090935502809354020E940FD10091E6
:103480006B0610916C0620916D0630916E066B01F3
:103490007C01C01AD10AE20AF30AF7FC13C020919A
:1034A0006A06209520936A06DC01CB018A549C4F62
:1034B000AF4FBF4F80936B0690936C06A0936D0641
:1034C000B0936E06C0916A060E941AA18091270FE0
:1034D000853108F5CC2359F08091DA039091DB0314
:1034E000892B29F029E3E22E2AE0F22E04C09CE188
:1034F000E92E99E0F92E03E128E741E068E083EF47
:103500009EE00E945B9B882331F097014FE061E0D1
:1035100088E00E9403A68091270F8D3108F09AC0A1
:103520008830B0F580913406CC2381F16091CE03D0
:103530007091CF03072E000C880B990B0E9477F037
:1035400020E030E040E05FE30E944EF50E94BAF6D2
:10355000CB010E9430A0FC018081803211F090E00C
:1035600004C08181803281F093E085E0891B8093E3
:103570002A0F87E080932B0FCF010E9440AA89E198
:1035800099E00E9432AA04C096E0EFCF882371F23E
:103590008091270F8D31A0F58091290F853180F121
:1035A00020E030E040E05FE360913006709131064A
:1035B00080913206909133060E944EF50E94BAF631
:1035C000CB010E9430A0FC018081803209F0B7C19C
:1035D0008181803209F4B1C193E085E0891B809339
:1035E0002A0F8CE180932B0FCF010E9440AA89E122
:1035F00099E00E9432AA8091270F853108F498C182
:103600008091270F8C3130F58091290F843110F192
:103610008091DA039091DB03019644E6489F900184
:10362000499F300D112437FF02C021503F4F832F97
:10363000932F990F990B009769F028E620932A0F92
:103640002BE120932B0F0E9430A00E9440AA85E21C
:103650000E94E2B2E091ED0EF091EE0E84818111B4
:103660002DC12091AE0E3091AF0E4091B00E509111
:10367000B10E6091BE0E7091BF0E8091C00E909100
:10368000C10E0E944EF56B017C0120E030E0A901E3
:103690000E9470F087FD05C020E030E040E05FE36D
:1036A00004C020E030E040E05FEBC701B6010E94BB
:1036B0004EF50E94BAF6CB010E94AF9FBC018BE78A
:1036C00096E00E948DF82091B20E3091B30E409199
:1036D000B40E5091B50E6091C20E7091C30E8091E0
:1036E000C40E9091C50E0E944EF56B017C0120E046
:1036F00030E0A9010E9470F087FD05C020E030E0B5
:1037000040E05FE304C020E030E040E05FEBC70151
:10371000B6010E944EF50E94BAF6CB010E94AF9FFF
:10372000BC0186E796E00E948DF82091B60E30919C
:10373000B70E4091B80E5091B90E6091C60E7091BF
:10374000C70E8091C80E9091C90E0E944EF56B0174
:103750007C0120E030E04AE754E40E94D6F04B01BF
:103760005C0120E030E0A901C701B6010E9470F0C1
:1037700087FD05C020E030E040EA50E404C020E0CE
:1037800030E040EA50ECC501B4010E944EF520E063
:1037900030E040E251E40E9448F60E94BAF66B0124
:1037A0007C0197FD16C0603127E272078105910503
:1037B000D4F020E137E240E050E00E9499F4CA01E1
:1037C000B9012AE030E040E050E00E9499F4605DE9
:1037D0000BC0F094E094D094C094C11CD11CE11CA7
:1037E000F11C6DE201C060E26093460D88EEC816E0
:1037F00083E0D806E104F10494F0C701B60128EE95
:1038000033E040E050E00E9499F4CA01B9012AE097
:1038100030E040E050E00E9499F4605D01C060E259
:103820006093470DC701B60124E630E040E050E068
:103830000E9499F48AE0882E912CA12CB12CCA0107
:10384000B901A50194010E9499F4605D6093480D4F
:10385000C701B601A50194010E9499F4D62F6623F1
:1038600081F08EE28093490DCA01B901A50194014E
:103870000E9499F4605D60934A0DD05DD0934B0D2A
:1038800017C0CA01B901A50194010E9499F46623E9
:1038900039F08EE28093490D605D60934A0D05C05A
:1038A00080E280934A0D8093490D80E280934B0D16
:1038B00066E47DE08FE696E00E948DF88091270F08
:1038C000883278F48091290F8D3158F00E94408918
:1038D0008091270F873228F48091290F8F3108F0CB
:1038E00053C08091270F823328F48091290F8B32A7
:1038F00008F0D7C08091270F803408F0F1C0809184
:10390000290F883308F4ECC010922A0F8FE38093BC
:103910002B0F86ED9EE00E94127CC82F0E94FEB203
:10392000C63108F0DDC080E20E94E2B2CF5FF8CF7E
:103930008091290F813128F463CE96E04ECE90E03D
:103940004CCE6091CE037091CF03072E000C880BF4
:10395000990B0E9477F0209130063091310640910A
:103960003206509133060E94AEF7181624F08DE00F
:103970000E945E8945CE1092130F8DE00E945E89F1
:1039800081E08093130F3CCE83E080932A0FD6E230
:10399000D0932B0F87E199E00E9432AA8BE08093AD
:1039A0002A0FD0932B0FCC2329F08BE796E00E94AF
:1039B00040AA19C08091CE0E80FD0DC00BE716E025
:1039C000F80181918F01882371F08F320CF08FE321
:1039D0000E941DAAF5CF8091AD0E80FDE6CF82E159
:1039E00099E00E9432AA8BE280932A0FD6E2D0930C
:1039F0002B0F80E199E00E9432AA83E380932A0F83
:103A0000D0932B0FCC2329F086E796E00E9440AAA2
:103A100019C08091CE0E81FD0DC006E716E0F801B9
:103A200081918F01882371F08F320CF08FE30E9417
:103A30001DAAF5CF8091AD0E81FDE6CF82E199E020
:103A40000E9432AA83E580932A0FD6E2D0932B0FEF
:103A50008EE099E00E9432AA8BE580932A0FD093E2
:103A60002B0FCC2329F08FE696E00E9440AA39CF95
:103A70008091CE0E82FD0CC0CFE6D6E089918823DE
:103A800009F42FCF8F320CF08FE30E941DAAF6CFDE
:103A90008091AD0E82FDE7CF87E099E00E9432AAC7
:103AA00020CF84E00E94EBA983E080932A0FC2E339
:103AB000C0932B0F86E00E941DAA0E941AA18CE0E1
:103AC00080932A0FC0932B0F80915402909155023E
:103AD0000E9430A00E9440AA85E20E94E2B20ACF72
:103AE000DF91CF911F910F91FF90EF90DF90CF90DA
:103AF000BF90AF909F908F90089540E050E0BA0142
:103B000088EC99E10C947E19E0916906EE2389F026
:103B1000E150E093690686E0E89FF0011124EB5B39
:103B2000F94F4281538164817581808191810C9428
:103B30007E190C947D1DCF93DF9300D01F92CDB7DB
:103B4000DEB78091050D1092050D882329F01092A3
:103B5000FF0C0E94841D62C08091400D9091410D28
:103B6000A091420DB091430D0097A105B10589F1D7
:103B70001092400D1092410D1092420D1092430D83
:103B800021E020935E022091AD0E22FF0AC0209119
:103B90005D0430915E04280F391F30935E0420933A
:103BA0005D04092E000CAA0BBB0B409180065091BE
:103BB00081066091820670918306840F951FA61F6F
:103BC000B71F8093800690938106A0938206B093DE
:103BD000830680915E02882309F1609180067091CE
:103BE000810680918206909183060E9477F0209151
:103BF0003D0630913E0640913F06509140060E949E
:103C0000D6F069837A838B839C83CE0101960E94D0
:103C10007389BC0184E19CE00E944CAA0F900F9034
:103C20000F900F90DF91CF910895CF93DF930E9473
:103C3000088AD0913B0DC0E0D11121C080913E0D8A
:103C4000882329F080915E028823C9F00DC08091FD
:103C5000050D8823B9F31092050D0E94841D8091F3
:103C60003D0D882379F38BC081E090913E0D911139
:103C700080E024E048E05CE06C2F0E94DBA08091B3
:103C8000171090911810891B8F7031F1D13009F005
:103C900048C080913E0D813031F080915E028823D2
:103CA00009F465C00FC08091050D8823B1F310920F
:103CB000050D88EE9FE10E949FE780913D0D8823CE
:103CC00061F35DC081E090913E0D913009F080E09C
:103CD00023E043E05CE048C0D13019F580913E0D0F
:103CE000813031F080915E02882309F440C00FC01A
:103CF0008091050D8823B1F31092050D81EB90E8BA
:103D00000E949FE780913D0D882361F338C081E0D8
:103D100090913E0D913009F080E023E04BEF5BE0A5
:103D200023C0D23021F580913E0D823029F0809160
:103D30005E028823E1F00FC08091050D8823B9F35E
:103D40001092050D8FEC96E50E949FE780913D0D46
:103D5000882369F314C081E090913E0D923009F000
:103D600080E023E043EF5BE06C2F0E94DBA0CF5F9D
:103D7000DF5FC53009F060CF83E080933C0DDF91B9
:103D8000CF910895AF92BF92CF92DF92EF92FF92C0
:103D90000F931F93CF93DF930E94088AD0913B0D1E
:103DA000C0E00DE81BE088EAE82E8BE0F82E96ECE8
:103DB000C92E9BE0D92E21EEA22E2BE0B22ED111DE
:103DC00020C080913E0D882331F080915E028823CF
:103DD00009F47AC00DC08091050D8823B1F31092CB
:103DE000050D0E94841D80913D0D882371F3ABC0A9
:103DF00081E090913E0D911180E024E04EEE5BE079
:103E000060C0D13029F580913E0D813031F0809134
:103E10005E02882309F458C011C08091050D8823E3
:103E2000B1F31092050DB092120DA092110D0E94E7
:103E300062BC80913D0D882351F385C081E0909153
:103E40003E0D913009F080E020E243ED5BE039C0A7
:103E5000D23021F580913E0D823029F080915E02B2
:103E6000882391F111C08091050D8823B9F3109238
:103E7000050DD092120DC092110D0E9462BC80916E
:103E80003D0D882359F35FC081E090913E0D923043
:103E900009F080E020E244EB5BE013C0D33069F529
:103EA00080913E0D8330C1F080915E02882361F0E5
:103EB00081E090913E0D933009F080E020E249E9E5
:103EC0005BE06C2F0E94DBA0CF5FDF5FC53009F0A5
:103ED00076CFC0933C0D37C08091050D882321F328
:103EE0001092050DF092120DE092110D0E9462BC2D
:103EF00080913D0D8823C1F226C0D43029F78091EE
:103F00003E0D843029F080915E028823E9F211C0D1
:103F10008091050D8823B9F31092050D1093120DB1
:103F20000093110D0E9462BC80913D0D882359F3CE
:103F30000AC081E090913E0D943009F080E020E2CB
:103F400040E85BE0BECFDF91CF911F910F91FF90D2
:103F5000EF90DF90CF90BF90AF900895CF92DF9217
:103F6000EF92FF920F93CF93DF93CDB7DEB7E9893E
:103F7000FA89C080D180E280F38020E030E0A9019E
:103F8000C701B6010E9470F087FD05C020E030E057
:103F900040E05FE304C020E030E040E05FEBC701B9
:103FA000B6010E944EF50E94BAF6CB010E9430A0E5
:103FB00000E09C014D855E856C858B850E94CBAAB7
:103FC000DF91CF910F91FF90EF90DF90CF90089508
:103FD0002F923F925F926F927F928F929F92AF92B9
:103FE000BF92CF92DF92EF92FF920F931F93CF93E6
:103FF000DF930E94088AC0913B0D512CD1E02AE248
:10400000222E2CE0322E32EAA32E3CE0B32E4AEBD5
:10401000842E4CE0942E50EC652E5CE0752EC11180
:1040200020C080913E0D882331F080915E0288236C
:1040300009F4D8C00DC08091050D8823B1F310920A
:10404000050D0E94841D80913D0D882371F31CC2D3
:1040500081E090913E0D911180E024E04CEC5CE019
:10406000BEC0C13009F043C080913E0D813031F0B7
:1040700080915E02882309F4B5C017C08091050DB8
:104080008823B1F31092050D00E010E027EE33E035
:104090004AE050E064E572E086EC9CE00E9453E95F
:1040A00080913D0D882321F3EFC183E08F9387EE4C
:1040B0008F931F928AE08F9384E592E09F938F9372
:1040C0009F928F927F926F925F9281E090913E0DCE
:1040D000913009F080E08F930E946DEA8DB79EB712
:1040E0000C960FB6F8949EBF0FBE8DBF7BC0C2303A
:1040F00009F056C080913E0D823031F080915E0211
:10410000882309F46FC026C08091050D8823B1F380
:104110001092050DD093440D1092000D1092010DD8
:104120001092020D1092030D8EE1C82E89E1D82E57
:10413000E12CF12C08EC12E420E030E0A90164E16C
:104140007DE08EEA9CE00E94618A80913D0D88238B
:10415000A9F29AC18EE199E19F938F931F9284E611
:104160008F931F921F9284E19DE09F938F9386E926
:104170009CE09F938F93BF92AF925F9281E090916A
:104180003E0D923009F080E08F930E94AE1F8DB7F4
:104190009EB70E960FB6F8949EBF0FBE8DBF22C07D
:1041A000C33049F1C43009F478C0C53009F4C4C043
:1041B000C63009F410C1C730A9F480913E0D873094
:1041C00009F452C180915E02882361F081E09091F0
:1041D0003E0D973009F080E023E04FE15CE0652D73
:1041E0000E94DBA05394CF5F95E0591218CF88E06E
:1041F00080933C0D49C180913E0D833029F0809120
:104200005E02882379F321C08091050D8823B9F3DC
:104210001092050DD093440D1092000D1092010DD7
:104220001092020D1092030D09E219E124E031E031
:1042300040E050E06EEC73E08FE89CE00E9453E9B0
:1042400080913D0D8823D9F21FC189E299E19F93A6
:104250008F93DF9384E08F931F921F928EEC93E0F5
:104260009F938F9381E89CE09F938F9388E89CE0D5
:104270009F938F935F9281E090913E0D933009F070
:1042800080E08F930E946DEA8DB79EB70E960FB6B1
:10429000F8949EBF0FBE8DBFA5CF80913E0D843098
:1042A00031F080915E02882309F49CCF21C0809177
:1042B000050D8823B1F31092050DD093440D109293
:1042C000000D1092010D1092020D1092030D00E0EE
:1042D00010E02FEF30E040E050E06AED73E085E75A
:1042E0009CE00E9453E980913D0D8823D1F2CCC01F
:1042F0001F928FEF8F931F921F928AED93E09F93EF
:104300008F938DE59CE09F938F9389E69CE09F932C
:104310008F935F9281E090913E0D943009F080E0A0
:104320008F930E946DEA8DB79EB70C960FB6F894E6
:104330009EBF0FBE8DBF56CF80913E0D853031F0B0
:1043400080915E02882309F44DCF21C08091050D34
:104350008823B1F31092050DD093440D1092000DF7
:104360001092010D1092020D1092030D00E010E06A
:104370002FEF30E040E050E06CED73E081E59CE031
:104380000E9453E980913D0D8823D1F27DC01F9298
:104390008FEF8F931F921F928CED93E09F938F93DB
:1043A00089E39CE09F938F9385E49CE09F938F9398
:1043B0005F9281E090913E0D953009F080E08F93FF
:1043C0000E946DEA8DB79EB70C960FB6F8949EBF0B
:1043D0000FBE8DBF07CF80913E0D863031F08091AA
:1043E0005E02882309F4FECE17C08091050D882354
:1043F000B1F31092050D0BEF18E127EE33E04AE020
:1044000050E065E072E084E39CE00E9453E9809113
:104410003D0D882321F338C08BEF98E19F938F9354
:1044200083E08F9387EE8F931F928AE08F9385E0CE
:1044300092E09F938F933F922F928FE29CE09F9305
:104440008F935F9281E090913E0D963009F080E06D
:104450008F930E946DEA8DB79EB70E960FB6F894B3
:104460009EBF0FBE8DBFBECE8091050D882309F47F
:10447000A9CE1092050D85EB99E10E949FE78091EE
:104480003D0D882309F49ECEDF91CF911F910F91AE
:10449000FF90EF90DF90CF90BF90AF909F908F9064
:1044A0007F906F905F903F902F900895CF93DF9310
:1044B0008091171090911810891B8F7009F445C0D6
:1044C00090911410992351F0833030F48FEF890FBD
:1044D00019F0809314103BC010921410E091181042
:1044E0008FE4E89FF0011124EC57F94F808180FDA3
:1044F0002EC08091FB0C9091FC0CA091FD0CB09112
:10450000FE0CEF01C55BDF4F488159816A817B81D9
:10451000841B950BA60BB70B8093FB0C9093FC0CA4
:10452000A093FD0CB093FE0C809118108F5F8F70DC
:1045300080931510909118108091161098130AC04E
:10454000809115108093161005C00E9465C880E008
:1045500090E001C0CF01DF91CF910895CF92DF921B
:10456000EF92FF920F931F93CF93DF936C018B0118
:104570007A01EC01CA58D44F888187FF04C0FB013F
:104580001182108224C02CE02C9DC0012D9D900D25
:1045900011242881AC01420F511D27FD5A9520910D
:1045A000A91030E04217530794F42881AC01420F60
:1045B000511D27FD5A959A01FA01EE0FFF1F2E0F8C
:1045C0003F1FF901E35CFF4E208126FD19C0888161
:1045D0008F5F88832CE02C9DC0012D9D900D1124B0
:1045E0002881AC01420F511D27FD5A952091A91039
:1045F00030E042175307BCF428812C3044F113C03B
:104600002881820F911D27FD9A95FC01EE0FFF1F57
:104610008E0F9F1FFC01E35CFF4E808160E08F7373
:104620000E943FCFD4CFF8018081918104968034DD
:104630009C4918F480E49CE904C0F80180819181D0
:104640000496F701918380838FEF888345C0F8013A
:10465000408151812881BC01620F711D27FD7A952F
:104660009B01FB01EE0FFF1F2E0F3F1FF901E35CC3
:10467000FF4E21813281240F351FF70131832083C2
:104680002881AC01420F511D27FD5A959A01FA016C
:10469000EE0FFF1F2E0F3F1FF901E35CFF4E20813D
:1046A00026FF1AC02881820F911D27FD9A95FC01D3
:1046B000EE0FFF1F8E0F9F1FFC01E35CFF4E8081FA
:1046C00061E08F73DF91CF911F910F91FF90EF9079
:1046D000DF90CF900C943FCFDF91CF911F910F913E
:1046E000FF90EF90DF90CF9008950F930FB70F9347
:1046F00000916E000F930B7F00936E0000916F008E
:104700000D7F00936F000F930BB70F930CB70F92B1
:104710001F922F933F934F935F936F937F938F934A
:104720009F93AF93BF93EF93FF9311240E94EB23CA
:10473000FF91EF91BF91AF919F918F917F916F9179
:104740005F914F913F912F911F900F900CBF0F9150
:104750000BBF0F910260F89400936F000F910093CC
:104760006E000F910FBF0F9118958091740B80FF11
:1047700003C0899A8FEF02C0899881E080930B0271
:104780008091740B81FF03C08F988FEF02C08F9AC6
:1047900081E080930C028091740B82FF07C08091AE
:1047A0000B018270809309018FEF07C080910B018C
:1047B000809582708093090181E080930D02809141
:1047C000740B83FF03C016988FEF02C0169A81E026
:1047D00080930E0208952F923F924F925F926F92B4
:1047E0007F928F929F92AF92BF92CF92DF92EF9281
:1047F000FF920F931F93CF93DF93F8948FEF9FEF68
:1048000090938900809388001AE0C0E0D0E09DEE8C
:10481000292E94E1392E01E078948091BA0B909181
:10482000BB0BA091BC0BB091BD0B892B8A2B8B2BA2
:1048300009F0D1C1809146118823D1F01092461120
:104840008091441190914511892B91F01092750B34
:1048500010924511109244119091171080911810E8
:10486000981731F0809118108F5F8F708093181017
:104870008091441190914511892B09F4ACC1C090ED
:10488000B60BD090B70BE090B80BF090B90B4091FD
:10489000B20B5091B30B6091B40B7091B50B80903B
:1048A000A50B912CA12CB12CDB01CA018C199D09FF
:1048B000AE09BF0988169906AA06BB0610F4D501F1
:1048C000C401482F8C0D9D1DAE1DBF1D8093B60BDE
:1048D0009093B70BA093B80BB093B90B20918400C1
:1048E00030918500245E3F4FC0908D0BD0908E0B91
:1048F000E0908F0BF090900B80917D0B90917E0B50
:10490000A0917F0BB091800B8C0D9D1DAE1DBF1D26
:1049100080938D0B90938E0BA0938F0BB093900B85
:10492000B7FD1CC0889AC090AC03D090AD03E09056
:10493000AE03F090AF0380910B02082E000C990B90
:10494000AA0BBB0B8C0D9D1DAE1DBF1D8093AC0330
:104950009093AD03A093AE03B093AF03C090910BBF
:10496000D090920BE090930BF090940B8091810B80
:104970009091820BA091830BB091840B8C0D9D1DA7
:10498000AE1DBF1D8093910B9093920BA093930B40
:10499000B093940BB7FD1CC08E9AC090B003D0901A
:1049A000B103E090B203F090B30380910C02082EA3
:1049B000000C990BAA0BBB0B8C0D9D1DAE1DBF1DD2
:1049C0008093B0039093B103A093B203B093B30369
:1049D000C090950BD090960BE090970BF090980BB1
:1049E0008091850B9091860BA091870BB091880BDD
:1049F0008C0D9D1DAE1DBF1D8093950B9093960B46
:104A0000A093970BB093980BB7FD21C080910B0139
:104A10008095887080930901C090B403D090B5034D
:104A2000E090B603F090B70380910D02082E000CC1
:104A3000990BAA0BBB0B8C0D9D1DAE1DBF1D80934A
:104A4000B4039093B503A093B603B093B703C0909B
:104A5000990BD0909A0BE0909B0BF0909C0B80915F
:104A6000890B90918A0BA0918B0BB0918C0B8C0DC4
:104A70009D1DAE1DBF1D8093990B90939A0BA09323
:104A80009B0BB0939C0BB7FD1CC0149AC090B8034D
:104A9000D090B903E090BA03F090BB0380910E026E
:104AA000082E000C990BAA0BBB0B8C0D9D1DAE1D87
:104AB000BF1D8093B8039093B903A093BA03B0933A
:104AC000BB0380918D0B90918E0BA0918F0BB091B9
:104AD000900BB7FD15C0C090790BD0907A0BE09089
:104AE0007B0BF0907C0B8C199D09AE09BF0980935C
:104AF0008D0B90938E0BA0938F0BB093900B889897
:104B00008091910B9091920BA091930BB091940B8B
:104B1000B7FD15C0C090790BD0907A0BE0907B0B5D
:104B2000F0907C0B8C199D09AE09BF098093910B05
:104B30009093920BA093930BB093940B8E988091CB
:104B4000950B9091960BA091970BB091980BB7FD98
:104B500019C0C090790BD0907A0BE0907B0BF0904D
:104B60007C0B8C199D09AE09BF098093950B90931E
:104B7000960BA093970BB093980B80910B018870C4
:104B8000809309018091990B90919A0BA0919B0BB6
:104B9000B0919C0BB7FD15C0C090790BD0907A0BEB
:104BA000E0907B0BF0907C0B8C199D09AE09BF093E
:104BB0008093990B90939A0BA0939B0BB0939C0BB3
:104BC0001498415041F080918400909185008217A3
:104BD0009307C8F389CE8091BA0B9091BB0BA0913B
:104BE000BC0BB091BD0B892B8A2B8B2B09F03DC3DD
:104BF000E0914411F0914511309709F4A5C48091DA
:104C0000B60B9091B70BA091B80BB091B90B409136
:104C1000B20B5091B30B6091B40B7091B50B84172C
:104C20009507A607B707D0F01092750B10924511A3
:104C3000109244119091171080911810981709F450
:104C400083C4809118108F5F8F708093181080ED4F
:104C5000C82E87E0D82EE12CF12C51C14091AE0B2B
:104C60005091AF0B6091B00B7091B10B4817590781
:104C70006A077B0708F467C04091AA0B5091AB0B01
:104C80006091AC0B7091AD0B82A993A9A4A9B5A9B1
:104C9000FF24499FE12C5A9F90016A9F300D699F24
:104CA000200D311D4A9FE00C211D3F1D599FE00C36
:104CB000211D3F1D689FE00C211D3F1D589FE10CE9
:104CC0002F1D3F1DE6942F1D3F1DB49F200D311D4C
:104CD000B59F300D112483AD94ADA5ADB6AD820F57
:104CE000931FA11DB11D8093A60B9093A70BA093BA
:104CF000A80BB093A90BC7A8D0ACE1ACF2ACC81616
:104D0000D906EA06FB0640F4C092A60BD092A70B88
:104D1000E092A80BF092A90B8090A60B9090A70BA5
:104D2000A090A80BB090A90B81ED94E121E0FC01CB
:104D3000C590D590E590F490C814D904EA04FB041A
:104D400008F4DAC2E4C24091A10B5091A20B609129
:104D5000A30B7091A40B481759076A077B0708F04B
:104D600063C040919D0B50919E0B60919F0B709181
:104D7000A00B82A993A9A4A9B5A9FF24499FE12C5E
:104D80005A9F90016A9F300D699F200D311D4A9FE7
:104D9000E00C211D3F1D599FE00C211D3F1D689F08
:104DA000E00C211D3F1D589FE10C2F1D3F1DE69477
:104DB0002F1D3F1DB49F200D311DB59F300D1124B7
:104DC000C901A0E0B0E08090A60B9090A70BA09046
:104DD000A80BB090A90BFF9688159905AA05BB05ED
:104DE00080F4C080D180E280F380881A990AAA0AF0
:104DF000BB0A8C149D04AE04BF0438F4460157016D
:104E000004C080809180A280B38081ED94E121E094
:104E1000FC01C590D590E590F490C814D904EA043B
:104E2000FB0408F4DAC2E4C28091100290911102EE
:104E3000A0911202B0911302B7FF59C087A990AD9B
:104E4000A1ADB2AD21ED34E141E0F901C590D590BD
:104E5000E590F490C816D906EA06FB0658F4B69514
:104E6000A79597958795440F2C5F3F4FF4E12D3E12
:104E70003F0759F74093A50B80329105A105B10575
:104E800020F480E290E0A0E0B0E08097A109B109B1
:104E9000811528E09207A105B10508F40FC344E08D
:104EA000949F900111242F523F4EF9013296459163
:104EB0005491EE27859FB001849F610D7E1F06945B
:104EC0006E1F7E1F1124CB01A0E0B0E0F9014591D7
:104ED000549160E070E0481B590B6A0B7B0B4093C8
:104EE0001002509311026093120270931302C0904B
:104EF0001002D0901102E0901202F0901302809103
:104F0000441190914511892B09F0A7C10E945622A6
:104F10009093451180934411892B09F49EC1E0912F
:104F20004411F0914511808183FF48C0858996899D
:104F3000A789B08D418D528D638D748D4C015D01BB
:104F4000840E951EA61EB71E8092AC039092AD03F0
:104F5000A092AE03B092AF03841B950BA60BB70BC8
:104F60008093B0039093B103A093B203B093B303C3
:104F7000858D968DA78DB0A18093B4039093B503D2
:104F8000A093B603B093B70381A192A1A3A1B4A14A
:104F90008093B8039093B903A093BA03B093BB0373
:104FA0009091171080911810981709F4AFCF809145
:104FB00018108F5F8F7080931810A8CF458956897D
:104FC0006789708D818C928CA38CB48C26A948152E
:104FD00059056A057B0599F441155105610571056F
:104FE00089F021FB332730F9922F9170A92FA02748
:104FF00081E0A31301C080E0391302C004C081E046
:10500000826001C080E0C58CD68CE78CF0A0C11412
:10501000D104E104F10409F084608093750B1092CF
:105020009D0B10929E0B10929F0B1092A00B109252
:10503000AA0B1092AB0B1092AC0B1092AD0B85A18A
:1050400096A1A7A1B0A58093B20B9093B30BA093A8
:10505000B40BB093B50B442455243201481A590AB5
:105060006A0A7B0A4092990B50929A0B60929B0BB2
:1050700070929C0B4092950B5092960B6092970BFE
:105080007092980B4092910B5092920B6092930BFE
:105090007092940B40928D0B50928E0B60928F0BFE
:1050A0007092900B440F551F661F771F40937D0B26
:1050B00050937E0B60937F0B7093800B880C991C30
:1050C000AA1CBB1C8092810B9092820BA092830B36
:1050D000B092840BCC0CDD1CEE1CFF1CC092850B27
:1050E000D092860BE092870BF092880B41A152A1DF
:1050F00063A174A1440F551F661F771F4093890B4E
:1051000050938A0B60938B0B70938C0B880F991FB5
:10511000AA1FBB1F8093790B90937A0BA0937B0BF4
:10512000B0937C0B1092B60B1092B70B1092B80B89
:105130001092B90B82A593A5A4A5B5A58093AE0B3B
:105140009093AF0BA093B00BB093B10B86A597A52E
:10515000A0A9B1A98093A10B9093A20BA093A30B3C
:10516000B093A40B31A58091740B28130AC08091D1
:105170000F0290E0432F032E000C550B48175907E0
:1051800031F02093740B30930F020E94B5230E94DC
:1051900080C88FEF9FEFDC01809310029093110283
:1051A000A0931202B0931302E0914411F0914511C3
:1051B00083AD94ADA5ADB6AD8093A60B9093A70B30
:1051C000A093A80BB093A90B21ED34E141E0F901C4
:1051D000C590D590E590F490C816D906EA06FB066E
:1051E00050F4B695A79597958795440F2C5F3F4F40
:1051F0002216330661F74093A50B80329105A10575
:10520000B10520F480E290E0A0E0B0E08097A10931
:10521000B1098115F8E09F07A105B10508F471C136
:1052200044E0949F900111242F523F4EF901329691
:1052300045915491EE27859FB001849F610D7E1F9B
:1052400006946E1F7E1F1124F901C590D490E12CA5
:10525000F12CC61AD70AE108F108C092BA0BD09215
:10526000BB0BE092BC0BF092BD0B8091BA0B9091FE
:10527000BB0BA091BC0BB091BD0BAC01BD01009765
:10528000F1E0AF07B10520F04FEF5FEF60E070E0B5
:10529000841B950BA60BB70B8093BA0B9093BB0B9B
:1052A000A093BC0BB093BD0BF894809184009091B7
:1052B00085004096115039F0C40FD51FC817D90783
:1052C00008F4AACA01C0EC01D0938900C0938800F9
:1052D0007894DF91CF911F910F91FF90EF90DF9025
:1052E000CF90BF90AF909F908F907F906F905F9086
:1052F0004F903F902F900895B694A79497948794D9
:10530000220F049634E18D3E930709F010CD2093CF
:10531000A50B80E288169104A104B10428F4B0E240
:105320008B2E912CA12CB12C20E2821A9108A1087D
:10533000B108811438E09306A104B104F8F0A4E0A8
:105340009A9EC00111248F529F4EFC0132962591E6
:105350003491F82DEE27F39FD001F29FA10DBE1FCF
:105360000694AE1FBE1F1124FC01C590D490E12C01
:10537000F12CCA1ADB0AE108F10822C0D501C401E8
:10538000B695A79597958795FC01EC7FCF018F5235
:10539000934FFC01C590D490FC0132962591349135
:1053A000E82DE770E29FC001E39F900D1124A3E078
:1053B00096958795AA95E1F7C81AD90AE12CF12CA0
:1053C0004C0D5D1D6E1D7F1D4093AA0B5093AB0BC2
:1053D0006093AC0B7093AD0B92CDB694A794979459
:1053E0008794220F0496A4E18D3E9A0709F010CD10
:1053F0002093A50BB0E28B169104A104B10428F40C
:10540000E0E28E2E912CA12CB12C20E2821A910880
:10541000A108B108811438E09306A104B104F8F0A2
:10542000A4E09A9EC00111248F529F4EFC01329637
:1054300025913491F82DEE27F39FD001F29FA10D15
:10544000BE1F0694AE1FBE1F1124FC01C590D49050
:10545000E12CF12CCA1ADB0AE108F10822C0D501BF
:10546000C401B695A79597958795FC01EC7FCF0170
:105470008F52934FFC01C590D490FC013296259138
:105480003491E82DE770E29FC001E39F900D112455
:1054900033E0969587953A95E1F7C81AD90AE12C39
:1054A000F12C4C0D5D1D6E1D7F1D40939D0B509387
:1054B0009E0B60939F0B7093A00B21CDAC01BD019F
:1054C0007695679557954795FA01EC7F9F012F5286
:1054D000334FF90145915491F901329665917491D8
:1054E0008770869F9001879F300D1124C901F3E0DA
:1054F00096958795FA95E1F7481B590B60E070E0A7
:10550000EECCAC01BD017695679557954795FA01AC
:10551000EC7F9F012F52334FF901C590D490F901D0
:105520003296459154918770849F9001859F300DEC
:105530001124C901B3E096958795BA95E1F7C81A89
:10554000D90AE12CF12C89CE80EDC82E87E0D82E27
:10555000E12CF12CDBCC8F929F92AF92BF92CF9235
:10556000DF92EF92FF920F931F93CF93DF938C0103
:10557000EB0160E070E00E9460B487FD8DC0C03236
:1055800082E0D8070CF042C0F801828128E532E0C1
:10559000281B310987FD3395220F331F220F331F3C
:1055A0004901330FAA08BB08818128E830E069016E
:1055B000C81AD10887FDD394CC0CDD1CCC0CDD1CA3
:1055C0000D2C000CEE08FF08D7FD0AC0C53BD10525
:1055D00014F0C4EBD0E0BE01DD0F880B990B03C0C3
:1055E00060E070E0CB01A50194012C193D094E0942
:1055F0005F090E9467F424EB30E040E050E00E9435
:1056000099F4C20ED31EE41EF51EE601F8013081A6
:10561000343280F5218188E890E0821B910927FDD2
:105620009395880F991F880F991FC817D90784F081
:10563000F801228188E592E0821B910927FD93956C
:10564000880F991F880F991FC817D9070CF4CE012E
:1056500002974FB7F894232F30E0F901EE0FFF1FA8
:105660002E0F3F1FF901E35CFF4E880F991F9283B5
:1056700081834FBF62E370E080E090E0DF91CF91E3
:105680001F910F91FF90EF90DF90CF90BF90AF9060
:105690009F908F900C9466A0DF91CF911F910F91F6
:1056A000FF90EF90DF90CF90BF90AF909F908F9042
:1056B00008958F929F92AF92BF92CF92DF92EF9216
:1056C000FF92FC01828128E532E06901C81AD10805
:1056D00087FDD394CC0CDD1CCC0CDD1C0D2C000CF8
:1056E000EE08FF08818128E830E04901881A910816
:1056F00087FD9394880C991C880C991C092C000C2C
:10570000AA08BB0880818F3FC1F090E0FC01EE0F3A
:10571000FF1F8E0F9F1FFC01E35CFF4E2181328132
:1057200043E0220F331F4A95E1F754E03695279561
:105730005A95E1F72E5F3F4F02C020E030E02F5F27
:105740003F4FC901330FAA0BBB0B9C01AD012819B8
:1057500039094A095B09A4EBB0E00E94B8F4A7013B
:105760009601281939094A095B090E9499F4C9016F
:10577000FF90EF90DF90CF90BF90AF909F908F9071
:1057800008951F920F920FB60F9211240BB60F922D
:105790002F933F934F935F936F937F938F939F9339
:1057A000AF93BF93EF93FF9348E251E064E271E05F
:1057B00082E090E00E94AE22FF91EF91BF91AF9105
:1057C0009F918F917F916F915F914F913F912F9119
:1057D0000F900BBE0F900FBE0F901F9018951F9249
:1057E0000F920FB60F9211240BB60F922F933F9387
:1057F0004F935F936F937F938F939F93AF93BF93D9
:10580000EF93FF9348EA50E064EA70E081E090E0B3
:105810000E94AE22FF91EF91BF91AF919F918F9126
:105820007F916F915F914F913F912F910F900BBEA0
:105830000F900FBE0F901F9018951F920F920FB6EA
:105840000F9211240BB60F922F933F934F935F93B8
:105850006F937F938F939F93AF93BF93EF93FF9338
:1058600048E950E064E970E080E090E00E94AE22F8
:10587000FF91EF91BF91AF919F918F917F916F9128
:105880005F914F913F912F910F900BBE0F900FBEE4
:105890000F901F901895CF92DF92EF92FF92CF93C7
:1058A000DF936A017B01FC018491EF01219688233B
:1058B00021F00E94DFBAFE01F7CF4AE0C701B6012E
:1058C000DF91CF91FF90EF90DF90CF900C94D9BCF7
:1058D000CF92DF92EF92FF92CF93DF936A017B0129
:1058E000FC018491EF012196882321F00E94DFBA08
:1058F000FE01F7CF42E0C701B601DF91CF91FF90E3
:10590000EF90DF90CF900C9462BD0F931F93CF93D5
:10591000DF938B01FC018491EF012196882321F014
:105920000E94DFBAFE01F7CFB801110F880B990B67
:10593000DF91CF911F910F910C9446BD0F931F9350
:10594000CF93DF938B01FC018491EF012196882393
:1059500021F00E94DFBAFE01F7CFE8018991882388
:1059600019F00E94DFBAFACFDF91CF911F910F910A
:10597000089586E40E947FBA8093A90C882351F091
:105980000E944CBA609322027093230280932402F7
:105990009093250283E50E947FBA882351F00E94EC
:1059A0004CBA60932A0270932B0280932C0290933E
:1059B0002D0282E40E947FBA882351F00E944CBAE3
:1059C0006093260270932702809328029093290205
:1059D0000895089580E090E00895DF92EF92FF929D
:1059E0000F931F93CF93DF93EC01D62E1CAD0BAD1D
:1059F0007C0184E0E80EF11CE98DFA8DC701199550
:105A0000412F480F2D2D602FC7010E947D9B9BAD1C
:105A1000890F8BAF81E090E0DF91CF911F910F91C3
:105A2000FF90EF90DF90089511989091020187FD0B
:105A300064C0917090930001119A000011989091A8
:105A40000201382F330F86FD56C0917090930001EC
:105A5000119A0000119880910201232F220F36FD28
:105A600048C0817080930001119A000011988091C4
:105A70000201922F990F26FD3AC081708093000198
:105A8000119A0000119880910201292F220F96FD92
:105A90002CC0817080930001119A000011988091B0
:105AA0000201922F990F26FD1EC081708093000184
:105AB000119A0000119880910201292F220F96FD62
:105AC00010C0817080930001119A0000119880919C
:105AD000020126FD8095817080930001119A0000DB
