:100000000C941D170C944E170C944E170C944E170D
:100010000C944E170C944E170C944E170C944E17CC
:100020000C944E170C944E170C944E170C944E17BC
:100030000C944E170C944E170C944E170C944E17AC
:100040000C944E170C946ABB0C944E170C944E17DC
:100050000C944E170C944E170C942DA10C94F7BFD2
:100060000C944E170C948EAC0C944E170C944E17A7
:100070000C944E170C944E170C944E170C944E176C
:100080000C9448BD0C944E170C944E170C944E17BC
:100090000C944E170C944E170C944E170C944E174C
:1000A0000C944E170C944E170C941ABD0C944E17CA
:1000B0000C944E170C944E170C944E170C94ECBCE9
:1000C0000C944E170C944E170C944E170C944E171C
:1000D0000C944E170C944E170C944E170C944E170C
:1000E0000C944E17D3ACD6ACC5ACC9ACCFAC0DADEF
:1000F000DAACDEACE4ACE8ACECACF2ACF6ACFAAC4E
:100100000DAD00AD04AD08AD0DB012B017B021B00B
:100110002BB0A4B035B03DB045B04FB059B063B0CE
:1001200072B07CB0A4B086B090B09AB0D1B949B8E2
:1001300082B80DBA82B882B882B882B882B882B862
:1001400082B882B882B882B882B882B882B882B8DF
:1001500082B882B882B882B882B882B882B882B8CF
:1001600082B882B882B882B807BA82B882B882B838
:1001700082B882B882B882B882B8E0B982B882B850
:1001800082B882B882B882B882B882B882B882B89F
:1001900024BA7FB8084AD73B3BCE016E84BCBFFD72
:1001A000C12F3D6C74319ABD56833DDA3D00C77F47
:1001B00011BED9E4BB4C3E916BAAAABE00000080E0
:1001C0003F05A84CCDB2D44EB93836A9020C50B96F
:1001D000918688083CA6AAAA2ABE000000803F009B
:1001E0000C94AC9F0C944FB00C9492910C940DAD68
:1001F0000C94AF9F0C94A7810C94A0200C94DCB7B6
:100200000C944D700C940E620C9445B00C9404AD9B
:100210000C949AB00C94473C0C940DB00C9490B094
:100220000C94DA7F0C94A1400C942BB00C946B9539
:100230000C94293A0C94E1930C94147F0C941C9325
:100240000C949C6E0C94E0B90C94E67E0C94C9ACB2
:100250000C94543C0C94D8640C9400AD0C946C3AFF
:100260000C9463B00C94A6940C94663A0C94CA2037
:100270000C94FD7E0C94C0620C94D1B90C9407BA16
:100280000C9436810C94A4B00C94DEAC0C9412B097
:100290000C9457920C94F2AC0C94CA900C947CB0D1
:1002A0000C94F5A60C94A4960C947FB80C94AC8195
:1002B0000C94D6AC0C944C3C0C94E8AC0C945017B9
:1002C0000C9459B00C94CFAC0C9421B00C94F597CD
:1002D0000C94ECAC0C94BB3A0C94D3AC0C9486B05C
:1002E0000C943DB00C94513C0C94AB9F0C94DAAC44
:1002F0000C949D810C9482B80C94F8200C9408AD59
:100300000C946D630C94A0650C940DBA0C940C6A5B
:100310000C94A2810C94723A0C9424BA0C94603A16
:100320000C949CD60C9421210C9472B00C94CA822B
:100330000C94F6AC0C940E6A0C94423C0C941A6D1E
:100340000C9417B00C94106A0C9435B00C942C9645
:100350000C94E4AC0C94FAAC0C9449B80C941D6D5C
:100360000C94206D0C94C5AC4E414E494E495459E5
:10037000494E46CDCCCC3D0AD7233C17B7D1387770
:10038000CC2B329595E6241FB14F0A000020410086
:1003900000C84200401C4620BCBE4CCA1B0E5AAED0
:1003A000C59D74434F4D4D554E49434154494F4EA1
:1003B0000044525952554E004552524F5253004933
:1003C0004E464F004543484F0047322F4733206287
:1003D000616420706172616D65746572730A0053A7
:1003E0006C6565702E2E2E00486F6D652058592063
:1003F00066697273740A00486F6D652058592066EB
:100400006972737400205A3A200020593A20004241
:10041000656420583A20004D65736820706F696EDE
:10042000742063616E6E6F74206265207265736FF5
:100430006C7665640A00436C69636B20746F20728C
:100440006573756D652E2E2E004E6F206D6F76656F
:100450002E002569730025696D20256973002569C3
:10046000682025696D202569730025696420256948
:10047000682025696D202569730025697920256923
:1004800064202569682025696D20256973005072F4
:10049000696E742074696D653A2000C403BF03B8A7
:1004A00003B103A3036F66660044454255473A0013
:1004B0004B494C4C45442E20004D313133205300E4
:1004C0006F6B004D617274696E205859204F6666DB
:1004D0002E002C20002C2000544845524D414C5FEA
:1004E00050524F54454354494F4E004155544F527A
:1004F00045504F52545F53445F5354415455530039
:10050000454D455247454E43595F50415253455220
:1005100000434153455F4C494748545F4252494765
:1005200048544E45535300544F47474C455F4C4940
:100530004748545300534F4654574152455F504F1C
:10054000574552004255494C445F50455243454E31
:1005500054004C4556454C494E475F444154410078
:100560005A5F50524F4245004155544F4C455645F5
:100570004C005052494E545F4A4F420050524F4730
:1005800052455353004155544F5245504F52545FBA
:1005900054454D5000564F4C554D4554524943001B
:1005A000454550524F4D0053455249414C5F584FBD
:1005B0004E5F584F4646004649524D574152455F9F
:1005C0004E414D453A4D61726C696E20312E312E8F
:1005D0003920284769746875622920534F55524362
:1005E000455F434F44455F55524C3A68747470738D
:1005F0003A2F2F6769746875622E636F6D2F4D6196
:10060000726C696E4669726D776172652F4D6172A9
:100610006C696E2050524F544F434F4C5F564552B9
:1006200053494F4E3A312E30204D414348494E45B3
:100630005F545950453A4D617274696E2058592083
:1006400045585452554445525F434F554E543A31E4
:1006500020555549443A64353333326262372D614F
:100660003036392D343737662D383834392D373711
:10067000623133623630653762350A002F2F200031
:100680004D31343520533C696E6465783E206F757A
:1006900074206F662072616E67652028302D3129C5
:1006A0000A00205400205200416363656C6572614A
:1006B00074696F6E3A2050005741524E494E47219F
:1006C000204C6F77205A204A65726B206D6179202B
:1006D0006C65616420746F20756E77616E746564FB
:1006E000207061757365732E0A0020466C6F773A2F
:1006F0002000000136372603FFFFFF3B3C3D380E4C
:10070000FFFFFF3F2E303E12FFFFFFFF28FF0C08C8
:100710000907FFFF1A1C18FFFF2A08440AFF43209D
:100720006F7574206F662072616E67650A0053658D
:1007300072766F20003A200020536572766F200099
:1007400043290A0061626C656420286D696E20741B
:10075000656D702000436F6C6420657874727564F9
:1007600065732061726520004E6F206361736520A0
:100770006C696768740A004D65736820706F696EF4
:10078000742063616E6E6F74206265207265736F92
:100790006C7665640A004D34323120696E636F7285
:1007A0007265637420706172616D65746572207525
:1007B000736167650A00454550524F4D204F4B0A03
:1007C000003F5A206F7574206F662072616E6765F6
:1007D00020282D323020746F203230290A003A2030
:1007E0000050726F6265205A204F66667365740010
:1007F0004163746976652045787472756465723AF0
:100800002000496E76616C69642065787472756445
:1008100065720A006F6B00456E6473746F707320AD
:10082000256320256320256320256300205A3A0094
:1008300020593A0020583A00656E6473746F7073E3
:10084000206869743A200048617264636F6465646B
:100850002044656661756C742053657474696E67B5
:1008600073204C6F616465640A00B80B0000B80B1C
:100870000000640000001027000000009643000004
:1008800096430000A0400000C8410000A0420000C4
:10089000A04200007A450000FA433A0A0020286D81
:1008A0006D290020204D383531205A005A2D5072C4
:1008B0006F6265204F6666736574002044002049AE
:1008C0000020204D333031205000504944207365C2
:1008D0007474696E67733A0A002046002042002053
:1008E000480020204D3134352053004D617465722D
:1008F00069616C2068656174757020706172616DEA
:1009000065746572733A0A00205A00204A0020205C
:100910004732392057204900205A0020204D3432D8
:10092000302053004175746F20426564204C657619
:10093000656C696E673A0A00205A00205900202031
:100940004D323036205800486F6D65206F666673F3
:1009500065743A0A00204500205A002059002058AA
:100960000020540020530020204D3230352051000B
:1009700020453C6D61785F655F6A65726B3E002063
:10098000583C6D61785F785F6A65726B3E20593CB8
:100990006D61785F795F6A65726B3E205A3C6D616C
:1009A000785F7A5F6A65726B3E00416476616E6360
:1009B00065643A20513C6D696E5F7365676D656E65
:1009C000745F74696D655F75733E20533C6D696E2D
:1009D0005F66656564726174653E20543C6D696E46
:1009E0005F74726176656C5F66656564726174657B
:1009F0003E0020540020520020204D323034205040
:100A000000416363656C65726174696F6E2028755F
:100A10006E6974732F7332293A20503C7072696E7C
:100A2000745F616363656C3E20523C7265747261F1
:100A300063745F616363656C3E20543C74726176DD
:100A4000656C5F616363656C3E0A00204500205A57
:100A50000020590020204D3230312058004D61785F
:100A6000696D756D20416363656C65726174696F52
:100A70006E2028756E6974732F7332293A0A00202C
:100A80004500205A0020590020204D323033205894
:100A9000004D6178696D756D20666565647261747D
:100AA00065732028756E6974732F73293A0A0020C4
:100AB0004500205A0020590020204D39322058008E
:100AC00053746570732070657220756E69743A0A8C
:100AD0000020204D3230302044300A0020204D329A
:100AE00030302044002044697361626C65640A0000
:100AF00046696C616D656E742073657474696E67A8
:100B0000733A0020204D3134392043203B20556E6C
:100B100069747320696E2043656C736975730A008C
:100B20002020473231202020203B005452494747A3
:100B300045524544006F70656E003A20007A5F6D43
:100B4000696E00795F6D696E00785F6D696E005245
:100B500065706F7274696E6720656E6473746F7010
:100B6000207374617475730A0000060900FE0701A2
:100B7000920321207FFF07FF07FF0000000600000F
:100B80000107070602008080808080008003020247
:100B9000060105A0A00507070600005050F850F810
:100BA00050500507070600002078A07028F02005A7
:100BB0000707060000C0C810204098180507070660
:100BC00000006090A040A89068020303060104C0E2
:100BD00040800307070601002040808080402003FA
:100BE00007070601008040202020408005050506FB
:100BF000000120A870A8200505050600012020F8A6
:100C000020200203030602FFC04080050101060008
:100C100003F8020202060200C0C005050506000135
:100C20000810204080050707060000708888888823
:100C3000887003070706010040C040404040E005BF
:100C40000707060000708808708080F8050707060F
:100C50000000F81020100808F00507070600001033
:100C6000305090F81010050707060000F880F008D3
:100C7000088870050707060000708080F08888707B
:100C8000050707060000F8081020202020050707A8
:100C900006000070888870888870050707060000C5
:100CA00070888878080870020505060200C0C00038
:100CB000C0C00206060602FFC0C000C04080040794
:100CC00007060000102040804020100503030600A6
:100CD00002F800F8040707060100804020102040B9
:100CE000800507070600007088081020002005070F
:100CF0000706000070880868A8A8700507070600A6
:100D000000708888F8888888050707060000F08842
:100D100088F08888F00507070600007088808080CA
:100D20008870050707060000F08888888888F00525
:100D30000707060000F88080F08080F805070706A6
:100D40000000F88080F080808005070706000070B2
:100D50008880B8888870050707060000888888F8AA
:100D60008888880107070602008080808080808054
:100D700005070706000038101010109060050707DF
:100D80000600008890A0C0A0908805070706000014
:100D9000808080808080F805070706000088D8A83A
:100DA000888888880507070600008888C8A898886A
:100DB00088050707060000708888888888700507FE
:100DC00007060000F08888F080808005070706008D
:100DD0000070888888A89068050707060000F088DA
:100DE00088F0A090880507070600007880807008CA
:100DF00008F0050707060000F82020202020200525
:100E00000707060000888888888888700507070615
:100E10000000888888888850200507070600008819
:100E200088888888A8500507070600008888502011
:100E300050888805070706000088888850202020F1
:100E4000050707060000F80810204080F803070790
:100E5000060100E08080808080E005050506000135
:100E60008040201008030707060100E02020202012
:100E700020E0050303060004205088050101060058
:100E800000F8020202060205804005050506000082
:100E900070087888780507070600008080B0C88849
:100EA00088F005050506000070808088700507073A
:100EB000060000080868988888780505050600007F
:100EC0007088F880700507070600003048E0404051
:100ED00040400506060600FF708888780870050700
:100EE000070600008080B0C88888880107070602CE
:100EF00000800080808080800308080601FF2000B9
:100F000020202020A040040707060000808090A039
:100F1000C0A090030707060100C04040404040E0E9
:100F2000050505060000D0A8A8A8A8050505060027
:100F300000B0C88888880505050600007088888884
:100F4000700506060600FFF08888F080800506061A
:100F50000600FF788888780808050505060000B0B7
:100F6000C880808005050506000070807008F004C8
:100F700007070600004040E04040403005050506F8
:100F8000000088888898680505050600008888881C
:100F900050200505050600008888A8A8500505050D
:100FA00006000088502050880506060600FF888845
:100FB00088780870050505060000F8102040F80341
:100FC0000707060100204040804040200107070637
:100FD00002008080808080808003070706010080F7
:100FE0004040204040800502020600026890000058
:100FF0000006000020746F6F206C6F6E67206578AC
:1010000074727573696F6E2070726576656E746543
:10101000640A0020636F6C6420657874727573696C
:101020006F6E2070726576656E7465640A00426149
:10103000627973746570205A00466C6F7700466C55
:101040006F7700466C6F770046616E207370656540
:101050006420320046616E20737065656420320042
:1010600046616E20737065656420320046616E20B3
:10107000737065656420310046616E20737065652C
:101080006420310046616E20737065656420310014
:101090004E6F7A7A6C65004E6F7A7A6C65004E6F8F
:1010A0007A7A6C6500466164652048656967687492
:1010B000004661646520486569676874004661643C
:1010C00065204865696768740053706565640053FE
:1010D00070656564005370656564004D61696E00FC
:1010E0004D343238004D32383020503020533136B4
:1010F0003000424C546F7563682053656C662D5404
:10110000657374004D323830205030205331323006
:1011100000507265686561742041425300507265E9
:101120006865617420504C410052657365742042BB
:101130004C546F75636800436F6F6C646F776E001B
:1011400044697361626C6520737465707065727355
:10115000004D38340053657420686F6D65206F66EC
:1011600066736574730046616465204865696768E5
:10117000740046616465204865696768740046616B
:10118000646520486569676874004F6666004F6E45
:101190002000426564204C6576656C696E67004C82
:1011A0006576656C20626564004732380A473239DB
:1011B000004175746F20686F6D6500473238004DCF
:1011C0006F76652061786973004D61696E004D6FBF
:1011D00076652058004D6F76652059004D6F766515
:1011E000205A004578747275646572004D6F76659B
:1011F00020302E316D6D004D6F766520316D6D00A4
:101200004D6F76652031306D6D004D6F76652061D4
:10121000786973004578747275646572004D6F76F5
:1012200065205A004D6F76652059004D6F76652018
:10123000580053544F505045442E20005072696E50
:101240007465722073746F707065642064756520B6
:10125000746F206572726F72732E204669782074E5
:101260006865206572726F7220616E6420757365A7
:10127000204D39393920746F20726573746172742E
:101280002E202854656D70657261747572652069D1
:10129000732072657365742E205365742069742001
:1012A00061667465722072657374617274696E67C9
:1012B000290A0053544F502063616C6C65642062AE
:1012C000656361757365206F6620424C546F75636A
:1012D00068206572726F72202D207265737461725E
:1012E000742077697468204D3939390A0042696C75
:1012F000696E656172204C6576656C696E67204722
:101300007269643A0A00486F6D696E6720666169A8
:101310006C656400202844525952554E29004732CA
:1013200039204175746F20426564204C6576656C88
:10133000696E67003F20284C2C522C462C422920F5
:101340006F7574206F6620626F756E64732E0A006D
:101350003F2856296572626F7365206C6576656CEF
:1013600020697320696D706C61757369626C6520AA
:1013700028302D34292E0A00426164205A207661DB
:101380006C75650A004E6F2062696C696E656172EA
:1013900020677269640A00556E6B6E6F776E20630A
:1013A0006F6D6D616E643A20220050726F62696EDB
:1013B00067206661696C65640A0050726F62696ECD
:1013C00067206661696C656400205A3A20002059E4
:1013D0003A200042656420583A2000486F6D65202D
:1013E00025732573257320666972737400206669FE
:1013F0007273740A005A0059005800486F6D6520D6
:10140000006563686F3A004572726F723A004F660A
:101410006673657473206170706C696564004572F1
:10142000723A20546F6F206661722100546F6F20F2
:101430006661722066726F6D207265666572656E98
:10144000636520706F696E740A00526573656E641F
:101450003A200020746F6F206C6F6E67206578747F
:10146000727573696F6E2070726576656E746564EF
:101470000A0020636F6C6420657874727573696FFD
:101480006E2070726576656E7465640A00627573AD
:10149000793A2070617573656420666F7220696E99
:1014A0007075740A00627573793A2070617573659E
:1014B0006420666F7220757365720A0062757379B5
:1014C0003A2070726F63657373696E670A004B49E7
:1014D0004C4C45442E20004B494C4C2063617573A5
:1014E0006564206279204B494C4C20627574746F9E
:1014F0006E2F70696E0A004B494C4C45442E2000FB
:101500004B494C4C2063617573656420627920748B
:101510006F6F206D75636820696E616374697665AD
:101520002074696D65202D2063757272656E74205C
:10153000636F6D6D616E643A200000060900FE0065
:101540000000000001090008FE0000050808060070
:101550000040F0C88888987810050808060000C088
:10156000F88888888888F80505050600012030F885
:1015700030200508080600002070F820202020E018
:101580000509090600FF2070A8A8B8888870200502
:1015900009090600FFE080C0B0A828302828050906
:1015A000090600FFF8A88888888888A8F8050A0A2C
:1015B0000600FE205050505088A8A88870030303EE
:1015C00006000340A040202020202020005A00597F
:1015D000002020202000580009200000000000000A
:1015E000000000000000003FFFF0000000000000CD
:1015F0000000000000003800700000000000000043
:10160000000000000030FC3000000000000000007E
:101610000000000020FC100000000000000000009E
:101620000000002078100000000000000000000012
:10163000000020301000000000000000000000004A
:10164000002C00D03FC0000000000000000000009F
:101650002E31D07FE0000000000000000000002FCD
:101660007BD07FE0000000000000000000002F7B26
:10167000D07FE0000000000000000000002E31D00C
:101680003FC0000000000000000000002C00D03F20
:10169000C0000000000000000000002030107FE0CB
:1016A000000000000000000000002078107FE00033
:1016B00000000000000000000020FC107FE000009F
:1016C000000000000000000030FC301F800000001F
:1016D000000000000000003800700F000000000053
:1016E0000000000000003FFFF006000000000000C6
:1016F00000000000000000000000000000000000EA
:10170000000000003FFFF0000000000000000000AB
:101710000000003800700000000000000000000021
:1017200000003186300000000000000000000000D2
:1017300000238710000000000000000000000000EF
:101740002787900000000000000000000000002F2C
:1017500087D00000000000000000000000002F0300
:10176000D03FC0000000000000000000002030104A
:101770007FE0000000000000000000002078107FE3
:10178000E0000000000000000000002078107FE072
:10179000000000000000000000002030103FC000EA
:1017A0000000000000000000002F03D03FC0000038
:1017B00000000000000000002F87D07FE000000044
:1017C000000000000000002787907FE0000000007C
:1017D0000000000000002387107FE00000000000F0
:1017E00000000000003186301F8000000000000073
:1017F000000000003800700F000000000000000032
:101800000000003FFFF006000000000000000000A4
:1018100000000000004D617274696E20585920521A
:10182000656164792E005072696E74696E672E2E40
:101830002E005072696E7420706175736564005378
:10184000746F7720424C546F756368004D323830A6
:1018500020503020533930004465706C6F7920423D
:101860004C546F756368004D32383020503020532F
:10187000313000424C546F7563682053656C662D9F
:1018800054657374004D323830205030205331325B
:101890003000526573657420424C546F7563680064
:1018A0004D3238302050302053313630004D616990
:1018B0006E00436F6E74726F6C005072657061726F
:1018C000650054756E6500496E666F2073637265BE
:1018D000656E004261627973746570205A005654D7
:1018E000726176206D696E005654726176206D6962
:1018F0006E005654726176206D696E00566D696E89
:1019000000566D696E00566D696E00566D617820E7
:101910004500566D6178204500566D617820450080
:10192000566D6178205A00566D6178205A00566DC8
:101930006178205A00566D6178205900566D6178A3
:10194000205900566D6178205900566D61782058F5
:1019500000566D6178205800566D61782058004D12
:101960006F74696F6E00416D6178204500416D6153
:1019700078204500416D6178205A00416D617820E2
:101980005A00416D6178205900416D6178205900FD
:10199000416D6178205800416D6178205800412DDB
:1019A00074726176656C00412D74726176656C00AD
:1019B000412D7265747261637400412D7265747299
:1019C00061637400416363656C00416363656C002F
:1019D0004D6F74696F6E0056652D6A65726B0056A7
:1019E000652D6A65726B0056652D6A65726B0056CF
:1019F0007A2D6A65726B00567A2D6A65726B005695
:101A0000792D6A65726B0056792D6A65726B005686
:101A1000792D6A65726B0056782D6A65726B005677
:101A2000782D6A65726B0056782D6A65726B004D71
:101A30006F74696F6E004573746570732F6D6D0000
:101A40004573746570732F6D6D005A737465707390
:101A50002F6D6D005A73746570732F6D6D0059731F
:101A6000746570732F6D6D005973746570732F6D8D
:101A70006D005873746570732F6D6D0058737465C5
:101A800070732F6D6D004D6F74696F6E0024F4D408
:101A90003050C38E20C2A24017828B7011127A91EF
:101AA0000D816CD90AA861E108C7586607615143E6
:101AB000061E4B5D05C145A7041A411104093D9856
:101AC00003713931034036DB0265339102D430545F
:101AD00002802E1D02632CEE01752AC501B028A0DC
:101AE00001102781018F2564012B244B01E0223452
:101AF00001AC211F018D200D01801FFC00841EED13
:101B000000971DDF00B81CD200E61BC600201BBCDE
:101B100000641AB200B219A8000A19A0006A189944
:101B200000D117910040178B00B516840031167E46
:101B300000B31579003A157300C7146F0058146A82
:101B400000EE1366008813630025135E00C7125B66
:101B5000006C12570015125400C111510070114F42
:101B60000021114B00D61049008D1047004610444B
:101B70000002104200C00F4000800F3E00420F3CA8
:101B800000060F3B00CB0E3800930E37005C0E357D
:101B900000270E3400F30D3200C10D3100900D30DE
:101BA00000600D2E00320D2D00050D2C00D90C2BE0
:101BB00000AE0C2900850C29005C0C2700350C2791
:101BC000000E0C2600E80B2400C40B2400A00B23FD
:101BD000007D0B23005A0B2100390B2100180B202C
:101BE00000F80A1F00D90A1E00BB0A1E009D0A1D2C
:101BF00000800A1D00630A1C00470A1B002C0A1BF8
:101C000000110A1A00F7091A00DD091900C40919A0
:101C100000AB091900920917007B09180063091726
:101C2000004C09160036091600200916000A09158D
:101C300000F5081500E0081400CC081400B80814DA
:101C400000A4081400900813007D0812006B08130C
:101C50000058081200460812003408110023081129
:101C6000001208110001081100F0071000E0071031
:101C700000D0071000C0071000B0070F00A1071028
:101C80000091070E0083070F0074070F0065070E11
:101C90000057070E0049070E003B070D002E070EE8
:101CA0000020070D0013070D0006070D00F9060CB4
:101CB00000ED060D00E0060C00D4060C00C8060C72
:101CC00000BC060C00B0060C00A4060B0099060C24
:101CD000008D060B0082060B0077060B006C060BCE
:101CE0000061060A0057060B004C060A0042060A6D
:101CF0000038060A002E060A0024060A001A060A00
:101D0000001006090007060A00FD050900F4050990
:101D100000EB050900E2050900D9050900D0050915
:101D200000C7050900BE050900B5050800AD050896
:101D300000A50509009C050800940508008C05080D
:101D400000840508007C050800740508006C050780
:101D500000650508005D050700560508004E0507EB
:101D60000047050700400508003805070031050752
:101D7000002A050700230507001C050600160507B5
:101D8000000F0507000805060002050700FB040612
:101D900000F5040700EE040600E8040600E204076C
:101DA00000DB040600D5040600CF040600C90406C3
:101DB00000C3040600BD040600B7040600B1040514
:101DC00000AC040600A6040600A00405009B04065F
:101DD0000095040500900406008A040500850405AA
:101DE00000800406007A04050075040500700405EF
:101DF000006B04050066040500610405005C040531
:101E00000057040500520405004D04050048040570
:101E100000430405003E0404003A040500350405AF
:101E200000300404002C04050027040400230405EA
:101E3000001E0404001A0404001604050011040422
:101E4000000D040400090405000404040000040457
:101E500000FC030400F8030400F4030400F003048E
:101E600000EC030400E8030400E4030400E00304BE
:101E700000DC030400D8030400D4030400D00304EE
:101E800000CC030400C8030300C503030024F404CA
:101E9000D9201BC40C5C0E9804C4095F026507714D
:101EA00001F405F900FB04B30048048700C103698D
:101EB000005803550003034500BE023A0084023176
:101EC0000053022A002902250004022000E4011C1C
:101ED00000C8011900AF0117009801140084011314
:101EE00000710110006101100051010E0043010D4D
:101EF0000036010B002B010B0020010B001501091E
:101F0000000C01090003010800FB000800F30008B1
:101F100000EB000700E4000600DE000600D8000623
:101F200000D2000600CC000500C7000500C2000575
:101F300000BD000400B9000400B5000400B10004B5
:101F400000AD000400A9000400A5000300A20003E6
:101F5000009F0004009B000300980003009500020E
:101F60000093000300900003008D0002008B00032B
:101F70000088000200860002008400030081000245
:101F8000007F0002007D0002007B00020079000259
:101F90000077000100760002007400020072000168
:101FA00000710002006F0002006D0001006C000271
:101FB000006A00010069000200670001006600017C
:101FC0000065000100640002006200010061000180
:101FD00000600001005F0002005D0001005C000184
:101FE000005B0001005A0001005900010058000187
:101FF0000057000100560001005500010054000187
:102000000053000000530001005200010051000184
:1020100000500001004F0001004E0000004E000182
:10202000004D0001004C0001004B0000004B00017E
:10203000004A00010049000100480000004800017A
:102040000047000100460000004600010045000076
:10205000004500010044000100430000004300016E
:102060000042000000420001004100000041000168
:1020700000400001003F0000003F0001003E000062
:10208000003E0001003D0000003D0001003C00005A
:10209000003C0000003C0001003B0000003B000150
:1020A000003A0000003A0001003900000039000148
:1020B0000038000000380000003800010037000040
:1020C0000037000100360000003600000036000135
:1020D000003500000035000000350001003400002C
:1020E0000034000000340001003300000033000021
:1020F0000033000100320000003200000032000115
:10210000003100000031000000310001003000000B
:102110000030000000300001002F0000002F000000
:10212000002F0000002F0001002E0000002E0000F4
:10213000002E0001002D0000002D0000002D0000E9
:10214000002D0001002C0000002C0000002C0000DD
:10215000002C0001002B0000002B0000002B0000D1
:10216000002B0001002A0000002A0000002A0000C5
:10217000002A0001002900000029000000290000B9
:1021800000290000002900010028000000280000AC
:10219000002800000028000000280001002700009F
:1021A0000027000000270000002700000027000192
:1021B0000026000000260000002600000026000087
:1021C0000026000100250000002500000025000079
:1021D000002500000025000000250001002400006B
:1021E000002400000024000000240000002400015E
:1021F0000023000000230000002300000023000053
:102200000023000000230000002300010022000042
:102210000022000000220000002200000022000036
:102220000022000100210000002100000021000028
:102230000021000000210000002100000021000119
:10224000002000000020000000200000002000000E
:1022500000200000002000000020000000200001FD
:10226000001F0000001F0000001F0000001F0000F2
:10227000001F0000001F0000001F0001001E0000E2
:10228000001E0000001E0000001E000000043700B9
:10229000001E290000511B0000581000001009000A
:1022A00000CC0400007802000041010000236465B6
:1022B00066696E652044454641554C545F4B642029
:1022C0000023646566696E652044454641554C545B
:1022D0005F4B69200023646566696E65204445464E
:1022E00041554C545F4B7020005049442041757457
:1022F0006F74756E652066696E6973686564212008
:1023000050757420746865206C617374204B702C58
:10231000204B6920616E64204B6420636F6E737480
:10232000616E74732066726F6D2062656C6F7720CA
:10233000696E746F20436F6E666967757261746948
:102340006F6E2E680A00504944204175746F747591
:102350006E65206661696C6564212074696D656FC6
:1023600075740A00453120544845524D414C205265
:10237000554E4157415900546865726D616C205249
:10238000756E617761790045312048656174696EC9
:1023900067206661696C65640048656174696E6791
:1023A000206661696C656400504944204175746F12
:1023B00074756E65206661696C6564212054656D75
:1023C000706572617475726520746F6F20686967DB
:1023D000680A00204B643A2000204B693A20002014
:1023E0004B703A20000A20436C617373696320507C
:1023F0004944200A002054753A2000204B753A20A9
:1024000000206D61783A2000206D696E3A2000202E
:10241000643A200020626961733A200050494420E8
:102420004175746F74756E65206661696C656421B1
:1024300020426164206578747275646572206E75DF
:102440006D6265720A00504944204175746F74755D
:102450006E652073746172740A00457874727564D5
:102460006572004D6F7665205A004D6F7665205974
:10247000004D6F766520580050726570617265007E
:10248000496E697469616C697A6520454550524F9F
:102490004D00436F6E74726F6C00526573746F728F
:1024A00065206661696C73616665004C6F616420CC
:1024B00073657474696E677300496E697469616CE1
:1024C000697A6520454550524F4D0053746F7265CF
:1024D0002073657474696E677300424C546F756342
:1024E000680046696C616D656E74004D6F74696F4C
:1024F0006E0054656D7065726174757265004D6132
:10250000696E0050726568656174204142532063B2
:102510006F6E66005072656865617420504C412092
:10252000636F6E66005049442D44005049442D4469
:10253000005049442D49005049442D490050494418
:102540002D50005049442D500020082046616374EE
:102550000020082046616374002008204D61780047
:102560002008204D6178002008204D617800200867
:10257000204D696E002008204D696E002008204D16
:10258000696E004F6666004F6E20004175746F746F
:10259000656D700046616E20737065656420320061
:1025A00046616E20737065656420320046616E205E
:1025B000737065656420320046616E2073706565D6
:1025C0006420310046616E207370656564203100BF
:1025D00046616E2073706565642031004E6F7A7AB3
:1025E0006C65004E6F7A7A6C65004E6F7A7A6C6516
:1025F00000436F6E74726F6C0053746F726520735A
:10260000657474696E6773004E6F7A7A6C65004EFC
:102610006F7A7A6C65004E6F7A7A6C650046616EEF
:102620002073706565640046616E20737065656433
:102630000046616E2073706565640054656D706559
:1026400072617475726500454550524F4D2064614A
:10265000746173697A65206572726F722E0A00293F
:102660000A002062797465733B2063726320005313
:10267000657474696E67732053746F726564202883
:1026800000290A002062797465733B20637263201D
:10269000002073746F7265642073657474696E676B
:1026A000732072657472696576656420280020283D
:1026B00063616C63756C6174656429210A00202173
:1026C0003D2000454550524F4D20435243206D69F7
:1026D000736D61746368202D202873746F72656454
:1026E0002920002053697A653A2000496E64657894
:1026F0003A2000204D61726C696E3D563535290ACD
:102700000028454550524F4D3D00454550524F4DD4
:102710002076657273696F6E206D69736D61746385
:1027200068200053746570732F6D6D004A65726B7D
:1027300000416363656C65726174696F6E00566514
:102740006C6F636974790050726F6265205A204F14
:1027500066667365740050726F6265205A204F661A
:102760006673657400436F6E74726F6C0046696CBB
:102770002E204469612E0046696C2E204469612E2A
:10278000004F6666004F6E20004520696E206D6D1B
:102790003300436F6E74726F6C00506C65617365CB
:1027A000207265736574005052494E54455220485A
:1027B000414C544544005072696E746572206861E2
:1027C0006C7465642E206B696C6C28292063616CC5
:1027D0006C6564210A001FFFFFFFFFFFFF60000020
:1027E000000001FF400000000000FF80000000002A
:1027F000007F83CF00000C303F87FF80000C301F2C
:10280000867980000C000F8C30C7838C30E78C30C9
:10281000CFC7CC31F38C30DCECEC33B98C30D86CD6
:102820006C33198C30D06C0C33198C30D86C0C3361
:10283000198C30DC6C0E3B198C30CF7C079F198CC7
:1028400030C77C038F1940000000000002600000C8
:10285000000000061FFFFFFFFFFFF82020506C6103
:102860006E6E657242756666657242797465733A1A
:1028700020002046726565204D656D6F72793A20A3
:1028800000436F6D70696C65643A2041707220324C
:102890003020323031390A00207C20417574686F55
:1028A000723A20284D617274696E204E6F766F7493
:1028B0006E792C2064656661756C7420636F6E663A
:1028C0006967290A00323031382D30382D30310017
:1028D000204C61737420557064617465643A200003
:1028E000312E312E390A004D61726C696E00205311
:1028F0006F6674776172652052657365740A002093
:102900005761746368646F672052657365740A0069
:102910002042726F776E206F7574205265736574F4
:102920000A002045787465726E616C20526573658B
:10293000740A00506F77657255700A007374617283
:10294000740A000000000000000000000000000009
:10295000004842000048420000804000000000574C
:1029600061726E696E673A20486F6D696E672042CA
:10297000756D702044697669736F72203C20310A4E
:10298000000202040000A0400000A040000000403F
:10299000000048430000484300004843FFFFFF4554
:1029A00072726F722077726974696E6720746F201B
:1029B000454550524F4D210A001000C90210012C0C
:1029C000014001220170011801B0010E01F0010463
:1029D000015002FA00B002F0003003E600D003DC40
:1029E000009004D2007005C800A006BE000008B424
:1029F00000B009AA00D00BA000600E960060118CF8
:102A0000000015820020197800C01D6E00A022640D
:102A100000B0275A00902C500000314600E0343CB2
:102A20000010383200903A2800603C1E00A03D148F
:102A300000803E0A00203F00006265640A002C20EE
:102A400073797374656D2073746F70706564212081
:102A50004865617465725F49443A200045312054ED
:102A60004845524D414C2052554E41574159005412
:102A70006865726D616C2052756E61776179004591
:102A8000312048656174696E67206661696C6564B0
:102A90000048656174696E67206661696C656400F1
:102AA0004531204572723A204D415854454D5000F1
:102AB0004D415854454D5020747269676765726581
:102AC00064004531204572723A204D494E54454DBF
:102AD00050004D494E54454D5020747269676765EA
:102AE00072656400202F0020403A00656E717565A4
:102AF0007565696E672022004B494C4C45442E2079
:102B00000053544F505045442E20005072696E744B
:102B100065722073746F70706564206475652074CD
:102B20006F206572726F72732E2046697820746808
:102B300065206572726F7220616E64207573652006
:102B40004D39393920746F20726573746172742E37
:102B5000202854656D7065726174757265206973A3
:102B60002072657365742E2053657420697420612A
:102B7000667465722072657374617274696E672918
:102B80000A004E6F20436865636B73756D2077692B
:102B90007468206C696E65206E756D6265722C209C
:102BA0004C617374204C696E653A200063686563FC
:102BB0006B73756D206D69736D617463682C204C47
:102BC000617374204C696E653A20004C696E652013
:102BD0004E756D626572206973206E6F74204C6152
:102BE0007374204C696E65204E756D6265722B3171
:102BF0002C204C617374204C696E653A20004D3175
:102C000031300020496E76616C6964206578747299
:102C100075646572200000000000000000000000E4
:102C20000000000048430000484300004843000003
:102C30002100240027002A002D003000330001016C
:102C40000000040107010A010000220025002800FD
:102C50002B002E00310034000201000005010801A4
:102C60000B01000020002300260029002C002F006B
:102C700032000001000003010601090105050505F8
:102C8000070508080808020202020A0A08080404E4
:102C90000404010101010101010103030303030312
:102CA0000303040707070C0C0C0C0C0C0C0C0202A1
:102CB000020206060606060606060B0B0B0B0B0B9E
:102CC0000B0B01021020200808102040102040802B
:102CD00002010201080402010102040810204080E0
:102CE000804020100804020180040201804020106E
:102CF00008040201080402010102040810204080B7
:102D0000010204081020408000000A0B02090C0D8B
:102D10000E0807030401000000000000000000008E
:102D200000000000000000000000000000000000A3
:102D30000000000012111000000000000000000060
:102D400000000000000000000000000000005072C1
:102D50006F7465637465642050696E0A0020573A89
:102D6000004520436F6F6C696E672E2E2E00452044
:102D700048656174696E672E2E2E00205A3A002035
:102D8000423A0020436F756E7420413A0020453A64
:102D900000205A3A0020593A00583A003A0043615C
:102DA000703A00205A00205900580020204D6178C8
:102DB0003A2000205A00205900580020204D696E0A
:102DC0003A20004F6E20004F666600536F667420F5
:102DD000656E6473746F70733A200020643A00204B
:102DE000693A0020703A00496E76616C696420652A
:102DF000787472756465720A004F66660A004661EF
:102E00006465204865696768742000426564204CE9
:102E10006576656C696E6720004661696C65642043
:102E2000746F20656E61626C6520426564204C653C
:102E300076656C696E670A009CD611241FBECFEFC1
:102E4000D1E2DEBFCDBF00E00CBF13E0A0E0B2E0F6
:102E5000E4EBFAEC01E00BBF02C007900D92A8353D
:102E6000B107D9F720E1A8E5B3E001C01D92AD306C
:102E7000B207E1F717E1CDE1D7E100E006C0219705
:102E80000109802FFE010E94E1E1CC31D10780E0F1
:102E90000807A9F70E9441C00C9458E50C94000063
:102EA000CF92DF92EF92FF928091DE03882371F13F
:102EB000C090DA03D090DB03E090DC03F090DD03F8
:102EC00020E030E0A901C701B6010E9443DD88235C
:102ED000E9F020E030E040E05FE3C701B6010E9486
:102EE000A9DD9B01AC010E94A9DD2BED3FE049E487
:102EF00050E40E94A9DD9B01AC0160E070E080E835
:102F00009FE30E94E4E26B017C0106C0C12CD12C3E
:102F100080E8E82E8FE3F82EC0923304D092340478
:102F2000E0923504F09236046091090270910A0231
:102F3000072E000C880B990B0E944ADD2AE037ED22
:102F400043E25CE30E94A9DDA70196010E94A9DD8E
:102F50006093050270930602809307029093080223
:102F6000FF90EF90DF90CF9008951F93CF93DF9362
:102F7000182F6115710519F4EAE3FBE00AC0FB01A3
:102F80008491EF0121968823B9F30E9493A9FE0151
:102F9000F7CF8491EF012196882321F00E9493A915
:102FA000FE01F7CF111103C0E5E3FBE002C0EBE245
:102FB000FBE08491EF012196882321F00E9493A9E0
:102FC000FE01F7CF8AE0DF91CF911F910C9493A976
:102FD0004F925F926F927F928F929F92AF92BF9229
:102FE000CF92DF92EF92FF920F931F93CF93DF93D5
:102FF000CDB7DEB768970FB6F894DEBF0FBECDBF72
:103000008C015B015A834983DC01D7966D917D91D8
:103010008D919C91DA970E9448DD6B017C01F5014E
:1030200020813181428153810E94A9DD0E94C8E242
:103030000E945DE369877A878B879C87A981BA8123
:103040002D913D914D915C91C701B6010E94A9DD82
:103050000E94C8E20E945DE36D877E878F87988B10
:1030600029853A854B855C85283731054105510511
:1030700040F488E790E0A0E0B0E089879A87AB87CA
:10308000BC872D853E854F855889283731054105F8
:10309000510540F488E790E0A0E0B0E08D879E877E
:1030A000AF87B88BF801ED5BFF4F20813181428102
:1030B000538129833A834B835C83CA01B9010E94FF
:1030C0004ADD2B013C0169857A858B859C850E94B0
:1030D00048DD698B7A8B8B8B9C8B20E030E0A901DB
:1030E000C301B2010E9443DD882329F1A7019601A3
:1030F000C701B6010E94A9DD4B015C0129893A890B
:103100004B895C89CA01B9010E94A9DD9B01AC0110
:10311000C501B4010E94E9E14B015C01A3019201E8
:10312000C301B2010E94EAE19B01AC01C501B401F7
:103130000E94E4E203C060E070E0CB010E94C8E2BC
:103140000E945DE36D837E838F83988769817A8196
:103150008B819C8190958095709561957F4F8F4F65
:103160009F4F0E944ADD4B015C016D857E858F85F6
:1031700098890E9448DD69837A838B839C8320E051
:1031800030E0A901C501B4010E9443DD882349F163
:1031900029813A814B815C81CA01B9010E94A9DD74
:1031A0006D8B7E8B8F8B988FA7019601C701B6011F
:1031B0000E94A9DD9B01AC016D897E898F89988D64
:1031C0000E94E9E16B017C01A5019401C501B401F4
:1031D0000E94EAE19B01AC01C701B6010E94E4E252
:1031E00003C060E070E0CB010E948CE3D8019596AB
:1031F0008D909D90AD90BC909897750164012D8144
:103200003E814F815885C21AD30AE40AF50A0E940A
:103210005DE3C61AD70AE80AF90AF7FE75C020E08E
:1032200030E0A901C301B2010E9443DD882309F403
:1032300043C0C501B4010E9448DD6B017C01A301BC
:103240009201C301B2010E94EAE19B01AC01C701F6
:10325000B6010E94A9DD6B017C0129893A894B895D
:103260005C89CA01B9010E94A9DD9B01AC01C701BB
:10327000B6010E94E9E16B017C0129813A814B8111
:103280005C81CA01B9010E94A9DD9B01AC01C701A3
:10329000B6010E94EAE16B017C0120E030E040E8E9
:1032A00050E4C301B2010E94A9DD9B01AC01C7013A
:1032B000B6010E94E4E203C060E070E0CB010E942E
:1032C000C8E27B018D83998320E030E0A9010E9450
:1032D0004AE4181624F0E12CF12C1D821982B70162
:1032E0008D8199810E945DE36D837E838F839887B2
:1032F00086169706A806B90620F48D829E82AF82B4
:10330000B886C12CD12C76018D819E81AF81B88584
:10331000F80182A793A7A4A7B5A7C80ED91EEA1ED5
:10332000FB1EC6A6D7A6E0AAF1AA29853A854B8539
:103330005C8523AF34AF45AF56AFFF962D853E85F4
:103340004F855889208331834283538368960FB613
:10335000F894DEBF0FBECDBFDF91CF911F910F91CB
:10336000FF90EF90DF90CF90BF90AF909F908F90A5
:103370007F906F905F904F90089580916F00982F8D
:10338000927081FF05C080916F008D7F80936F00E8
:1033900010921E0610921F0610922006109221060F
:1033A000992329F080916F00826080936F000895C7
:1033B0008F929F92AF92BF92CF92DF92EF92FF9245
:1033C000CF93DF93EC018090770890907808A090DD
:1033D0007908B0907A0820E030E0A901C501B40175
:1033E0000E9443DD882309F44AC0C880D980EA805E
:1033F000FB80A7019601C501B4010E9443DD1816A8
:103400000CF042C020911506309116064091170627
:1034100050911806C701B6010E9443DD882331F19F
:10342000C0921506D0921606E0921706F092180682
:103430002091110630911206409113065091140606
:10344000688179818A819B810E94A9DD9B01AC0101
:1034500060E070E080E89FE30E94E9E160930F0282
:1034600070931002809311029093120260910F02E8
:1034700070911002809111029091120208C060E0D8
:1034800070E080E89FE303C060E070E0CB01DF9173
:10349000CF91FF90EF90DF90CF90BF90AF909F9033
:1034A0008F9008958091D103811105C080914706C6
:1034B000811101C0089580911906659B02C0816049
:1034C00001C08E7F809319069091030180911906A7
:1034D00091FF02C0826001C08D7F809319068091A8
:1034E00019064B9B02C0846001C08B7F8093190634
:1034F0008091CC0880FF10C08091CB0884FF0CC065
:103500008091190680FF08C0809100068160809339
:10351000000680E00E9465778091CC0881FF10C092
:103520008091CB0885FF0CC08091190681FF08C0EF
:103530008091000682608093000681E00E9465779A
:103540008091CC0882FF14C08091CB0882FF10C00C
:1035500080914706882361F08091190682FF08C098
:103560008091000684608093000682E00C94657769
:103570000895CF93DF93EFE4FBE08491882349F033
:10358000C0E5DBE00E9493A9FE01849121968111A0
:10359000F9CF8CB169E47BE085FB882780F90E9434
:1035A000B5178091030163E47BE0869581700E94EA
:1035B000B51789B16DE37BE083FB882780F9DF9144
:1035C000CF910C94B5178F929F92AF92BF92CF92EA
:1035D000DF92EF92FF920F931F93CF93C82F882310
:1035E00019F0E0E2FBE00CC0E1E0F4E184918F012E
:1035F0000F5F1F4F8823A9F30E9493A9F801F6CF0C
:1036000084918F010F5F1F4F882321F00E9493A99F
:10361000F801F6CFEDE9F8E084918F010F5F1F4FBD
:10362000882321F00E9493A9F801F6CF8AE00E9436
:1036300093A9CC2319F0E3E0FBE00CC0E1E0F4E156
:1036400084918F010F5F1F4F8823A9F30E9493A9D4
:10365000F801F6CF84918F010F5F1F4F882321F06F
:103660000E9493A9F801F6CF8AE00E9493A9C111A4
:103670002CC0E1E0F4E184918F010F5F1F4F88239C
:1036800021F00E9493A9F801F6CFE0EFFAE08491CF
:103690008F010F5F1F4F882321F00E9493A9F8012B
:1036A000F6CF8091DE03882321F08AE00E9493A95F
:1036B0003AC0E5EEFAE084918F010F5F1F4F882337
:1036C00091F10E9493A9F801F6CF4091DA0350914D
:1036D000DB036091DC037091DD038CED9AE00E94C6
:1036E00093BD8AE00E9493A98091DE03811127C0D7
:1036F000CC2319F0E1EDFAE00CC0E1E0F4E18491B3
:103700008F010F5F1F4F8823A9F30E9493A9F8012F
:10371000F6CF84918F010F5F1F4F882381F00E94A5
:1037200093A9F801F6CFE1E0F4E184918F010F5FF6
:103730001F4F882351F20E9493A9F801F6CFC111BF
:1037400024C0E1E0F4E184918F010F5F1F4F8823D3
:1037500021F00E9493A9F801F6CFE0ECFAE0849101
:103760008F010F5F1F4F882321F00E9493A9F8015A
:10377000F6CFE1E0F4E184918F010F5F1F4F8823C2
:1037800021F00E9493A9F801F6CF40913D04509199
:103790003E0460913F047091400488EB9AE00E94DF
:1037A00093BD409141045091420460914304709153
:1037B000440485EB9AE00E9493BD409145045091EA
:1037C0004604609147047091480482EB9AE00E949D
:1037D00093BD4091490450914A0460914B0470910B
:1037E0004C048FEA9AE00E9493BD8AE00E9493A95C
:1037F000C11124C0E1E0F4E184918F010F5F1F4FFC
:10380000882321F00E9493A9F801F6CFE1E9FAE0BC
:1038100084918F010F5F1F4F882321F00E9493A98D
:10382000F801F6CFE1E0F4E184918F010F5F1F4FC3
:10383000882321F00E9493A9F801F6CF4091EF036D
:103840005091F0036091F1037091F20388E89AE0DF
:103850000E9493BD4091F3035091F4036091F503EE
:103860007091F60385E89AE00E9493BD4091F703BA
:103870005091F8036091F9037091FA0382E89AE09D
:103880000E9493BD4091FB035091FC036091FD03A6
:103890007091FE038FE79AE00E9493BD8AE00E9438
:1038A00093A9C11124C0E1E0F4E184918F010F5F7D
:1038B0001F4F882321F00E9493A9F801F6CFEDE570
:1038C000FAE084918F010F5F1F4F882321F00E943F
:1038D00093A9F801F6CFE1E0F4E184918F010F5F45
:1038E0001F4F882321F00E9493A9F801F6CF409141
:1038F000DF035091E0036091E1037091E20384E5FE
:103900009AE00E9476BD4091E3035091E4036091F8
:10391000E5037091E60381E59AE00E9476BD40914F
:10392000E7035091E8036091E9037091EA038EE4A4
:103930009AE00E9476BD4091EB035091EC036091B8
:10394000ED037091EE038BE49AE00E9476BD8AE06D
:103950000E9493A9C11124C0E1E0F4E184918F0198
:103960000F5F1F4F882321F00E9493A9F801F6CF23
:10397000E1E0FAE084918F010F5F1F4F882321F06F
:103980000E9493A9F801F6CFE1E0F4E184918F0160
:103990000F5F1F4F882321F00E9493A9F801F6CFF3
:1039A00040910704509108046091090470910A0441
:1039B00088EF99E00E9493BD4091FF03509100046D
:1039C000609101047091020485EF99E00E9493BD1B
:1039D0004091030450910404609105047091060421
:1039E00082EF99E00E9493BD8AE00E9493A9C111E1
:1039F0003FC0E1E0F4E184918F010F5F1F4F882306
:103A000021F00E9493A9F801F6CFEAEAF9E0849147
:103A10008F010F5F1F4F882321F00E9493A9F801A7
:103A2000F6CFEFE7F9E084918F010F5F1F4F8823F6
:103A300021F00E9493A9F801F6CFE0E7F9E0849124
:103A40008F010F5F1F4F882321F00E9493A9F80177
:103A5000F6CF8AE00E9493A9E1E0F4E184918F011E
:103A60000F5F1F4F882321F00E9493A9F801F6CF22
:103A70004091230450912404609125047091260400
:103A800087E699E00E9476BD40911F045091200482
:103A9000609121047091220484E699E00E9493BD14
:103AA00040911B0450911C0460911D0470911E04F0
:103AB00081E699E00E9493BD40910B0450910C0463
:103AC00060910D0470910E048EE599E00E9493BD03
:103AD00040910F04509110046091110470911204F0
:103AE0008BE599E00E9493BD40911304509114041A
:103AF000609115047091160488E599E00E9493BDC9
:103B000040911704509118046091190470911A049F
:103B100085E599E00E9493BD8AE00E9493A9C111B6
:103B200024C0E1E0F4E184918F010F5F1F4F8823EF
:103B300021F00E9493A9F801F6CFE7E4F9E084911F
:103B40008F010F5F1F4F882321F00E9493A9F80176
:103B5000F6CFE1E0F4E184918F010F5F1F4F8823DE
:103B600021F00E9493A9F801F6CF409127045091CB
:103B700028046091290470912A048EE399E00E9440
:103B800093BD40912B0450912C0460912D047091B1
:103B90002E048BE399E00E9493BD40912F04509135
:103BA0003004609131047091320488E399E00E94FE
:103BB00093BD8AE00E9493A9C11124C0E1E0F4E121
:103BC00084918F010F5F1F4F882321F00E9493A9DA
:103BD000F801F6CFE4E2F9E084918F010F5F1F4F07
:103BE000882321F00E9493A9F801F6CFE1E0F4E1E7
:103BF00084918F010F5F1F4F882321F00E9493A9AA
:103C0000F801F6CF6091740470E08BE199E00E94B6
:103C1000B0BD409177085091780860917908709113
:103C20007A0888E199E00E9493BD8AE00E9493A9F6
:103C30008091760390917703892B09F44EC03FE47D
:103C4000C32E34E0D32E00E010E05601E12CF12C1D
:103C5000C1110DC0E1E0F4E184914F019FEF891A99
:103C6000990A882321F00E9493A9F401F5CFB701A6
:103C70008EE099E00E94B0BDB8018BE099E00E940F
:103C8000B0BDE8E0F9E084914F019FEF891A990AED
:103C9000882321F00E9493A9F401F5CFF5016081FA
:103CA00071818281938145E00E9419AC8AE00E9473
:103CB00093A9FFEFEF1AFF0A8CE0A80EB11C93E066
:103CC000E916F10409F0C4CF0F5F1F4FE4E0CE0EF8
:103CD000D11C0330110509F0B8CFC11114C0E1E0C7
:103CE000F4E184918F010F5F1F4F882321F00E9420
:103CF00093A9F801F6CFEBEEF8E084918F010F5F06
:103D00001F4F81110FC086EDA82E83E0B82E9DE0D5
:103D1000C92E96E0D92E22EDE22E23E0F22E00E00D
:103D200010E029C00E9493A9F801E7CFB80182EE04
:103D300098E00E94B0BDF501619171915F018FED36
:103D400098E00E94B0BDF601619171916F018CED18
:103D500098E00E94B0BDF701619171917F0189EDFA
:103D600098E00E94B0BD8AE00E9493A90F5F1F4FA8
:103D70000230110579F0C111D9CFE1E0F4E184916D
:103D80004F019FEF891A990A882381F20E9493A913
:103D9000F401F5CFC11124C0E1E0F4E184918F0179
:103DA0000F5F1F4F882321F00E9493A9F801F6CFDF
:103DB000EAECF8E084918F010F5F1F4F882321F018
:103DC0000E9493A9F801F6CFE1E0F4E184918F011C
:103DD0000F5F1F4F882321F00E9493A9F801F6CFAF
:103DE0004091290950912A0960912B0970912C0961
:103DF00081EC98E00E9493BD2CEA35EC47E25EE34B
:103E000060913109709132098091330990913409A0
:103E10000E94E4E2AB01BC018EEB98E00E9493BDEE
:103E20002CEA35EC47E25EE360912D0970912E0992
:103E300080912F09909130090E94A9DDAB01BC014E
:103E40008BEB98E00E9493BD8AE00E9493A9C11178
:103E50003CC0E1E0F4E184918F010F5F1F4F8823A4
:103E600021F00E9493A9F801F6CFECEAF8E08491E2
:103E70008F010F5F1F4F882321F00E9493A9F80143
:103E8000F6CFEDE9F8E084918F010F5F1F4F882393
:103E900021F00E9493A9F801F6CFEAE9F8E08491B5
:103EA0008F010F5F1F4F882321F00E9493A9F80113
:103EB000F6CFE1E0F4E184918F010F5F1F4F88237B
:103EC00021F00E9493A9F801F6CF40918506509108
:103ED0008606609187067091880683EA98E00E94C2
:103EE00093BD8AE0CF911F910F91FF90EF90DF90EB
:103EF000CF90BF90AF909F908F900C9493A9CF9349
:103F0000DF932DE334E0CFEED3E0AFEDB3E080E01C
:103F100090E0FC01E657F74F4591559165917491FA
:103F2000F90141935193619371939F01FC01E6580C
:103F3000F74F4591559165917491499359936993C0
:103F40007993FC01E659F74F45915591659174912C
:103F50004D935D936D937D93049680319105C9F6E1
:103F600080E29EE4A0E0B0E08093230490932404D8
:103F7000A0932504B093260480E090E8ABE3B5E479
:103F80008093070490930804A0930904B0930A0453
:103F90008093FF0390930004A0930104B093020464
:103FA0008093030490930404A0930504B093060443
:103FB00010921F04109220041092210410922204E7
:103FC00010921B0410921C0410921D0410921E04E7
:103FD00080E090E0A0E2B1E480930B0490930C04A5
:103FE000A0930D04B0930E0480930F0490931004DB
:103FF000A0931104B09312048AE999E9A9E9BEE3F8
:104000008093130490931404A0931504B0931604A2
:1040100080E090E0A0EAB0E4809317049093180445
:10402000A0931904B0931A048CE0E7E2F4E0DF01F6
:104030001D928A95E9F71092090610920A061092CD
:104040000B0610920C060E940546109285061092EF
:104050008606109287061092880684EB90E0909373
:10406000D7038093D60380EF90E09093D903809399
:10407000D80386E490E090930E0680930D068EE6BA
:1040800090E09093100680930F061092D303109245
:10409000D2031092D5031092D40389E29CE5ABE8D9
:1040A000B1E48093290990932A09A0932B09B09336
:1040B0002C098CE896E8A7EEBDE380933109909334
:1040C0003209A0933309B093340988EA9CEDA7E242
:1040D000B4E480932D0990932E09A0932F09B093F7
:1040E00030091092DE0380E090E0A0EEBFE3809301
:1040F000DA039093DB03A093DC03B093DD0310920B
:10410000D1031092D0030E94AABB0E94D099E1E093
:10411000F4E18491EF012196882321F00E9493A974
:10412000FE01F7CFE7E4F8E08491EF0121968823C0
:1041300021F00E9493A9FE01F7CFDF91CF9108955E
:10414000CF92DF92EF92FF920F931F93CF93DF9363
:104150006C017A018B01C0E0D0E0CE15DF0581F063
:10416000D8016D918D01D601ED91FC910190F08106
:10417000E02DC6011995892B11F02196EECF7E0115
:10418000C701DF91CF911F910F91FF90EF90DF90CA
:10419000CF9008950895FC01A681B7818281481BC4
:1041A0008581483018F0A80FB11D4770382F36951B
:1041B00036953695562F577080E890E002C0959559
:1041C00087955A95E2F7439F402D11246695669591
:1041D0006695E62FF0E0E40FF11DEA0FFB1F30813A
:1041E000222311F0832B02C08095832380830895BE
:1041F00080E008950B96FC01849108950A96FC01D5
:1042000084910895FC01849108950E9402218823DD
:1042100021F0823011F083E0089586E00895FC01DA
:10422000E60FF11D849190E0982F88273196E49154
:104230008E0F911D089568E00C940F2166E00C9498
:104240000F2181E008950E94FCE4FC0130819281FD
:10425000930F92832181921760F494819F5F9483DE
:104260008381830F821710F08FEF820F838381E0A9
:10427000089580E00895FC0112828081815083833B
:1042800014820895FB014181DC0112962C91129752
:10429000421768F013962C911397241740F0608111
:1042A00015962C91621718F424810C94CB20089554
:1042B000DB01ED91FC9119940F93FC010150040F67
:1042C00084A996A9941718F0081728F402C00817B3
:1042D00050F0041740F42150260F83A995A9961792
:1042E00020F4281720F480E007C0281720F481E08C
:1042F000261710F0F8CF81E00F9108955F926F922A
:104300007F928F929F92AF92BF92CF92DF92EF9265
:10431000FF920F931F93CF93DF93EC01062F142F7F
:10432000C22EEC80FD80C7010E940221D82E8C8114
:104330009D810E940521982E21E0D21203C02FE01A
:10434000A22E02C0AA24AA948C819D810E94FE20E4
:10435000D82E8C819D810E94FA20B82E8C819D815F
:104360000E941B21E0E6EC1538F4009729F0E80ED6
:10437000F91E91E6D92E11C08C819D810E941E21CB
:10438000F0E4FC1538F4009729F0E80EF91E81E4FA
:10439000D82E03C021E1E20EF11CBC1430F4188ABF
:1043A0001B8A1C8A198A1A8A9AC0BD14C0F3892DE7
:1043B00090E0F70124912F3F21F4FFEFEF1AFF0A5D
:1043C00040C0CD1035C08C819D810E940221970193
:1043D0002F5F3F4FF701882311F0823091F48491D1
:1043E0008B8BF90124912C8BF7013396E491E88BA8
:1043F000F7013496E491E98BF7013596E491EA8B65
:1044000025C08491982F9F7092509A8B82958F70BF
:10441000898BF9012491822F8F708C8B22952F70BC
:104420002B8BF7013296E491E295EF70E88B0EC08A
:10443000F7013296E491EA219C012E0F311DE20E24
:10444000F31EBD1409F4ABCFD394B3CFE114F10440
:1044500009F445C08C819D810E940521A82EDB882E
:10446000BC88C988C00E8A898B0D181B0B2D2D2D79
:10447000412F6C2DCE010E945C21882371F1EA0C42
:10448000F11C87E08D0DD82ED694D694D6945B2C53
:10449000510E4E01FCE18F0E911C6D2C712C5116AA
:1044A000E1F00C2D57018A2D8E198D1590F4F50130
:1044B00084916A817B810C8F1D8F1F8E8E8F94015A
:1044C0004BE3CE010E945821FFEFAF1ABF0A085FED
:1044D000EACFE60CF71C1F5FE2CF888901C080E0BD
:1044E000DF91CF911F910F91FF90EF90DF90CF90D0
:1044F000BF90AF909F908F907F906F905F90089546
:104500008F929F92AF92BF92CF92DF92EF92FF92E3
:10451000CF93FC01C080D180E280F38020E030E0C6
:10452000A901C701B6010E9443DD87FF08C0C7018A
:10453000B601905820E030E04AE754E406C020E09D
:1045400030E04AE754E4C701B6010E94A9DD20E04B
:1045500030E040EA50E40E94EAE120E030E040E24E
:1045600051E40E94E4E20E9456E36B017C01603A50
:10457000F6E87F07F1E08F07910584F020EA36E83E
:1045800041E050E00E946CE1CA01B9012AE030E04C
:1045900040E050E00E946CE1605D01C060E2609329
:1045A000FF0980E1C81687E2D806E104F10494F01F
:1045B000C701B60120E137E240E050E00E946CE123
:1045C000CA01B9012AE030E040E050E00E946CE10D
:1045D000605D01C060E26093000AE8EECE16E3E0A1
:1045E000DE06E104F10494F0C701B60128EE33E0E1
:1045F00040E050E00E946CE1CA01B9012AE030E0DD
:1046000040E050E00E946CE1605D01C060E26093B8
:10461000010AC701B60124E630E040E050E00E9404
:104620006CE18AE0882E912CA12CB12CCA01B90131
:10463000A50194010E946CE1605D6093020A8EE224
:104640008093030AC701B601A50194010E946CE1A1
:10465000C62FCA01B901A50194010E946CE1605DF9
:104660006093040AC05DC093050A8FEF99E0CF9173
:10467000FF90EF90DF90CF90BF90AF909F908F9082
:1046800008958F929F92AF92BF92CF92DF92EF9256
:10469000FF92CF93FC01C080D180E280F38020E0C4
:1046A00030E04AE754E4C701B6010E94A9DD4B019E
:1046B0005C0120E030E0A901C701B6010E9443DDA2
:1046C00087FD05C060E070E080EA90E404C060E02F
:1046D00070E080EA90ECA50194010E94EAE120E0FC
:1046E00030E040E251E40E94E4E20E9456E36B01B4
:1046F0007C0197FF0AC0F094E094D094C094C11C50
:10470000D11CE11CF11C8DE201C08BE28093FF09FA
:10471000C701B60120E137E240E050E00E946CE1C1
:104720008AE0882E912CA12CB12CCA01B901A501D7
:1047300094010E946CE1605D6093000AC701B601BC
:1047400028EE33E040E050E00E946CE1CA01B9017C
:10475000A50194010E946CE1605D6093010AC701AC
:10476000B60124E630E040E050E00E946CE1CA016E
:10477000B901A50194010E946CE1605D6093020A99
:104780008EE28093030AC701B601A50194010E943D
:104790006CE1C62FCA01B901A50194010E946CE128
:1047A000605D6093040AC05DC093050A8FEF99E0D5
:1047B000CF91FF90EF90DF90CF90BF90AF909F9000
:1047C0008F9008958F929F92AF92BF92CF92DF9277
:1047D000EF92FF92FC01C080D180E280F38020E064
:1047E00030E0A901C701B6010E9443DD87FF08C080
:1047F000C701B601905820E030E040E251E406C025
:1048000020E030E040E251E4C701B6010E94A9DD9A
:1048100020E030E040EA50E40E94EAE120E030E0AD
:1048200040E251E40E94E4E20E9456E36B017C0105
:104830006031F7E27F078105910584F020E137E2DE
:1048400040E050E00E946CE1CA01B9012AE030E08A
:1048500040E050E00E946CE1605D01C060E2609366
:10486000010A88EEC81683E0D806E104F10494F04A
:10487000C701B60128EE33E040E050E00E946CE151
:10488000CA01B9012AE030E040E050E00E946CE14A
:10489000605D01C060E26093020AE4E6CE16D104D6
:1048A000E104F10494F0C701B60124E630E040E0F1
:1048B00050E00E946CE1CA01B9012AE030E040E01A
:1048C00050E00E946CE1605D01C060E26093030A09
:1048D000FAE0CF16D104E104F1049CF08AE0882EBE
:1048E000912CA12CB12CC701B601A50194010E9405
:1048F0006CE1CA01B901A50194010E946CE1605DFF
:1049000001C060E26093040AC701B6012AE030E00A
:1049100040E050E00E946CE1605D6093050A81E038
:104920009AE0FF90EF90DF90CF90BF90AF909F9074
:104930008F9008958F929F92AF92BF92CF92DF9205
:10494000EF92FF92FC01C080D180E280F38020E0F2
:1049500030E048EC52E4C701B6010E94A9DD4B01EA
:104960005C0120E030E0A901C701B6010E9443DDEF
:1049700087FD05C060E070E080EA90E404C060E07C
:1049800070E080EA90ECA50194010E94EAE120E049
:1049900030E040E251E40E94E4E20E9456E39B01D1
:1049A00077FF06C022273327261B370B8DE201C075
:1049B0008BE28093000AC90168EE73E00E94CDE1AA
:1049C000CB01EAE0F0E0BF010E94CDE1805D809381
:1049D000010AC90164E670E00E94CDE1CB01BF018C
:1049E0000E94CDE1805D8093020AC901BF010E944F
:1049F000CDE1282FCB01BF010E94CDE1805D8093E6
:104A0000030A8EE28093040A205D2093050A80E069
:104A10009AE0FF90EF90DF90CF90BF90AF909F9083
:104A20008F9008958F929F92AF92BF92CF92DF9214
:104A3000EF92FF92CF93FC01C080D180E280F3809F
:104A400020E030E04AE754E4C701B6010E94A9DD46
:104A50004B015C0120E030E0A901C701B6010E94D2
:104A600043DD87FD05C060E070E080EA90E404C0AB
:104A700060E070E080EA90ECA50194010E94EAE118
:104A800020E030E040E251E40E94E4E20E9456E37C
:104A90006B017C0197FD10C020E137E240E050E05F
:104AA0000E946CE1CA01B9012AE030E040E050E028
:104AB0000E946CE1605D09C0F094E094D094C094D1
:104AC000C11CD11CE11CF11C6DE26093000AC701FE
:104AD000B60128EE33E040E050E00E946CE18AE04D
:104AE000882E912CA12CB12CCA01B901A5019401E9
:104AF0000E946CE1605D6093010AC701B60124E683
:104B000030E040E050E00E946CE1CA01B901A5012B
:104B100094010E946CE1605D6093020A8EE28093D2
:104B2000030AC701B601A50194010E946CE1C62FDA
:104B3000CA01B901A50194010E946CE1605D609316
:104B4000040AC05DC093050A80E09AE0CF91FF900F
:104B5000EF90DF90CF90BF90AF909F908F9008958F
:104B60009C0197FF0AC0EE27FF27E81BF90BE436EC
:104B7000F1050CF44CC08DE230C0283E83E03807CC
:104B80003CF1C90168EE73E00E94CDE1CB01EAE09F
:104B9000F0E0BF010E94CDE1805D8093020AC9016F
:104BA00064E670E00E94CDE1CB01BF010E94CDE13F
:104BB000805D8093030AC901BF010E94CDE1CB0152
:104BC000BF010E94CDE1805D8093040AF9013EC0DF
:104BD000F90124363105DCF080E28093020ACF012E
:104BE00064E670E00E94CDE1CB012AE030E0B9013B
:104BF0000E94CDE1805D8093030ACF01B9010E943C
:104C0000CDE1CB01B9010E94CDE1805D1DC080E204
:104C10008093020A8093030AEA30F10584F037FF9B
:104C200002C08DE201C080E28093030ACF016AE0F6
:104C300070E00E94CDE1605D6093040A07C037FF19
:104C400002C08DE201C080E28093040ACF016AE0D5
:104C500070E00E94CDE1805D8093050A82E09AE0D9
:104C600008959C0197FD0EC08436910584F064E69A
:104C700070E00E94CDE1CB016AE070E00E94CDE1DE
:104C8000805D06C03195219531098DE201C080E239
:104C90008093030A2A30310564F0EAE0F0E0C901AC
:104CA000BF010E94CDE1CB01BF010E94CDE1805D3B
:104CB00001C080E28093040AC9016AE070E00E94AA
:104CC000CDE1805D8093050A83E09AE00895CF925C
:104CD000DF92EF92FF926B017C0183E3C816D1044F
:104CE000E104F10470F082E3C81AD108E108F10888
:104CF00062E370E080E090E00E940FB10E94A1A307
:104D0000ECCFC701B6010E940FB1FF90EF90DF908A
:104D1000CF900C94A1A30F931F93CF93DF9300D058
:104D200000D0CDB7DEB783E992E09C838B8304E6A5
:104D300010E01A830983BE016D5F7F4FCE0101969B
:104D40000E94C14E8AEB92E09E838D831A83098371
:104D5000BE016B5F7F4FCE0101960E94C14E269629
:104D60000FB6F894DEBF0FBECDBFDF91CF911F917C
:104D70000F910895CF93DF93FC0101900020E9F794
:104D80003197EF01C81BD90BC731D1052CF0229107
:104D9000207C2038E1F3F5CFDD27AE01BC0181EAAC
:104DA00096E00E943EE5CF55D94F188283E080936C
:104DB0002C02DF91CF9108950F931F93CF93DF9330
:104DC000982F862F8A01D22F692F0E9452659091C9
:104DD000F2068091E509891748F19091F4068091D7
:104DE000E409981718F1C4E1F8018491882331F09F
:104DF0000E945569C81B0F5F1F4FF6CFCC2329F0C7
:104E000080E20E94774DC150F9CF8091E5099AE781
:104E10009093F5068093F6068D2F0E948EBA80E25D
:104E2000DF91CF911F910F910C94774DDF91CF912E
:104E30001F910F91089589E69BE00E94A84D81E0A3
:104E400080932A0608950F931F930E94EBBF009151
:104E500038061091390620913A0630913B06DC0164
:104E6000CB01801B910BA20BB30BB7FD0CC086B11D
:104E700086FB992790F981E08927349B8260329BD9
:104E80008460809337068091370681709091370651
:104E900091FD826090913606891731F18130A9F039
:104EA00028F0823041F0833059F01CC0913089F0F5
:104EB000923099F017C0992361F0933071F012C0CD
:104EC000913059F0923071F404C0992331F093304D
:104ED00049F4909129069F5F03C090912906915053
:104EE00090932906809336061F910F9108950F9392
:104EF0001F93CF93DF938C0167FF03C010929A0634
:104F000060E080919A0690E0262F062E000C330B6D
:104F1000281739070CF160939A06C8010E9491DCAA
:104F2000800F911FEC01C01BD10BC731D1053CF0A4
:104F30000197FC012491207C2038D1F3F3CFDD27A9
:104F4000AE01B80181EA96E00E94B2DCCF55D94F9C
:104F5000188283E080932C02DF91CF911F910F91F3
:104F600008954F925F926F927F928F929F92AF922D
:104F7000BF92CF92DF92EF92FF920F931F93CF9346
:104F8000DF93CDB7DEB764970FB6F894DEBF0FBEE0
:104F9000CDBF109113021F3F09F47BC00E94EBBFED
:104FA000C0901A06D0901B06E0901C06F0901D06DB
:104FB000DC01CB018C199D09AE09BF09B7FD69C0A1
:104FC0008091FB069091FC068F5F8F70891709F422
:104FD00060C0133009F452C2E090770624E0120258
:104FE000F0011124E959FD4F20E030E040E752E4A0
:104FF00060817181828193810E94E4E26D877E8766
:105000008F87988B198A1A8A1B8A1C8A8091890635
:1050100090918A06A0918B06B0918C0689839A8321
:10502000AB83BC8380918D0690918E06A0918F06F4
:10503000B09190068D839E83AF83B887809191064F
:1050400090919206A0919306B091940689879A87D1
:10505000AB87BC87AE01475F5F4FBE016B5F7F4F81
:10506000CE0101960E94B339AE014F5E5F4F6A01D7
:105070008E01035F1F4F25E936E048505109BE01FC
:105080006B5F7F4FCE0101960E94872A8FEF80933E
:1050900013020E9423278091370682FF40C080912F
:1050A000350681113EC081E08093350690919A03C8
:1050B00089278093280610929A0383E080932C021C
:1050C000109237060E94EBBFDC01CB018C509E4F43
:1050D000AF4FBF4F8093380690933906A0933A069E
:1050E000B0933B0688E893E19E878D8782E090E04D
:1050F0009A838983BE01635F7F4FCE0101960E9430
:10510000C14E16E0115069F081E997E00E94F5A6C2
:1051100062E070E080E090E00E940FB1F3CF109267
:1051200035060E94EBBF6B017C01809131069091A6
:105130003206A0913306B0913406A7019601281BD0
:10514000390B4A0B5B0B57FF05C08091270688235C
:1051500009F4C6C1D701C6018C599F4FAF4FBF4F4D
:105160008093310690933206A0933306B0933406B1
:1051700080912906082E000C990B97FF03C091958A
:105180008195910984302CF480912806811194C076
:10519000A4C08091FE09882309F467C08091290684
:1051A0008090230690902406A0902506B0902606B5
:1051B00081149104A104B10409F44AC0082E000C22
:1051C000990B97FF03C0919581959109682F87FFEF
:1051D00002C063E0680F65956595062E000C770B9D
:1051E000880B990B0E944ADD2B013C01C701B601D7
:1051F000681979098A099B090E9448DD9B01AC0165
:10520000C301B2010E94E4E220E030E04AE754E446
:105210000E94A9DD4B015C0120E030E040E253E454
:105220000E944AE487FF0FC020E030E046E952E4E4
:10523000C501B4010E944AE487FD0AC02AE030E0BB
:1052400040E050E009C024E630E040E050E004C017
:1052500021E030E040E050E0C0922306D0922406E6
:10526000E0922506F092260604C021E030E040E0FE
:1052700050E0A09129060A2E000CBB0B0E9496E17B
:1052800024E030E040E050E00E946CE18091FA09B7
:105290009091FB09A091FC09B091FD09820F931F29
:1052A000A41FB51F8093FA099093FB09A093FC09F2
:1052B000B093FD0910922906D701C6018856954C76
:1052C000AF4FBF4F80932D0690932E06A0932F06CD
:1052D000B093300681E080932C0280915B02909124
:1052E0005C02805A954641F480911402882309F4A7
:1052F000C7C081508093140280916F00282F2270C4
:1053000081FF05C080916F008D7F80936F00809139
:105310001E0690911F06A0912006B091210622231F
:1053200029F020916F00226020936F003AE0B6953B
:10533000A795979587953A95D1F7009741E0A407EF
:10534000B10520F08FEF9FEFA0E0B0E09695879534
:1053500020912C02211105C0309127063111BCC0CB
:1053600059C0009741F040912B0650912C064817E8
:10537000590708F04FC080912706811113C02230D1
:1053800050F0243028F0243031F410922C0203C065
:1053900081E080932C020E945C4E81E08093F909A9
:1053A0008093270684E00E9474BA81E08093DE0631
:1053B000E0915B02F0915C0219951092F9098091DD
:1053C0002706882351F00E943D4D91E0811101C0D4
:1053D00090E090932706811163C010922806809078
:1053E0002B0690902C06A12CB12C0E94EBBFDC0167
:1053F000CB018C199D09AE09BF0988169906AA062A
:10540000BB0640F40E94EBBF6C197D0970932C061B
:1054100060932B0680915B0290915C02805A9546C6
:1054200021F080912206882379F088E9C80E8AE36A
:10543000D81EE11CF11CC0922D06D0922E06E092DF
:105440002F06F09230060FC080912D0690912E0607
:10545000A0912F06B0913006C81AD90AEA0AFB0AB1
:10546000F7FE0E94A26280912706811139C08091C7
:105470002C028130A9F510922C0232C0E12CAECD65
:105480008CE08093140280912B0690912C0601975A
:1054900090932C0680932B0681E080932C022CCFD6
:1054A00080902B0690902C06A12CB12C0E94EBBF73
:1054B000DC01CB018C199D09AE09BF09881699063C
:1054C000AA06BB0668F40E94EBBF6C197D097093B5
:1054D0002C0660932B0604C0009709F463CF43CFDA
:1054E00064960FB6F894DEBF0FBECDBFDF91CF91AB
:1054F0001F910F91FF90EF90DF90CF90BF90AF90F2
:105500009F908F907F906F905F904F9008952F9213
:105510003F924F925F926F927F928F929F92AF9243
:10552000BF92CF92DF92EF92FF920F931F93CF9390
:10553000DF93CDB7DEB7C757D1090FB6F894DEBFFA
:105540000FBECDBFE0914509F0914609EF2B11F058
:105550000C9457336796DFAECEAE67972A96EFAEC0
:105560002A9779016A015B01FC0120913D04309189
:105570003E0440913F0450914004608171818281DA
:1055800093810E94A9DD0E9457E4AF966CAF7DAF76
:105590008EAF9FAFAF97209141043091420440916C
:1055A000430450914404D5016D917D918D919C915E
:1055B0000E94A9DD0E9457E4E3966CAF7DAF8EAFE9
:1055C0009FAFE397209145043091460440914704F2
:1055D00050914804F60160817181828193810E941B
:1055E000A9DD0E9457E4E7966CAF7DAF8EAF9FAF09
:1055F000E7972091490430914A0440914B0450911F
:105600004C04D7016D917D918D919C910E94A9DDF3
:105610000E9457E46D966CAF7DAF8EAF9FAF6D97D4
:1056200080917F0483FF0EC06D96CCACDDACEEACF8
:10563000FFAC6D97C0921D07D0921E07E0921F0726
:10564000F0922007D801BC91B9AFF801F181FDAF0C
:10565000D80112962C90129713963C908091FB06DD
:105660009091FC06891B8F708F3019F40E94F856B8
:10567000F5CFC090FB06E896CFAEE8978091FB0689
:10568000E82EF12CF8AAEFA680911107909112074D
:10569000A0911307B0911407AF96CCACDDACEEAC83
:1056A000FFACAF97C81AD90AEA0AFB0A2996CCAE12
:1056B000DDAEEEAEFFAE29978091150790911607EB
:1056C000A0911707B0911807E396CCACDDACEEAC17
:1056D000FFACE397C81AD90AEA0AFB0A6596CCAE72
:1056E000DDAEEEAEFFAE65978091190790911A0777
:1056F000A0911B07B0911C07E7964CAC5DAC6EAC5B
:105700007FACE797481A590A6A0A7B0A80911D07FD
:1057100090911E07A0911F07B09120076D968CAC49
:105720009DACAEACBFAC6D97881A990AAA0ABB0AA9
:1057300009F49FC080914D0481113BC060917B08AA
:1057400070917C0880917D0890917E080E9456E3BC
:1057500020910B0230910C026217730754F56D967D
:10576000CCACDDACEEACFFAC6D97C0921D07D09217
:105770001E07E0921F07F0922007E1E0F4E1849118
:105780008F010F5F1F4F811103C0E3E1F0E104C0FF
:105790000E9493A9F801F3CF84918F010F5F1F4FEF
:1057A000882321F00E9493A9F801F6CF812C912C37
:1057B00054012A96CFAC2A9724E0C29E800111247E
:1057C0000B5F1D4FC501B4010E944ADDD8012D9128
:1057D0003D914D915C910E94A9DD6B017C0120E01F
:1057E00030E0A9010E944AE487FF04C0F7FAF09470
:1057F000F7F8F0946091490470914A0480914B0449
:1058000090914C040E9456E39B01AC01A8ECB0E0DF
:105810000E948BE10E944ADDA70196010E9443DDB0
:1058200087FF2AC06D96CCACDDACEEACFFAC6D97BB
:10583000C0921D07D0921E07E0921F07F09220072A
:10584000E1E0F4E184918F010F5F1F4F811103C0EC
:10585000E4EFFFE004C00E9493A9F801F3CF849124
:105860008F010F5F1F4F882321F00E9493A9F80139
:10587000F6CF812C912C540129968CAD9DADAEAD07
:10588000BFAD29978827B7FD83959927AA27BB27FE
:10589000182F1295107F6596CCACDDACEEACFFAC4A
:1058A0006597F7FC106277FC14602996CCACDDACF0
:1058B000EEACFFAC299765962CAD3DAD4EAD5FAD1E
:1058C0006597C20ED31EE41EF51EC9AADAAAEBAA7A
:1058D000FCAAF7FC11602996CCACDDACEEACFFACB9
:1058E000299765962CAD3DAD4EAD5FAD6597C21A5B
:1058F000D30AE40AF50ACDAADEAAEFAAF8AEF7FCAD
:105900001260B7FC18602A96CFAC2A9734E0C39E89
:10591000C00111249C012B5F3D4F7901C501B401E9
:105920000E944ADDD7012D913D914D915C910E94DD
:10593000A9DD4B015C0120E030E0A9010E944AE4AE
:1059400087FF04C0C501B401905802C0C501B4016D
:1059500020E030E040E05FE30E94EAE10E945DE386
:1059600025966CAF7DAF8EAF9FAF25978FE4CFA408
:10597000D8A88C9DF0018D9DF00D1124E55FF44FAA
:10598000108216AB09A91AA92BA93CA937FF07C099
:1059900030952095109501951F4F2F4F3F4F8FE465
:1059A000EFA4F8A88E9DF0018F9DF00D1124E55F06
:1059B000F44F058B168B278B308F4DA95EA96FA9ED
:1059C00078AD77FF07C070956095509541955F4F12
:1059D0006F4F7F4F8FE4CFA4D8A88C9DF0018D9D91
:1059E000F00D1124E55FF44F418F528F638F748F58
:1059F0007301620177FE07C0CC24DD247601C41850
:105A0000D508E608F708EFE4AFA5B8A9EA9FC001FA
:105A1000EB9F900D1124FC01E55FF44FC58ED68EEF
:105A2000E78EF0A225968CAD9DADAEADBFAD2597AE
:105A300081A392A3A3A3B4A32E960FAF2E976E9625
:105A40001FAF6E97F22FE32F0417150726073707AE
:105A500040F42E964FAF2E976E965FAF6E97F62F4F
:105A6000E72F2E968FAD2E976E969FAD6E97AF2F28
:105A7000BE2F8C159D05AE05BF0510F4D701C601DC
:105A80002596CCACDDACEEACFFAC25978C159D0516
:105A9000AE05BF0510F4D701C601FFE4FF2ECFA469
:105AA000D8A8FC9CF001FD9CF00D1124E55FF44F9B
:105AB00085A396A3A7A3B0A70697A105B10508F4EF
:105AC000EFC5DF01A95BBF4F8091AC039091AD039F
:105AD00011969C938E9312968091AE039091AF0392
