:100000000C9470150C94A1150C94A1150C94A115C9
:100010000C94A1150C94A1150C94A1150C94A11588
:100020000C94A1150C94A1150C94A1150C94A11578
:100030000C94A1150C94A1150C94A1150C94A11568
:100040000C94A1150C9451620C94A1150C94A1155B
:100050000C94A1150C94A1150C94604F0C941A9B50
:100060000C94A1150C9484220C94A1150C94A11548
:100070000C94A1150C94A1150C94A1150C94A11528
:100080000C94246B0C94A1150C94A1150C94A1153F
:100090000C94A1150C94A1150C94A1150C94A11508
:1000A0000C94A1150C94A1150C94F66A0C94A1154E
:1000B0000C94A1150C94A1150C94A1150C94C86A6C
:1000C0000C94A1150C94A1150C94A1150C94A115D8
:1000D0000C94A1150C94A1150C94A1150C94A115C8
:1000E0000C94A1154658495838583C5842588058E5
:1000F0004D58515857585B585F58655869586D5856
:100100008058735877587B582997A195DA95659749
:10011000DA95DA95DA95DA95DA95DA95DA95DA9567
:10012000DA95DA95DA95DA95DA95DA95DA95DA9557
:10013000DA95DA95DA95DA95DA95DA95DA95DA9547
:10014000DA95DA955F97DA95DA95DA95DA95DA95B0
:10015000DA95DA95DA953897DA95DA95DA95DA95C7
:10016000DA95DA95DA95DA95DA95DA957C97D79576
:10017000D299D799DC99E699F099699AFA99029AF5
:100180000A9A149A1E9A289A379A419A699A4B9A0F
:10019000559A5F9A084AD73B3BCE016E84BCBFFD9F
:1001A000C12F3D6C74319ABD56833DDA3D00C77F47
:1001B00011BED9E4BB4C3E916BAAAABE00000080E0
:1001C0003F05A84CCDB2D44EB93836A9020C50B96F
:1001D000918688083CA6AAAA2ABE000000803F009B
:1001E0000C943A750C947E740C94E6990C944958CE
:1001F0000C9406910C94F0490C94668E0C94FA9928
:100200000C94558B0C94559A0C947B580C942F237A
:100210000C943C580C9451580C94AE220C94289A8F
:100220000C9465970C94D7950C9483450C94E048F6
:100230000C94762F0C949E720C94DA950C94805842
:100240000C945B580C9429970C94EA480C940A9AE5
:100250000C945F580C948D740C94699A0C94DD3452
:100260000C94F0990C9477580C942EB30C945F9ADC
:100270000C9453160C9457580C9442580C942676B0
:100280000C9446580C9400310C9406230C94379A25
:100290000C9483740C94F7720C94EC2D0C943932FA
:1002A0000C94B12E0C9438970C94F6480C945F2C57
:1002B0000C946C450C94DB480C94698E0C94F48877
:1002C0000C94578B0C943B300C944B9A0C943858EC
:1002D0000C94D8220C94C1310C94D2990C94F0480F
:1002E0000C9434950C9488740C94A1950C94149AE5
:1002F0000C94CB4D0C947D780C941E9A0C946958F8
:100300000C945F970C9460460C944D580C94747A3E
:100310000C94029A0C947C970C94DC990C946D5874
:100320000C9429760C9465580C94638E0C94E548D3
:100330000C94272D0C94D6480C94618E0C94D7996C
:100340000C94419A0C94CF4D0C949A450C9473588C
:100350000C9461330C94CC4D4E414E494E49545946
:10036000494E46CDCCCC3D0AD7233C17B7D1387780
:10037000CC2B329595E6241FB14F0A000020410096
:1003800000C84200401C4620BCBE4CCA1B0E5AAEE0
:10039000C59D74434F4D4D554E49434154494F4EB1
:1003A0000044525952554E004552524F5253004943
:1003B0004E464F004543484F0047322F4733206297
:1003C000616420706172616D65746572730A0053B7
:1003D0006C6565702E2E2E00486F6D652058592073
:1003E00066697273740A00486F6D652058592066FB
:1003F0006972737400205A3A200020593A20004252
:10040000656420583A2000436C69636B20746F2048
:10041000726573756D652E2E2E004E6F206D6F7692
:10042000652E002569730025696D202569730025F7
:1004300069682025696D2025697300256964202578
:1004400069682025696D2025697300256979202553
:100450006964202569682025696D2025697300502D
:1004600072696E742074696D653A2000B403AF033D
:10047000A803A10393036F66660044454255473ABB
:10048000004B494C4C45442E20004D313133205314
:10049000006F6B004D617274696E205859204F6671
:1004A000662E00544845524D414C5F50524F5445C2
:1004B0004354494F4E004155544F5245504F5254AA
:1004C0005F53445F53544154555300454D45524783
:1004D000454E43595F5041525345520043415345A5
:1004E0005F4C494748545F4252494748544E455330
:1004F0005300544F47474C455F4C494748545300BD
:10050000534F4654574152455F504F574552004252
:1005100055494C445F50455243454E54004C455656
:10052000454C494E475F44415441005A5F50524F39
:100530004245004155544F4C4556454C0050524998
:100540004E545F4A4F420050524F4752455353005A
:100550004155544F5245504F52545F54454D5000F1
:10056000564F4C554D455452494300454550524F06
:100570004D0053455249414C5F584F4E5F584F46CE
:1005800046004649524D574152455F4E414D453A0E
:100590004D61726C696E20312E312E3920284769E9
:1005A000746875622920534F555243455F434F4449
:1005B000455F55524C3A68747470733A2F2F6769CF
:1005C000746875622E636F6D2F4D61726C696E4633
:1005D00069726D776172652F4D61726C696E205022
:1005E000524F544F434F4C5F56455253494F4E3A2A
:1005F000312E30204D414348494E455F54595045B6
:100600003A4D617274696E205859204558545255BC
:100610004445525F434F554E543A31205555494455
:100620003A64353333326262372D613036392D34D6
:100630003737662D383834392D37376231336236E3
:1006400030653762350A002F2F20004D31343520B8
:10065000533C696E6465783E206F7574206F662028
:1006600072616E67652028302D31290A0020540000
:10067000205200416363656C65726174696F6E3A04
:100680002050000000000000000000000000004FAB
:10069000666673657473206170706C69656400458B
:1006A00072723A20546F6F206661722100546F6F2E
:1006B000206661722066726F6D2072656665726574
:1006C0006E636520706F696E740A00FFFFFF205A29
:1006D00000205900580020204D61783A2000205A0F
:1006E00000205900580020204D696E3A20004F6EBE
:1006F00020004F666600536F667420656E647374E5
:100700006F70733A200020466C6F773A200000012A
:100710003637260302FFFF3B3C3D380E0FFFFF3FFD
:100720002E303E1213FFFFFF28200C080907FFFFA1
:100730001A1C18FFFF2A08440AFF43206F75742013
:100740006F662072616E67650A00536572766F206E
:10075000003A200020536572766F200020643A0032
:1007600020693A0020703A00496E76616C69642015
:1007700065787472756465720A0043290A006162C3
:100780006C656420286D696E2074656D702000436F
:100790006F6C64206578747275646573206172652E
:1007A00020004E6F2063617365206C696768740A6E
:1007B00000454550524F4D2064697361626C656419
:1007C0000A003F5A206F7574206F662072616E6751
:1007D0006520282D323020746F203230290A003AEB
:1007E000200050726F6265205A204F6666736574F0
:1007F000004163746976652045787472756465722A
:100800003A2000496E76616C69642065787472756F
:100810006465720A006F6B00456E6473746F707369
:100820002025632025632025632025630020503A7E
:1008300000205A3A0020593A0020583A00656E6468
:1008400073746F7073206869743A2000656E7175F7
:10085000657565696E672022004B494C4C45442EF6
:10086000200053544F505045442E20005072696E62
:100870007465722073746F70706564206475652090
:10088000746F206572726F72732E204669782074BF
:100890006865206572726F7220616E642075736581
:1008A000204D39393920746F207265737461727408
:1008B0002E202854656D70657261747572652069AB
:1008C000732072657365742E2053657420697420DB
:1008D00061667465722072657374617274696E67A3
:1008E000290A004E6F20436865636B73756D20772E
:1008F000697468206C696E65206E756D6265722C16
:10090000204C617374204C696E653A200063686501
:10091000636B73756D206D69736D617463682C20F2
:100920004C617374204C696E653A20004C696E65A9
:10093000204E756D626572206973206E6F74204C55
:10094000617374204C696E65204E756D6265722B03
:10095000312C204C617374204C696E653A20004D37
:100960003131300020496E76616C6964206578749D
:100970007275646572200000000000000000000035
:100980000000000000484300004843000048435373
:10099000544F505045442E20005072696E74657259
:1009A0002073746F707065642064756520746F20A7
:1009B0006572726F72732E204669782074686520A4
:1009C0006572726F7220616E6420757365204D3997
:1009D000393920746F20726573746172742E202807
:1009E00054656D70657261747572652069732072EB
:1009F000657365742E205365742069742061667474
:100A000065722072657374617274696E67290A0079
:100A100053544F502063616C6C6564206265636160
:100A2000757365206F6620424C546F75636820654E
:100A300072726F72202D20726573746172742077E8
:100A4000697468204D3939390A00486F6D696E67DD
:100A5000206661696C6564002C20002C20005072B7
:100A60006F7465637465642050696E0A0020573A9C
:100A7000004520436F6F6C696E672E2E2E00452057
:100A800048656174696E672E2E2E00205A3A002048
:100A9000423A0020436F756E7420413A0020453A77
:100AA00000205A3A0020593A00583A003A0043616F
:100AB000703A00526573656E643A200000060900C2
:100AC000FE0701920321207FFF07FF07FF000000C0
:100AD00006000001070706020080808080800080F9
:100AE000030202060105A0A00507070600005050FA
:100AF000F850F850500507070600002078A070282D
:100B0000F020050707060000C0C81020409818050F
:100B100007070600006090A040A890680203030643
:100B20000104C04080030707060100204080808048
:100B30004020030707060100804020202040800558
:100B4000050506000120A870A8200505050600017E
:100B50002020F820200203030602FFC04080050188
:100B600001060003F8020202060200C0C0050505E6
:100B70000600010810204080050707060000708865
:100B8000888888887003070706010040C0404040FD
:100B900040E0050707060000708808708080F805AF
:100BA0000707060000F81020100808F005070706E0
:100BB000000010305090F81010050707060000F8EC
:100BC00080F008088870050707060000708080F034
:100BD000888870050707060000F8081020202020EC
:100BE0000507070600007088887088887005070769
:100BF0000600007088887808087002050506020063
:100C0000C0C000C0C00206060602FFC0C000C0404F
:100C100080040707060000102040804020100503D4
:100C200003060002F800F8040707060100804020D0
:100C3000102040800507070600007088081020007B
:100C40002005070706000070880868A8A870050737
:100C500007060000708888F888888805070706005E
:100C600000F08888F08888F0050707060000708883
:100C70008080808870050707060000F088888888D3
:100C800088F0050707060000F88080F08080F805EE
:100C90000707060000F88080F080808005070706BF
:100CA0000000708880B888887005070706000088F3
:100CB0008888F8888888010707060200808080807D
:100CC0008080800507070600003810101010906023
:100CD0000507070600008890A0C0A09088050707B8
:100CE000060000808080808080F8050707060000ED
:100CF00088D8A8888888880507070600008888C8DB
:100D0000A898888805070706000070888888888862
:100D100070050707060000F08888F08080800507CE
:100D20000706000070888888A890680507070600F5
:100D300000F08888F0A090880507070600007880FA
:100D400080700808F0050707060000F82020202022
:100D50002020050707060000888888888888700595
:100D6000070706000088888888885020050707063E
:100D700000008888888888A8500507070600008832
:100D8000885020508888050707060000888888500A
:100D9000202020050707060000F80810204080F8F2
:100DA000030707060100E08080808080E0050505DC
:100DB0000600018040201008030707060100E0201C
:100DC00020202020E00503030600042050880501B0
:100DD00001060000F8020202060205804005050532
:100DE00006000070087888780507070600008080F4
:100DF000B0C88888F00505050600007080808870FE
:100E00000507070600000808689888887805050522
:100E10000600007088F8807005070706000030485B
:100E2000E0404040400506060600FF7088887808CC
:100E3000700507070600008080B0C8888888010711
:100E40000706020080008080808080030808060179
:100E5000FF200020202020A040040707060000807B
:100E60008090A0C0A090030707060100C04040404A
:100E70004040E0050505060000D0A8A8A8A8050583
:100E800005060000B0C888888805050506000070C2
:100E9000888888700506060600FFF08888F0808044
:100EA0000506060600FF7888887808080505050607
:100EB0000000B0C8808080050505060000708070C5
:100EC00008F00407070600004040E04040403005BD
:100ED0000505060000888888986805050506000055
:100EE00088888850200505050600008888A8A85035
:100EF00005050506000088502050880506060600F6
:100F0000FF888888780870050505060000F810201D
:100F100040F80307070601002040408040402001C0
:100F20000707060200808080808080800307070614
:100F30000100804040204040800502020600026817
:100F4000900000000600004573746570732F6D6D8E
:100F5000004573746570732F6D6D005A73746570FE
:100F6000732F6D6D005A73746570732F6D6D00591A
:100F700073746570732F6D6D005973746570732F82
:100F80006D6D005873746570732F6D6D00587374B8
:100F90006570732F6D6D004D6F74696F6E005374C3
:100FA0006570732F6D6D004A65726B0041636365F8
:100FB0006C65726174696F6E0056656C6F636974FD
:100FC000790050726F6265205A204F6666736574AF
:100FD0000050726F6265205A204F66667365740018
:100FE000436F6E74726F6C0046696C2E20446961A9
:100FF0002E0046696C2E204469612E004F66660003
:101000004F6E20004520696E206D6D3300436F6E7A
:1010100074726F6C00486F6D65202573257325739E
:10102000206669727374002066697273740A005ACC
:101030000059005800486F6D65200020746F6F20C4
:101040006C6F6E6720657874727573696F6E20704F
:10105000726576656E7465640A0020636F6C642047
:10106000657874727573696F6E2070726576656EDF
:101070007465640A006563686F3A004D6F76652099
:10108000302E316D6D004D6F766520316D6D004DE8
:101090006F76652031306D6D004D6F76652061781B
:1010A0006973004578747275646572004D6F76657A
:1010B000205A004D6F76652059004D6F7665205897
:1010C000004578747275646572004D6F7665205ABC
:1010D000004D6F76652059004D6F766520580050A1
:1010E00072657061726500526573746F7265206617
:1010F00061696C7361666500424C546F756368008A
:1011000046696C616D656E74004D6F74696F6E0039
:1011100054656D7065726174757265004D61696EBC
:1011200000507265686561742041425320636F6EA0
:1011300066005072656865617420504C4120636F91
:101140006E66005049442D44005049442D440050DF
:1011500049442D49005049442D49005049442D50DF
:10116000005049442D50002008204661637400203F
:10117000082046616374002008204D617800200833
:10118000204D6178002008204D6178002008204D16
:10119000696E002008204D696E002008204D696EA0
:1011A000004F6666004F6E20004175746F74656D68
:1011B000700046616E207370656564203200466180
:1011C0006E20737065656420320046616E20737016
:1011D00065656420320046616E2073706565642029
:1011E000310046616E207370656564203100466190
:1011F0006E2073706565642031004E6F7A7A6C657D
:10120000004E6F7A7A6C65004E6F7A7A6C65004397
:101210006F6E74726F6C004E6F7A7A6C65004E6FF1
:101220007A7A6C65004E6F7A7A6C650046616E2042
:1012300073706565640046616E2073706565640057
:1012400046616E2073706565640054656D706572EB
:101250006174757265001000C90210012C01400113
:10126000220170011801B0010E01F00104015002C9
:10127000FA00B002F0003003E600D003DC00900476
:10128000D2007005C800A006BE000008B400B00976
:10129000AA00D00BA000600E960060118C00001513
:1012A000820020197800C01D6E00A0226400B027C3
:1012B0005A00902C500000314600E0343C001038B9
:1012C0003200903A2800603C1E00A03D1400803E91
:1012D0000A00203F000023646566696E652044456E
:1012E0004641554C545F4B64200023646566696E2B
:1012F000652044454641554C545F4B6920002364AA
:101300006566696E652044454641554C545F4B7097
:101310002000504944204175746F74756E652066D5
:10132000696E6973686564212050757420746865FE
:10133000206C617374204B702C204B6920616E64AB
:10134000204B6420636F6E7374616E7473206672D9
:101350006F6D2062656C6F7720696E746F20436FCC
:101360006E66696775726174696F6E2E680A0050E7
:101370004944204175746F74756E65206661696CAF
:101380006564212074696D656F75740A00453120AC
:10139000544845524D414C2052554E4157415900F9
:1013A000546865726D616C2052756E617761790069
:1013B00045312048656174696E67206661696C65B6
:1013C000640048656174696E67206661696C656474
:1013D00000504944204175746F74756E65206661D4
:1013E000696C6564212054656D70657261747572F5
:1013F0006520746F6F20686967680A00204B643A43
:101400002000204B693A2000204B703A20000A202F
:10141000436C617373696320504944200A0020546F
:10142000753A2000204B753A2000206D61783A20F3
:1014300000206D696E3A200020643A200020626925
:1014400061733A2000504944204175746F74756E81
:1014500065206661696C656421204261642065785D
:10146000747275646572206E756D6265720A0050E3
:101470004944204175746F74756E65207374617290
:10148000740A006265640A002C2073797374656DB8
:101490002073746F70706564212048656174657293
:1014A0005F49443A2000453120544845524D414C53
:1014B0002052554E4157415900546865726D616C18
:1014C0002052756E617761790045312048656174FD
:1014D000696E67206661696C65640048656174695E
:1014E0006E67206661696C656400453120457272E3
:1014F0003A204D415854454D50004D415854454DAA
:1015000050207472696767657265640045312045D3
:1015100072723A204D494E54454D50004D494E543B
:10152000454D502074726967676572656400202FAD
:101530000020403A0000002100240027002A002D4E
:10154000003000330001010000040107010A01001E
:10155000002200250028002B002E0031003400025C
:10156000010000050108010B0100002000230026F6
:101570000029002C002F00320000010000030106AA
:10158000010901050505050705080808080202020A
:10159000020A0A080804040404010101010101010E
:1015A000010303030303030303040707070C0C0CE5
:1015B0000C0C0C0C0C0202020206060606060606BD
:1015C000060B0B0B0B0B0B0B0B010210202008085A
:1015D0001020401020408002010201080402010195
:1015E000020408102040808040201008040201807E
:1015F00004020180402010080402010804020101D5
:1016000002040810204080010204081020408000DD
:10161000000A0B02090C0D0E08070304010000006C
:1016200000000000000000000000000000000000BA
:101630000000000000000000000000121110000077
:10164000000000000000000000000000000000009A
:101650000000000000556E6B6E6F776E20636F6D3B
:101660006D616E643A20220050726F62696E67206D
:101670006661696C65640A0050726F62696E67200A
:101680006661696C656400205A3A200020593A204E
:101690000042656420583A200024F4D43050C38EB0
:1016A00020C2A24017828B7011127A910D816CD9E1
:1016B0000AA861E108C7586607615143061E4B5DE1
:1016C00005C145A7041A411104093D980371393138
:1016D000034036DB0265339102D4305402802E1D64
:1016E00002632CEE01752AC501B028A001102781E4
:1016F000018F2564012B244B01E0223401AC211F12
:10170000018D200D01801FFC00841EED00971DDF60
:1017100000B81CD200E61BC600201BBC00641AB235
:1017200000B219A8000A19A0006A189900D11791EF
:101730000040178B00B516840031167E00B3157972
:10174000003A157300C7146F0058146A00EE136650
:10175000008813630025135E00C7125B006C1257EC
:101760000015125400C111510070114F0021114B8E
:1017700000D61049008D1047004610440002104268
:1017800000C00F4000800F3E00420F3C00060F3BA0
:1017900000CB0E3800930E37005C0E3500270E3458
:1017A00000F30D3200C10D3100900D3000600D2EA0
:1017B00000320D2D00050D2C00D90C2B00AE0C298C
:1017C00000850C29005C0C2700350C27000E0C2628
:1017D00000E80B2400C40B2400A00B23007D0B2386
:1017E000005A0B2100390B2100180B2000F80A1FAA
:1017F00000D90A1E00BB0A1E009D0A1D00800A1D9A
:1018000000630A1C00470A1B002C0A1B00110A1A5D
:1018100000F7091A00DD091900C4091900AB0919FC
:1018200000920917007B091800630917004C09167C
:101830000036091600200916000A091500F50815DA
:1018400000E0081400CC081400B8081400A4081420
:1018500000900813007D0812006B0813005808124E
:101860000046081200340811002308110012081164
:101870000001081100F0071000E0071000D0071069
:1018800000C0071000B0070F00A107100091070E5D
:101890000083070F0074070F0065070E0057070E3F
:1018A0000049070E003B070D002E070E0020070D14
:1018B0000013070D0006070D00F9060C00ED060DDC
:1018C00000E0060C00D4060C00C8060C00BC060C98
:1018D00000B0060C00A4060B0099060C008D060B48
:1018E0000082060B0077060B006C060B0061060AEF
:1018F0000057060B004C060A0042060A0038060A8A
:10190000002E060A0024060A001A060A001006091C
:101910000007060A00FD050900F4050900EB0509AA
:1019200000E2050900D9050900D0050900C705092D
:1019300000BE050900B5050800AD050800A50509AC
:10194000009C050800940508008C05080084050823
:10195000007C050800740508006C05070065050893
:10196000005D050700560508004E050700470507FE
:10197000004005080038050700310507002A050763
:1019800000230507001C050600160507000F0507C4
:10199000000805060002050700FB040600F5040721
:1019A00000EE040600E8040600E2040700DB04067B
:1019B00000D5040600CF040600C9040600C30406CF
:1019C00000BD040600B7040600B1040500AC04061F
:1019D00000A6040600A00405009B0406009504056B
:1019E00000900406008A04050085040500800406B2
:1019F000007A04050075040500700405006B0405F9
:101A00000066040500610405005C04050057040538
:101A100000520405004D0405004804050043040578
:101A2000003E0404003A04050035040500300404B7
:101A3000002C04050027040400230405001E0404F0
:101A4000001A04040016040500110404000D040427
:101A500000090405000404040000040400FC03045D
:101A600000F8030400F4030400F0030400EC030492
:101A700000E8030400E4030400E0030400DC0304C2
:101A800000D8030400D4030400D0030400CC0304F2
:101A900000C8030300C503030024F404D9201BC4B9
:101AA0000C5C0E9804C4095F0265077101F405F926
:101AB00000FB04B30048048700C1036900580355C4
:101AC0000003034500BE023A008402310053022A9B
:101AD000002902250004022000E4011C00C80119AD
:101AE00000AF011700980114008401130071011068
:101AF000006101100051010E0043010D0036010B81
:101B0000002B010B0020010B00150109000C01093D
:101B10000003010800FB000800F3000800EB0007C9
:101B200000E4000600DE000600D8000600D2000631
:101B300000CC000500C7000500C2000500BD000480
:101B400000B9000400B5000400B1000400AD0004B9
:101B500000A9000400A5000300A20003009F0004E8
:101B6000009B00030098000300950002009300030F
:101B700000900003008D0002008B0003008800022B
:101B8000008600020084000300810002007F000242
:101B9000007D0002007B0002007900020077000156
:101BA0000076000200740002007200010071000261
:101BB000006F0002006D0001006C0002006A00016D
:101BC0000069000200670001006600010065000175
:101BD0000064000200620001006100010060000179
:101BE000005F0002005D0001005C0001005B00017D
:101BF000005A00010059000100580001005700017F
:101C0000005600010055000100540001005300007F
:101C1000005300010052000100510001005000017A
:101C2000004F0001004E0000004E0001004D000179
:101C3000004C0001004B0000004B0001004A000175
:101C40000049000100480000004800010047000171
:101C5000004600000046000100450000004500016C
:101C60000044000100430000004300010042000066
:101C7000004200010041000000410001004000015D
:101C8000003F0000003F0001003E0000003E000158
:101C9000003D0000003D0001003C0000003C000051
:101CA000003C0001003B0000003B0001003A000046
:101CB000003A00010039000000390001003800003E
:101CC0000038000000380001003700000037000134
:101CD000003600000036000000360001003500002C
:101CE0000035000000350001003400000034000021
:101CF0000034000100330000003300000033000115
:101D0000003200000032000000320001003100000B
:101D10000031000000310001003000000030000000
:101D200000300001002F0000002F0000002F0000F5
:101D3000002F0001002E0000002E0000002E0001E8
:101D4000002D0000002D0000002D0000002D0001DE
:101D5000002C0000002C0000002C0000002C0001D2
:101D6000002B0000002B0000002B0000002B0001C6
:101D7000002A0000002A0000002A0000002A0001BA
:101D800000290000002900000029000000290000AF
:101D900000290001002800000028000000280000A1
:101DA0000028000000280001002700000027000094
:101DB0000027000000270000002700010026000087
:101DC000002600000026000000260000002600017A
:101DD000002500000025000000250000002500006F
:101DE0000025000000250001002400000024000060
:101DF0000024000000240000002400010023000053
:101E00000023000000230000002300000023000046
:101E10000023000000230001002200000022000037
:101E20000022000000220000002200000022000129
:101E3000002100000021000000210000002100001E
:101E4000002100000021000000210001002000000E
:101E50000020000000200000002000000020000002
:101E6000002000000020000000200001001F0000F2
:101E7000001F0000001F0000001F0000001F0000E6
:101E8000001F0000001F0001001E0000001E0000D7
:101E9000001E0000001E000000043700001E290084
:101EA00000511B00005810000010090000CC040075
:101EB00000780200004101000020746F6F206C6FF9
:101EC0006E6720657874727573696F6E20707265C5
:101ED00076656E7465640A0020636F6C64206578B3
:101EE00074727573696F6E2070726576656E746555
:101EF000640A00627573793A2070617573656420B5
:101F0000666F7220696E7075740A00627573793A33
:101F10002070617573656420666F722075736572D9
:101F20000A00627573793A2070726F636573736922
:101F30006E670A004B494C4C45442E20004B494CDF
:101F40004C20636175736564206279204B494C4C69
:101F500020627574746F6E2F70696E0A004B494C65
:101F60004C45442E20004B494C4C206361757365F1
:101F70006420627920746F6F206D75636820696ECC
:101F80006163746976652074696D65202D206375C1
:101F90007272656E7420636F6D6D616E643A2000BD
:101FA000506C6561736520726573657400505249A9
:101FB0004E5445522048414C544544005072696E7D
:101FC0007465722068616C7465642E206B696C6C3A
:101FD00028292063616C6C6564210A001FFFFFFFE4
:101FE000FFFFFF600000000001FF40000000000054
:101FF000FF8000000000007F83CF00000C303F878F
:10200000FF80000C301F867980000C000F8C30C7D9
:10201000838C30E78C30CFC7CC31F38C30DCECECE8
:1020200033B98C30D86C6C33198C30D06C0C3319BC
:102030008C30D86C0C33198C30DC6C0E3B198C3026
:10204000CF7C079F198C30C77C038F19400000009C
:10205000000002600000000000061FFFFFFFFFFFFE
:10206000F82020506C616E6E65724275666665720E
:1020700042797465733A20002046726565204D658B
:102080006D6F72793A2000436F6D70696C65643AC8
:102090002041707220313720323031390A00207CE3
:1020A00020417574686F723A20284D617274696EB0
:1020B000204E6F766F746E792C2064656661756C46
:1020C0007420636F6E666967290A00323031382DDB
:1020D00030382D303100204C6173742055706461AC
:1020E0007465643A2000312E312E390A004D617238
:1020F0006C696E0020536F6674776172652052655B
:102100007365740A00205761746368646F672052B6
:10211000657365740A002042726F776E206F757464
:102120002052657365740A002045787465726E618B
:102130006C2052657365740A00506F776572557034
:102140000A0073746172740A004D617274696E20C2
:1021500058592052656164792E005072696E746915
:102160006E672E2E2E005072696E7420706175732A
:1021700065640053746F7720424C546F7563680038
:102180004D32383020503020533930004465706C67
:102190006F7920424C546F756368004D323830209F
:1021A00050302053313000424C546F7563682053D7
:1021B000656C662D54657374004D32383020503094
:1021C000205331323000526573657420424C546F95
:1021D000756368004D32383020503020533136302E
:1021E000004D61696E00436F6E74726F6C005072C7
:1021F00065706172650054756E6500496E666F208A
:1022000073637265656E00466C6F7700466C6F771E
:1022100000466C6F770046616E20737065656420C0
:10222000320046616E20737065656420320046613D
:102230006E20737065656420320046616E20737095
:1022400065656420310046616E20737065656420A9
:10225000310046616E2073706565642031004E6FF9
:102260007A7A6C65004E6F7A7A6C65004E6F7A7A76
:102270006C65005370656564005370656564005358
:1022800070656564004D61696E004D343238004DF3
:10229000323830205030205331363000424C546FA9
:1022A0007563682053656C662D54657374004D32F8
:1022B000383020503020533132300050726568651C
:1022C000617420414253005072656865617420500A
:1022D0004C4100436F6F6C646F776E00526573659D
:1022E0007420424C546F7563680044697361626C7A
:1022F00065207374657070657273004D38340053D7
:10230000657420686F6D65206F6666736574730011
:102310004175746F20686F6D6500473238004D6FEE
:1023200076652061786973004D61696E004D6F7646
:10233000652058004D6F76652059004D6F766520F9
:102340005A00457874727564657200545249474763
:1023500045524544006F70656E003A20007A5F7008
:10236000726F6265007A5F6D6178007A5F6D696E89
:1023700000795F6D617800795F6D696E00785F6DDF
:10238000617800785F6D696E005265706F72746974
:102390006E6720656E6473746F70207374617475FA
:1023A000730A0000004842000048420000804000DC
:1023B0000000005761726E696E673A20486F6D6960
:1023C0006E672042756D702044697669736F722064
:1023D0003C20310A000202040000A0400000A0409E
:1023E000000000400000484300004843000048430C
:1023F00048617264636F6465642044656661756CEE
:10240000742053657474696E6773204C6F616465E2
:10241000640A00B80B0000B80B0000640000001054
:1024200027000000009643000096430000A04000F3
:1024300000C8410000A0420000A04200007A450010
:1024400000FA433A0A0020286D6D290020204D38FB
:102450003531205A005A2D50726F6265204F6666E2
:102460007365740020440020490020204D33303132
:102470002050005049442073657474696E67733A44
:102480000A0020460020420020480020204D313420
:10249000352053004D6174657269616C2068656117
:1024A00074757020706172616D65746572733A0A3B
:1024B00000205A0020590020204D3230362058008C
:1024C000486F6D65206F66667365743A0A00204533
:1024D00000205A00205900205800205400205300AA
:1024E00020204D32303520510020453C6D61785F11
:1024F000655F6A65726B3E0020583C6D61785F785D
:102500005F6A65726B3E20593C6D61785F795F6AE6
:1025100065726B3E205A3C6D61785F7A5F6A6572C6
:102520006B3E00416476616E6365643A20513C6D98
:10253000696E5F7365676D656E745F74696D655F05
:1025400075733E20533C6D696E5F666565647261AC
:1025500074653E20543C6D696E5F74726176656C83
:102560005F66656564726174653E002054002052A8
:102570000020204D323034205000416363656C658B
:10258000726174696F6E2028756E6974732F73326F
:10259000293A20503C7072696E745F616363656CA8
:1025A0003E20523C726574726163745F616363655F
:1025B0006C3E20543C74726176656C5F6163636548
:1025C0006C3E0A00204500205A0020590020204D72
:1025D0003230312058004D6178696D756D2041634E
:1025E00063656C65726174696F6E2028756E6974BD
:1025F000732F7332293A0A00204500205A002059CF
:102600000020204D3230332058004D6178696D75BF
:102610006D206665656472617465732028756E69E6
:1026200074732F73293A0A00204500205A0020595C
:102630000020204D3932205800537465707320708B
:10264000657220756E69743A0A0020204D32303070
:102650002044300A0020204D3230302044002044F5
:10266000697361626C65640A0046696C616D656ED0
:10267000742073657474696E67733A0020204D315D
:1026800034392043203B20556E69747320696E20D5
:1026900043656C736975730A00202047323120202E
:1026A00020203B005654726176206D696E005654AE
:1026B000726176206D696E005654726176206D6984
:1026C0006E00566D696E00566D696E00566D696ECE
:1026D00000566D6178204500566D617820450056A2
:1026E0006D6178204500566D6178205A00566D6105
:1026F00078205A00566D6178205A00566D61782016
:102700005900566D6178205900566D617820590046
:10271000566D6178205800566D6178205800566DCE
:1027200061782058004D6F74696F6E00416D61785B
:10273000204500416D6178204500416D6178205A47
:1027400000416D6178205A00416D61782059004147
:102750006D6178205900416D6178205800416D61AC
:1027600078205800412D74726176656C00412D749B
:10277000726176656C00412D7265747261637400DC
:10278000412D7265747261637400416363656C000E
:10279000416363656C004D6F74696F6E0056652D03
:1027A0006A65726B0056652D6A65726B0056652D01
:1027B0006A65726B00567A2D6A65726B00567A2DC7
:1027C0006A65726B0056792D6A65726B0056792DB9
:1027D0006A65726B0056792D6A65726B0056782DAA
:1027E0006A65726B0056782D6A65726B0056782D9B
:1027F0006A65726B004D6F74696F6E0000060900A8
:10280000FE000000000001090008FE0000050808A5
:1028100006000040F0C8888898781005080806006F
:1028200000C0F88888888888F8050505060001201A
:1028300030F830200508080600002070F82020201D
:1028400020E00509090600FF2070A8A8B888887054
:10285000200509090600FFE080C0B0A8283028281C
:102860000509090600FFF8A88888888888A8F8055F
:102870000A0A0600FE205050505088A8A88870030D
:10288000030306000340A040202020202020005AFF
:1028900000590020202020005800092000000000DE
:1028A0000000000000000000003FFFF000000000FA
:1028B0000000000000000000380070000000000070
:1028C0000000000000000030FC30000000000000AC
:1028D00000000000000020FC1000000000000000CC
:1028E0000000000000207810000000000000000040
:1028F0000000000020301000000000000000000078
:102900000000002C00D03FC00000000000000000CC
:1029100000002E31D07FE000000000000000000029
:10292000002F7BD07FE000000000000000000000CE
:102930002F7BD07FE0000000000000000000002E90
:1029400031D03FC0000000000000000000002C005B
:10295000D03FC00000000000000000000020301048
:102960007FE0000000000000000000002078107FE1
:10297000E00000000000000000000020FC107FE0EC
:102980000000000000000000000030FC301F80004C
:102990000000000000000000003800700F00000080
:1029A00000000000000000003FFFF00600000000F3
:1029B0000000000000000000000000000000000017
:1029C0000000000000003FFFF000000000000000D9
:1029D000000000000038007000000000000000004F
:1029E0000000000031863000000000000000000000
:1029F000000000238710000000000000000000001D
:102A00000000278790000000000000000000000088
:102A1000002F87D000000000000000000000000030
:102A20002F03D03FC0000000000000000000002085
:102A300030107FE00000000000000000000020785F
:102A4000107FE0000000000000000000002078106F
:102A50007FE0000000000000000000002030103F78
:102A6000C0000000000000000000002F03D03FC0A5
:102A7000000000000000000000002F87D07FE00071
:102A80000000000000000000002787907FE00000A9
:102A900000000000000000002387107FE00000001D
:102AA000000000000000003186301F8000000000A0
:102AB0000000000000003800700F0000000000005F
:102AC00000000000003FFFF00600000000000000D2
:102AD000000000000000004572726F723A002EB3D1
:102AE00011241FBECFEFD1E2DEBFCDBF00E00CBF8F
:102AF00012E0A0E0B2E0E8EAFFE701E00BBF02C0AD
:102B000007900D92AE3AB107D9F72EE0AEEAB2E0E7
:102B100001C01D92A43DB207E1F715E1C0E7D5E180
:102B200000E006C021970109802FFE010E9469BCC8
:102B3000CF36D10780E00807A9F70E94649B0C9468
:102B4000D2BF0C9400008091C2059091C3059817E4
:102B500059F0E92FF0E0EE5BFA4F80819F5F9F779D
:102B60009093C30590E008958FEF9FEF0895CF9263
:102B7000DF92EF92FF92CF9380916F00C82FC270C7
:102B800081FF05C080916F008D7F80936F0080E092
:102B90000E9420626B017C0181E00E9420626C0D2A
:102BA0007D1D8E1D9F1D0E94E8B720E030E040E0B3
:102BB0005FE30E9447B89B01AC01CC2329F08091D0
:102BC0006F00826080936F006091380670913906C3
:102BD00080913A0690913B060E9447B86093C405E5
:102BE0007093C5058093C6059093C70580916F00CB
:102BF000C82FC27081FF05C080916F008D7F8093C8
:102C00006F0080E00E9420626B017C0181E00E94E5
:102C10002062A7019601261B370B480B590BCA01EE
:102C2000B9010E94E8B720E030E040E05FE30E9495
:102C300047B89B01AC01CC2329F080916F008260E2
:102C400080936F0060913C0670913D0680913E0636
:102C500090913F060E9447B86093C8057093C905DC
:102C60008093CA059093CB0582E00E9420620E9467
:102C7000E8B79B01AC0160914006709141068091DC
:102C80004206909143060E9447B86093CC0570932A
:102C9000CD058093CE059093CF05CF91FF90EF9017
:102CA000DF90CF9008950F931F93CF93DF93EC01A4
:102CB0000E940E9B0E811F81288539850115110503
:102CC0002105310559F52C852223A9F13A8521509A
:102CD0002C8721E0230F2A874D85241301C01A86F3
:102CE000FE0124E0329FE00DF11D112406851785B9
:102CF000208931890A831B832C833D83DC01CB012E
:102D0000800F911FA11DB11D8E839F83A887B98756
:102D10008C819D81892B79F0409A0DC0DC01CB011B
:102D2000801B910BA20BB30BB7FD05C040981E8210
:102D30001F8218861986DF91CF911F910F910895F8
:102D4000CF92DF92EF920F931F93CF93DF9300D038
:102D50001F92CDB7DEB7E090E00B19821A821B827A
:102D60001C82CE0101966C0104E412E02EEF3BE0E0
:102D70004AEF5BE066EF7BE082EF9BE00E94F73575
:102D80000F900F900F900F90DF91CF911F910F91A7
:102D9000EF90DF90CF900895FF920F931F93CF9302
:102DA000DF93FC0120812B3319F1D091CD04D43075
:102DB000F8F4F62EBC01C091D6040C2F10E0F0E61A
:102DC000CF9FC0011124855B9C4F0E94B1BFF801C9
:102DD000EF5BFC4FF082CF5FC43018F4C093D60491
:102DE00002C01092D604DF5FD093CD0481E001C011
:102DF00080E0DF91CF911F910F91FF900895BC016A
:102E000084EA9EE00E94B26967E771E080E090E0AA
:102E10000C94752880913E0590913F05A091400546
:102E2000B09141058093440290934502A0934602DD
:102E3000B093470280913C0590913D0590934302E9
:102E40008093420208958091440290914502A0919E
:102E50004602B091470280933E0590933F05A093B0
:102E60004005B093410580914202909143029093B6
:102E70003D0580933C0584E690E090934302809367
:102E8000420208952F923F924F925F926F927F92EB
:102E90008F929F92AF92BF92CF92DF92EF92FF926A
:102EA0000F931F93CF93DF93CDB7DEB72A970FB65B
:102EB000F894DEBF0FBECDBF2B013C012D833E83B6
:102EC0004F83588747015801DA86C98680914402AA
:102ED00090914502A0914602B091470289839A835E
:102EE000AB83BC83D6011C9111960C91119712965D
:102EF0003C90129713962C9020E030E0A901612FAE
:102F0000702F832D922D0E94E1B781110AC0EBEA48
:102F1000F3E285919591A591B491182F092F3A2E3E
:102F20002B2EA50194016091FA0B7091FB0B8091FF
:102F3000FC0B9091FD0B0E94E1B787FF16C0812F1B
:102F4000902FA32DB22D8093440290934502A0931D
:102F50004602B09347028092FA0B9092FB0BA0922C
:102F6000FC0BB092FD0B0E94A016E985FA85C0808B
:102F7000D180E280F38020E030E0A901C701B601F2
:102F80000E94E1B7811107C085E5C82EDC2C85E0E1
:102F9000E82E83E4F82EC0924402D0924502E092DB
:102FA0004602F09247024092F20B5092F30B60926D
:102FB000F40B7092F50B8D819E81AF81B885809363
:102FC000F60B9093F70BA093F80BB093F90B0E94BC
:102FD000A0162091FA0B3091FB0B4091FC0B509105
:102FE000FD0BC501B4010E94E1B787FF16C0812F18
:102FF000902FA32DB22D8093440290934502A0936D
:103000004602B09347028092FA0B9092FB0BA0927B
:10301000FC0BB092FD0B0E94A0160E942A7D8981B4
:103020009A81AB81BC818093440290934502A09326
:103030004602B09347022A960FB6F894DEBF0FBE41
:10304000CDBFDF91CF911F910F91FF90EF90DF9057
:10305000CF90BF90AF909F908F907F906F905F9038
:103060004F903F902F900895CF92DF92EF92FF9272
:103070000F931F936B01FC01E080F18002811381AB
:10308000E2EFFBE0248135814681578160817181C7
:10309000828193810E9442171F910F91FF90EF90C0
:1030A000DF90CF900895BF92CF92DF92EF92FF9280
:1030B0000F931F93CF93DF93CDB7DEB728970FB64B
:1030C000F894DEBF0FBECDBF9091690D981709F43B
:1030D00078C0B82E80E090E0A0E2B1E48D839E83BA
:1030E000AF83B887C090EE0BD090EF0BE090F00B61
:1030F000F090F10B20E030E0A901C701B6010E9479
:10310000E1B787FF0CC0A701960160E070E080E2A4
:1031100091E40E9471BC6D837E838F83988720E049
:1031200030E048E453E46D817E818F8198850E9470
:10313000D2BE181644F480E090E0A8E4B3E48D8396
:103140009E83AF83B8872D813E814F8158856091E2
:10315000FA0B7091FB0B8091FC0B9091FD0B0E9480
:10316000E1B787FF0BC019821A821B821C82BE0145
:103170006F5F7F4FCE0105960E9434186091F20B6D
:103180007091F30B8091F40B9091F50B2091F60B5D
:103190003091F70B4091F80B5091F90B19821A827C
:1031A0001B821C82E090FA0BF090FB0B0091FC0B51
:1031B0001091FD0BFE0131966F010E944217B092F3
:1031C000690D80E028960FB6F894DEBF0FBECDBF24
:1031D000DF91CF911F910F91FF90EF90DF90CF90F3
:1031E000BF9008950F931F93CF93DF9394E0899F2F
:1031F000E00111248E010E51144FFE01E85EFC4FD8
:10320000DE01A452BD4F2D913D914D915C916081A5
:103210007181828193810E9472BCF8016083718305
:1032200082839383FE01E958F64F85919591A5918C
:10323000B491FE01EC5DFC4F80839183A283B38344
:10324000FE01ED57F64F85919591A591B491CB5F15
:10325000DD4F88839983AA83BB83DF91CF911F9130
:103260000F9108952EEF3BE04AEF5BE066EF7BE0C5
:1032700082EF9BE00C943A7DCF9380916F00C82F32
:10328000C27081FF05C080916F008D7F80936F00B9
:103290008091120E8093110E8093100E80930F0E6A
:1032A00084E680930E0E0E945D8088EE93E09093FA
:1032B0005B0B80935A0BCC2329F080916F008260C6
:1032C00080936F0081E08093040D0E942A7D0E940C
:1032D000B7158CE0E4ECF5E0A2EFBBE001900D92B5
:1032E0008A95E1F7CF910C9432192F923F924F9229
:1032F0005F926F927F929F92AF92BF92CF92DF9236
:10330000EF92FF920F931F93CF93DF93CDB7DEB76A
:1033100028970FB6F894DEBF0FBECDBF1A012B0160
:10332000922EF32EC82ED12CF601E553F94FE491DD
:10333000AA24A3941E160CF4A12CBB24B39420E061
:1033400030E0A901C201B1010E94D2BE18160CF0F2
:10335000B12CCC0CDD1CCC0CDD1CC6018E50944F66
:103360003C01FC0110821182128213820E943219E8
:10337000F3012082318242825382E090E00B20E010
:1033800030E0A901B801892D9F2D0E94E1B781117C
:103390000AC0F601ED55FC4D85919591A591B4912A
:1033A0008C019A2EFB2EC801A92DBF2D8D839E83E3
:1033B000AF83B88719821A821B821C82CE010196C4
:1033C0006C018E010B5F1F4F2EEF3BE04AEF5BE07D
:1033D00066EF7BE082EF9BE00E94F7350E942A7D3A
:1033E000AB1459F08091CB04882319F01092CB04D0
:1033F00004C08AE49AE00E94176E28960FB6F894EB
:10340000DEBF0FBECDBFDF91CF911F910F91FF9017
:10341000EF90DF90CF90BF90AF909F907F906F9094
:103420005F904F903F902F9008958091D404909199
:10343000D504009731F04AE050E060E070E00C9471
:1034400019B660E070E0CB0108958091D4049091AA
:10345000D504009731F04AE050E060E070E00C9451
:10346000EBB460E070E0CB0108950E94251A97FD4F
:103470000CC00E94251A6F3F71058105910509F066
:1034800034F40E94251A862F089580E008958FEF66
:1034900008958091D4049091D504892B39F00E942D
:1034A000351A91E0811103C090E001C091E0892FAD
:1034B00008950F931F93CF938091D4049091D504D6
:1034C0000097F1F0FC018F01C1912C2F2F7D89F025
:1034D000C53411F0C536B9F7F801108260E070E02C
:1034E0000E948FB3F801C083562F472F382F292F02
:1034F0000BC060E070E0CF911F910F910C948FB3DF
:1035000050E040E030E020E0652F742F832F922FB1
:10351000CF911F910F91089581548A3108F042C0D4
:10352000E82FF0E04091C8025091C9026091CA02B0
:103530007091CB0204C076956795579547958A950B
:10354000D2F7842F817040FF2FC0E255FD4F90814C
:10355000992309F1E091CE0BF091CF0BE90FF11D0A
:10356000908120ED290F2A3098F09E3211F491813C
:103570000CC09D3211F09B3271F4918120ED290F26
:103580002A3030F09E3239F4928190539A3018F4F8
:103590002E2F9F2F02C020E090E02093D404909320
:1035A000D504089580E0089508950E948C1A882318
:1035B00041F081E02091D4043091D504232B09F40B
:1035C00080E008959F92AF92BF92CF92DF92EF92E8
:1035D000FF920F931F93CF93DF9381E5A82E82E094
:1035E000B82E00ED1BE0C2EFDBE092EEC92E9BE0AF
:1035F000D92E25E4E22E23E0F22E912CF5018191C3
:103600005F010E948C1A882309F10E94591AF70160
:103610002081211104C020914903222339F02881FF
:1036200039814A815B810E9472BC0AC0F3E09F1617
:1036300039F0F60120813181428153810E9471BCB1
:10364000F801608371838283938309C088819981A3
:10365000AA81BB81F80180839183A283B383939471
:103660000C5F1F4F2496F4E0CF0ED11C2FEFE21A0F
:10367000F20A84E09812C2CF86E40E94D51A882309
:10368000C9F00E94591A20E030E0A9010E94D2BE80
:10369000181684F40E94591A20E030E040E752E402
:1036A0000E946CBD60934402709345028093460271
:1036B00090934702DF91CF911F910F91FF90EF9070
:1036C000DF90CF90BF90AF909F9008959091C000F1
:1036D00095FFFCCF8093C6000895CF93DF93E7ED6D
:1036E000FAE28491EF012196882321F00E94661B63
:1036F000FE01F7CFEEE5FAE08491EF0121968823F1
:1037000021F00E94661BFE01F7CFDF91CF91089553
:103710001F93CF93DF93882329F0359909C08AE05E
:1037200090E002C08AE590E00E94FF1610E055C0CC
:1037300080EA90E00E94FF168AE090E00E94FF1667
:103740008AE590E00E94FF166CED75E080E090E065
:103750000E947528359BE3CFE7EDFAE28491EF01F3
:103760002196882321F00E94661BFE01F7CFE0E13D
:10377000FAE08491EF012196882321F00E94661BD4
:10378000FE01F7CF0E94E44F10911302112321F1A3
:10379000E7EDFAE28491EF012196882321F00E945F
:1037A000661BFE01F7CFE9E9F9E08491EF0121966C
:1037B000882321F00E94661BFE01F7CF60E08FE8AE
:1037C00099E00E9456296EE571E080E090E00E9449
:1037D00075281092130201C011E0812FDF91CF9163
:1037E0001F9108951F93CF93DF93CDB7DEB728972E
:1037F0000FB6F894DEBF0FBECDBF69837A838B838B
:103800009C832D833E834F83588781E00E94881BD1
:10381000882311F081E02BC0BE016B5F7F4FCE018A
:1038200001960E9434188091CB04182F187083FFE2
:1038300005C080E00E94881B8111ECCF1092CB0460
:103840000E94B7158091CC059091CD05A091CE0531
:10385000B091CF058093FA0B9093FB0BA093FC0BD8
:10386000B093FD0B0E94321981E0111180E028967F
:103870000FB6F894DEBF0FBECDBFDF91CF911F9181
:103880000895CF92DF92EF92FF920F931F93CF9301
:10389000DF938091CD04843008F027C10E94A315E6
:1038A000AC0197FD22C1982F2091B10D3091B20D3E
:1038B0008A3019F09D3009F0E6C010923B052115C1
:1038C000310519F40E942D51E4CFF901E552FB4F67
:1038D00010821092B20D1092B10DCBEDD4E0FE012A
:1038E0008191803211F4EF01FACF8E3409F07EC05D
:1038F000209709F47BC06FE579E0CE010E945FB7A5
:103900008C01892B41F06EE470E0CE0104960E9498
:103910009DBF009709F4CE014AE050E060E070E0FE
:1039200001960E94EBB46093D7047093D8048093FF
:10393000D9049093DA04C090B30DD090B40DE09008
:10394000B50DF090B60D2FEFC21AD20AE20AF20AB4
:103950006C157D058E059F0529F0012B19F48CE26D
:1039600099E02AC06AE270E0CE010E94C7BF9C01C4
:10397000009701F1982F9C1B10E0992339F091508A
:10398000FE01E90FF11D80811827F7CF4AE050E0D2
:1039900060E070E0C90101960E94EBB4012F10E0D5
:1039A00020E030E0601771078207930779F08DE01F
:1039B00099E002C083EE98E0DF91CF911F910F91C3
:1039C000FF90EF90DF90CF900C941E998091D704D8
:1039D0009091D804A091D904B091DA048093B30DEA
:1039E0009093B40DA093B50DB093B60D80911302D2
:1039F000811124C067E470E0CE010E949DBF009752
:103A0000E9F04AE050E060E070E001960E94EBB41B
:103A1000643071058105910588F4ECE6F8E0849145
:103A20008F010F5F1F4F882321F00E94661BF80152
:103A3000F6CF60E082E698E00E9456296EE772E0D9
:103A4000CE010E94A8BF892B21F41092140210927B
:103A5000E80263E872E0CE010E94A8BF892B21F43E
:103A600089E598E00E94176E68E872E0CE010E9436
:103A7000A8BF892B11F40E943C1961E08BED94E002
:103A80000E94CC1606CF2F3531050CF002CF9C35A5
:103A9000C1F40E94A31597FDFCCE20913B05211196
:103AA000F8CE2091B10D3091B20DA9014F5F5F4F5B
:103AB0005093B20D4093B10DF901E552FB4F808355
:103AC000E8CE9B3319F481E080933B0580913B0560
:103AD0008111DFCEC90101969093B20D8093B10D93
:103AE000F901E552FB4F4083D4CEDF91CF911F9176
:103AF0000F91FF90EF90DF90CF900895BF92CF92FB
:103B0000DF92EF92FF920F931F93CF93DF93CDB786
:103B1000DEB76E970FB6F894DEBF0FBECDBF6091D3
:103B2000670D7091680D6115710561F14DE150E00F
:103B3000CE0101967C010E9450B71E8EF7018F01C5
:103B40000E191F09B190BB2031F19AE0B912F7CFDD
:103B500022C0B7018CE498E00E94267C82E20E9499
:103B6000661B8AE00E94661BBB2061F10F5F1F4F3E
:103B70008091670D9091680D080F191F1093680DC3
:103B80000093670D81E02091670D3091680D232B24
:103B9000E1F480E01AC0F701E00FF11F108260E04D
:103BA000C7010E94CC16882369F3E5E7F0E1849110
:103BB0006F019FEFC91AD90A882359F20E94661B28
:103BC000F601F5CF00E010E0D9CF6E960FB6F8946D
:103BD000DEBF0FBECDBFDF91CF911F910F91FF9040
:103BE000EF90DF90CF90BF9008958F929F92AF9209
:103BF000BF92EF92FF920F931F93CF93DF93CDB7B6
:103C0000DEB7A0970FB6F894DEBF0FBECDBF61152B
:103C100071058105910591F100E0842E912CA12C74
:103C2000B12C102FEE24E394F12CEC0EFD1EE00ECF
:103C3000F11C07FDFA94A50194010E94D2BBF70183
:103C40006083B901CA010F5F611571058105910596
:103C500041F71F3F31F1E1E0F0E0EC0FFD1FE10F14
:103C6000F11D17FDFA9580818A3010F097E301C0AD
:103C700090E3890F0E94661B1150EBCF80E3A09662
:103C80000FB6F894DEBF0FBECDBFDF91CF911F916D
:103C90000F91FF90EF90BF90AF909F908F900C94FA
:103CA000661BA0960FB6F894DEBF0FBECDBFDF91A6
:103CB000CF911F910F91FF90EF90BF90AF909F9089
:103CC0008F900895EF92FF920F931F93CF93DF93FE
:103CD0007C0184E50E94D51AD82F882349F10E94DF
:103CE000351AC82F181604F5E5E7F0E184918F0125
:103CF0000F5F1F4F882321F00E94661BF801F6CF4B
:103D00008DE40E94661BB70180E090E04AE00E94CB
:103D1000F51D6C2FCC0F770B84E699E00E940D7C8B
:103D20008AE00E94661B08C080934003D0E004C074
:103D30008091E00B809340038D2FDF91CF911F91F5
:103D40000F91FF90EF900895CF92DF92EF92FF9244
:103D50006B017C0197FF0BC08DE20E94661BF09403
:103D6000E094D094C094C11CD11CE11CF11C4AE029
:103D7000C701B601FF90EF90DF90CF900C94F51D36
:103D8000CF93DF938091C2058093C305E3EBFAE004
:103D90008491EF012196882321F00E94661BFE0189
:103DA000F7CF8091B30D9091B40DA091B50DB09166
:103DB000B60DBC01CD016F5F7F4F8F4F9F4F0E94AB
:103DC000A41E8AE00E94661BE091CC04F0E0EF5B49
:103DD000FC4F8081882321F0DF91CF910C94808764
:103DE000DF91CF910895FF920F931F93CF93DF93AD
:103DF000F82E092F162FEEEAFAE08491EF012196B2
:103E0000882321F00E94661BFE01F7CFEF2DF02FD3
:103E10008491EF012196882321F00E94661BFE0108
:103E2000F7CFECEAFAE08491EF012196882321F0A4
:103E30000E94661BFE01F7CF612F70E080E090E0EA
:103E40000E94A41E8AE0DF91CF911F910F91FF90F5
:103E50000C94661B4F925F926F927F928F929F920B
:103E6000AF92BF92CF92DF92EF92FF92CF93DF9308
:103E70002091E20B3091E30B4091E40B5091E50B64
:103E80006091F20B7091F30B8091F40B9091F50B14
:103E90000E9472BCAB01BC0189EA9AE00E94F07BEF
:103EA0002091E60B3091E70B4091E80B5091E90B24
:103EB0006091F60B7091F70B8091F80B9091F90BD4
:103EC0000E9472BCAB01BC0185EA9AE00E94F07BC3
:103ED0002091EA0B3091EB0B4091EC0B5091ED0BE4
:103EE0006091FA0B7091FB0B8091FC0B9091FD0B94
:103EF0000E9472BCAB01BC0181EA9AE00E94F07B97
:103F00004091FE0B5091FF0B6091000C7091010CE1
:103F10008DE99AE00E94F07B80916F00982F92705B
:103F200081FF05C080916F008D7F80936F0040906E
:103F3000CC025090CD026090CE027090CF02809063
:103F4000D0029090D102A090D202B090D302C09043
:103F5000D402D090D502E090D602F090D7029923F7
:103F600029F080916F00826080936F00E3E9FAE0AE
:103F70008491EF012196882321F00E94661BFE01A7
:103F8000F7CFC301B2010E94A41EEFE8FAE08491CA
:103F9000EF012196882321F00E94661BFE01F7CFD6
:103FA000C501B4010E94A41EEBE8FAE08491EF0180
:103FB0002196882321F00E94661BFE01F7CFC701DE
:103FC000B6010E94A41E8AE0DF91CF91FF90EF908E
:103FD000DF90CF90BF90AF909F908F907F906F9029
:103FE0005F904F900C94661B2F923F924F925F927E
:103FF0006F927F928F929F92AF92BF92CF92DF92F9
:10400000EF92FF920F931F93CF93DF93CDB7DEB75D
:1040100062970FB6F894DEBF0FBECDBF8DE690E07D
:104020000E94621E8111BAC18091490B83FDB6C105
:1040300083E50E94D51A8F83811107C082E50E9413
:10404000D51A8983882309F448C00E94591A0E940E
:10405000DEBD7093EF026093EE0280E00E94984F05
:104060000E94591A20E030E04AEA52E40E94E1B787
:1040700018160CF48AC10E94A0610E946C786091AD
:10408000EE027091EF02072E000C880B990B0E9434
:10409000E8B76B017C018090550690905606A09081
:1040A0005706B0905806A50194010E94D2BE18167A
:1040B0000CF46EC12F8121116EC1A5019401C701BD
:1040C000B6010E94D2BE18160CF462C181E79AE0D4
:1040D00060E00E94562931E039830E94417C598179
:1040E000552309F45BC181E0809314021B821C827A
:1040F0001D821E8219861A861B861C861A821D86C0
:104100008CE38E879CE19F87A6E4A88B1A8A312CCA
:10411000B0E8B9832FEB298B812C912C540160914D
:10412000EE027091EF02072E000C880B990B0E9493
:10413000E8B77B018C019B01AC016A89732D8981F1
:1041400099890E94E1B7882309F441C0209155065E
:104150003091560640915706509158068F81B7010D
:1041600081110CC0C8010E94E1B7881F8827881FF1
:104170008A83EA8A3F2C0983198B29C0C8010E94CF
:10418000E1B787FF1FC080911402882309F406C19C
:1041900062960FB6F894DEBF0FBECDBFDF91CF9110
:1041A0001F910F91FF90EF90DF90CF90BF90AF9055
:1041B0009F908F907F906F905F904F903F902F9047
:1041C0000C946C78EA8A3F2C0983198B1A820E941E
:1041D0000E9B6B017C01DC01CB0129853A854B8567
:1041E0005C85821B930BA40BB50BB7FD3BC0D701BD
:1041F000C60188519C4FAF4FBF4F89879A87AB87C5
:10420000BC870E94084FEDE6FAE084913F019FEFE2
:10421000691A790A882321F00E94661BF301F5CF01
:1042200081149104A104B104B9F0D501C401805FE7
:10423000984DAF4FBF4FBC01CD016C197D098E0960
:104240009F0928EE33E040E050E00E94D2BBCA0153
:10425000B9010E94A41E03C08FE30E94661B8AE07E
:104260000E94661B0E94786E0E940E9B6093580D00
:104270007093590D80935A0D90935B0D20905506C5
:10428000A0915606A8870091570610915806222D36
:104290003A2FA8016A89732D898199890E9471BC7E
:1042A0002B013C0120E030E0A9010E94D2BE87FF33
:1042B00004C077FA709477F8709481149104A10483
:1042C000B10459F420E030E040E85FE3C301B201FB
:1042D0000E94E1B787FF0DC00AC020E030E040E453
:1042E00050E4C301B2010E94D2BE181614F4460174
:1042F0005701BA81BB2389F12B813C814D815E81BD
:10430000211531054105510541F0D701C601821B38
:10431000930BA40BB50BB7FD20C0222D3885A80147
:104320006D857E858F8598890E9471BC20E030E084
:1043300040EC5FE30E94E1B787FD25CFD701C601BE
:10434000805A9541AF4FBF4F8B839C83AD83BE8313
:104350002D8698859E870F87188B8091140288235D
:1043600009F411CF81149104A104B10409F4D7CE4A
:10437000A0E1CA1AA7E2DA0AE108F108C818D908C8
:10438000EA08FB08F7FEFFCECACE0E947C6177CE1A
:104390008EE79AE09DCE41E049839FCE62960FB6AC
:1043A000F894DEBF0FBECDBFDF91CF911F910F916B
:1043B000FF90EF90DF90CF90BF90AF909F908F9045
:1043C0007F906F905F904F903F902F9008958F92C5
:1043D0009F92AF92BF92CF92DF92EF92FF92CF93D4
:1043E0006B017C01B42E20E030E0A9010E94E1B70E
:1043F00087FF07C08DE20E94661BF7FAF094F7F87A
:10440000F094C0E060E070E080E09FE3CB1541F005
:104410002DEC3CEC4CEC5DE30E9447B8CF5FF6CF4F
:104420009B01AC01C701B6010E9472BC6B017C010B
:104430000E94E5BD4B015C014AE00E94F51DCC23C2
:1044400089F1C501B4010E94E6B79B01AC01C70127
:10445000B6010E9471BC6B017C018EE20E94661B5A
:1044600020E030E040E251E4C701B6010E9447B8C5
:104470004B015C010E94DEBD6B01770FEE08FF0867
:10448000C701B6010E94A41EC701B6010E94E8B789
:104490009B01AC01C501B4010E9471BC6B017C01A0
:1044A000C150F1F6CF91FF90EF90DF90CF90BF9089
:1044B000AF909F908F900895CF93DF930E94B71590
:1044C0008BE50E94661BC4ECD5E0688179818A8106
:1044D0009B8142E00E94E7214C815D816E817F815A
:1044E0008BE59AE00E94F07B488559856A857B853B
:1044F00088E59AE00E94F07B8DE50E94661B8AE0C9
:10450000DF91CF910C94661B1F920F920FB60F9202
:1045100011240BB60F922F938F939F93EF93FF93DA
:104520002091C305E091C20581E08E0F8F779091B5
:10453000C600281729F0F0E0EE5BFA4F9083E82FD1
:10454000E093C205FF91EF919F918F912F910F9072
:104550000BBE0F900FBE0F901F901895CF92DF9259
:10456000EF92FF920F931F93CF93DF936C017A0129
:104570008B01C0E0D0E0CE15DF0581F0D8016D9150
:104580008D01D601ED91FC910190F081E02DC601E5
:104590001995892B11F02196EECF7E01C701DF918D
:1045A000CF911F910F91FF90EF90DF90CF900895E2
:1045B0000895FC01A681B7818281481B858148301E
:1045C00018F0A80FB11D4770382F369536953695DF
:1045D000562F577080E890E002C0959587955A95C0
:1045E000E2F7439F402D1124669566956695E62F68
:1045F000F0E0E40FF11DEA0FFB1F3081222311F0E0
:10460000832B02C0809583238083089580E00895E2
:104610000B96FC01849108950A96FC0184910895FB
:10462000FC01849108950E941023882321F0823098
:1046300011F083E0089586E00895FC01E60FF11D76
:10464000849190E0982F88273196E4918E0F911DE8
:10465000089568E00C941D2366E00C941D2381E00E
:1046600008950E9484BFFC0130819281930F928350
:104670002181921760F494819F5F94838381830FDB
:10468000821710F08FEF820F838381E0089580E01E
:104690000895FC01128280818150838314820895E1
:1046A000FB014181DC0112962C911297421768F0B0
:1046B00013962C911397241740F0608115962C9136
:1046C000621718F424810C94D9220895DB01ED912E
:1046D000FC9119940F93FC010150040F84A996A931
:1046E000941718F0081728F402C0081750F00417A0
:1046F00040F42150260F83A995A9961720F4281776
:1047000020F480E007C0281720F481E0261710F07D
:10471000F8CF81E00F9108955F926F927F928F9210
:104720009F92AF92BF92CF92DF92EF92FF920F9340
:104730001F93CF93DF93EC01062F142FC22EEC8032
:10474000FD80C7010E941023D82E8C819D810E947C
:104750001323982E21E0D21203C02FE0A22E02C014
:10476000AA24AA948C819D810E940C23D82E8C812E
:104770009D810E940823B82E8C819D810E9429234F
:10478000E0E6EC1538F4009729F0E80EF91E91E602
:10479000D92E11C08C819D810E942C23F0E4FC1540
:1047A00038F4009729F0E80EF91E81E4D82E03C0F2
:1047B00021E1E20EF11CBC1430F4188A1B8A1C8A19
:1047C000198A1A8A9AC0BD14C0F3892D90E0F701A6
:1047D00024912F3F21F4FFEFEF1AFF0A40C0CD10C4
:1047E00035C08C819D810E94102397012F5F3F4F20
:1047F000F701882311F0823091F484918B8BF901B9
:1048000024912C8BF7013396E491E88BF7013496D1
:10481000E491E98BF7013596E491EA8B25C0849108
:10482000982F9F7092509A8B82958F70898BF90187
:104830002491822F8F708C8B22952F702B8BF701F8
:104840003296E491E295EF70E88B0EC0F701329654
:10485000E491EA219C012E0F311DE20EF31EBD14DE
:1048600009F4ABCFD394B3CFE114F10409F445C0FC
:104870008C819D810E941323A82EDB88BC88C98867
:10488000C00E8A898B0D181B0B2D2D2D412F6C2DE1
:10489000CE010E946A23882371F1EA0CF11C87E0A3
:1048A0008D0DD82ED694D694D6945B2C510E4E01F5
:1048B000FCE18F0E911C6D2C712C5116E1F00C2D2A
:1048C00057018A2D8E198D1590F4F50184916A8116
:1048D0007B810C8F1D8F1F8E8E8F94014BE3CE0139
:1048E0000E946623FFEFAF1ABF0A085FEACFE60C0B
:1048F000F71C1F5FE2CF888901C080E0DF91CF9174
:104900001F910F91FF90EF90DF90CF90BF90AF90ED
:104910009F908F907F906F905F9008958F929F925D
:10492000AF92BF92CF92DF92EF92FF92CF93FC01B2
:10493000C080D180E280F38020E030E0A901C7018F
:10494000B6010E94E1B787FF08C0C701B6019058C1
:1049500020E030E04AE754E406C020E030E04AE7D7
:1049600054E4C701B6010E9447B820E030E040EAB5
:1049700050E40E9472BC20E030E040E251E40E942A
:104980006CBD0E94DEBD6B017C01603AF6E87F07DA
:10499000F1E08F07910584F020EA36E841E050E02D
:1049A0000E94F4BBCA01B9012AE030E040E050E0C7
:1049B0000E94F4BB605D01C060E26093AC0B80E1DB
:1049C000C81687E2D806E104F10494F0C701B601E5
:1049D00020E137E240E050E00E94F4BBCA01B90197
:1049E0002AE030E040E050E00E94F4BB605D01C08E
:1049F00060E26093AD0BE8EECE16E3E0DE06E10484
:104A0000F10494F0C701B60128EE33E040E050E035
:104A10000E94F4BBCA01B9012AE030E040E050E056
:104A20000E94F4BB605D01C060E26093AE0BC70101
:104A3000B60124E630E040E050E00E94F4BB8AE09A
:104A4000882E912CA12CB12CCA01B901A501940189
:104A50000E94F4BB605D6093AF0B8EE28093B00B5D
:104A6000C701B601A50194010E94F4BBC62FCA017B
:104A7000B901A50194010E94F4BB605D6093B10B84
:104A8000C05DC093B20B8CEA9BE0CF91FF90EF909A
:104A9000DF90CF90BF90AF909F908F9008958F92AE
:104AA0009F92AF92BF92CF92DF92EF92FF92CF93FD
:104AB000FC01C080D180E280F38020E030E04AE752
:104AC00054E4C701B6010E9447B84B015C0120E0E5
:104AD00030E0A901C701B6010E94E1B787FD05C01A
:104AE00060E070E080EA90E404C060E070E080EA9A
:104AF00090ECA50194010E9472BC20E030E040E2FD
:104B000051E40E946CBD0E94DEBD6B017C0197FFE9
:104B10000AC0F094E094D094C094C11CD11CE11C54
:104B2000F11C8DE201C08BE28093AC0BC701B60192
:104B300020E137E240E050E00E94F4BB8AE0882E9A
:104B4000912CA12CB12CCA01B901A50194010E949C
:104B5000F4BB605D6093AD0BC701B60128EE33E096
:104B600040E050E00E94F4BBCA01B901A5019401E4
:104B70000E94F4BB605D6093AE0BC701B60124E6F2
:104B800030E040E050E00E94F4BBCA01B901A50149
:104B900094010E94F4BB605D6093AF0B8EE2809342
:104BA000B00BC701B601A50194010E94F4BBC62F4A
:104BB000CA01B901A50194010E94F4BB605D609334
:104BC000B10BC05DC093B20B8CEA9BE0CF91FF901C
:104BD000EF90DF90CF90BF90AF909F908F9008950F
:104BE0008F929F92AF92BF92CF92DF92EF92FF92FD
:104BF000FC01C080D180E280F38020E030E0A90198
:104C0000C701B6010E94E1B787FF08C0C701B6011E
:104C1000905820E030E040E251E406C020E030E06F
:104C200040E251E4C701B6010E9447B820E030E0FD
:104C300040EA50E40E9472BC20E030E040E251E4DF
:104C40000E946CBD0E94DEBD6B017C016031F7E209
:104C50007F078105910584F020E137E240E050E0D4
:104C60000E94F4BBCA01B9012AE030E040E050E004
:104C70000E94F4BB605D01C060E26093AE0B88EE01
:104C8000C81683E0D806E104F10494F0C701B60128
:104C900028EE33E040E050E00E94F4BBCA01B901C5
:104CA0002AE030E040E050E00E94F4BB605D01C0CB
:104CB00060E26093AF0BE4E6CE16D104E104F104A8
:104CC00094F0C701B60124E630E040E050E00E94D5
:104CD000F4BBCA01B9012AE030E040E050E00E9494
:104CE000F4BB605D01C060E26093B00BFAE0CF16E8
:104CF000D104E104F1049CF08AE0882E912CA12CCF
:104D0000B12CC701B601A50194010E94F4BBCA01F0
:104D1000B901A50194010E94F4BB605D01C060E28D
:104D20006093B10BC701B6012AE030E040E050E0EB
:104D30000E94F4BB605D6093B20B8EEA9BE0FF9033
:104D4000EF90DF90CF90BF90AF909F908F9008959D
:104D50008F929F92AF92BF92CF92DF92EF92FF928B
:104D6000FC01C080D180E280F38020E030E048EC9C
:104D700052E4C701B6010E9447B84B015C0120E034
:104D800030E0A901C701B6010E94E1B787FD05C067
:104D900060E070E080EA90E404C060E070E080EAE7
:104DA00090ECA50194010E9472BC20E030E040E24A
:104DB00051E40E946CBD0E94DEBD9B0177FF06C0DE
:104DC00022273327261B370B8DE201C08BE280930D
:104DD000AD0BC90168EE73E00E9455BCCB01EAE05F
:104DE000F0E0BF010E9455BC805D8093AE0BC9010D
:104DF00064E670E00E9455BCCB01BF010E9455BC27
:104E0000805D8093AF0BC901BF010E9455BC282F64
:104E1000CB01BF010E9455BC805D8093B00B8EE238
:104E20008093B10B205D2093B20B8DEA9BE0FF9045
:104E3000EF90DF90CF90BF90AF909F908F900895AC
:104E40008F929F92AF92BF92CF92DF92EF92FF929A
:104E5000CF93FC01C080D180E280F38020E030E07D
:104E60004AE754E4C701B6010E9447B84B015C0110
:104E700020E030E0A901C701B6010E94E1B787FD3B
:104E800005C060E070E080EA90E404C060E070E09B
:104E900080EA90ECA50194010E9472BC20E030E011
:104EA00040E251E40E946CBD0E94DEBD6B017C01BA
:104EB00097FD10C020E137E240E050E00E94F4BBD3
:104EC000CA01B9012AE030E040E050E00E94F4BBA2
:104ED000605D09C0F094E094D094C094C11CD11CD2
:104EE000E11CF11C6DE26093AD0BC701B60128EE29
:104EF00033E040E050E00E94F4BB8AE0882E912C21
:104F0000A12CB12CCA01B901A50194010E94F4BBE6
:104F1000605D6093AE0BC701B60124E630E040E06F
:104F200050E00E94F4BBCA01B901A50194010E949E
:104F3000F4BB605D6093AF0B8EE28093B00BC70152
:104F4000B601A50194010E94F4BBC62FCA01B901A4
:104F5000A50194010E94F4BB605D6093B10BC05D3C
:104F6000C093B20B8DEA9BE0CF91FF90EF90DF9062
:104F7000CF90BF90AF909F908F9008959C0197FF26
:104F80000AC0EE27FF27E81BF90BE436F1050CF405
:104F90004CC08DE230C0283E83E038073CF1C901A7
:104FA00068EE73E00E9455BCCB01EAE0F0E0BF017F
:104FB0000E9455BC805D8093AF0BC90164E670E030
:104FC0000E9455BCCB01BF010E9455BC805D8093FF
:104FD000B00BC901BF010E9455BCCB01BF010E94AB
:104FE00055BC805D8093B10BF9013EC0F9012436B8
:104FF0003105DCF080E28093AF0BCF0164E670E016
:105000000E9455BCCB012AE030E0B9010E9455BC9A
:10501000805D8093B00BCF01B9010E9455BCCB01DC
:10502000B9010E9455BC805D1DC080E28093AF0B2A
:105030008093B00BEA30F10584F037FF02C08DE2B7
:1050400001C080E28093B00BCF016AE070E00E9463
:1050500055BC605D6093B10B07C037FF02C08DE2A5
:1050600001C080E28093B10BCF016AE070E00E9442
:1050700055BC805D8093B20B8FEA9BE008959C0144
:1050800097FD0EC08436910584F064E670E00E94BE
:1050900055BCCB016AE070E00E9455BC805D06C043
:1050A0003195219531098DE201C080E28093B00BEA
:1050B0002A30310564F0EAE0F0E0C901BF010E9446
:1050C00055BCCB01BF010E9455BC805D01C080E290
:1050D0008093B10BC9016AE070E00E9455BC805D0D
:1050E0008093B20B80EB9BE00895CF92DF92EF921A
:1050F000FF926B017C0183E3C816D104E104F10443
:1051000070F082E3C81AD108E108F10862E370E0A8
:1051100080E090E00E94D49A0E942D51ECCFC7010C
:10512000B6010E94D49AFF90EF90DF90CF900C943C
:105130002D51CF93DF93FC0101900020E9F73197C7
:10514000EF01C81BD90BC731D1052CF02291207C6F
:105150002038E1F3F5CFDD27AE01BC0187EB9DE000
:105160000E94B8BFC954D24F188283E080931702BF
:10517000DF91CF9108950F931F93CF93DF93982FD3
:10518000862F8A01D22F692F0E9457909091080E86
:105190008091AB0B891748F190910A0E8091AA0B70
:1051A000981718F1C4E1F8018491882331F00E9426
:1051B000BF90C81B0F5F1F4FF6CFCC2329F080E2B2
:1051C0000E940698C150F9CF8091AB0B9AE790935B
:1051D0000B0E80930C0E8D2F0E94D79080E2DF91F2
:1051E000CF911F910F910C940698DF91CF911F9151
:1051F0000F9108958CEB9AE00E94379881E080939C
:10520000DB0508950F931F930E940E9B0091EA0502
:105210001091EB052091EC053091ED05DC01CB01FF
:10522000801B910BA20BB30BB7FD0CC086B186FBA4
:10523000992790F981E08927349B8260329B8460B2
:105240008093E9058091E90581709091E90591FDD0
:1052500082609091E805891731F18130A9F028F03A
:10526000823041F0833059F01CC0913089F0923087
:1052700099F017C0992361F0933071F012C091300A
:1052800059F0923071F404C0992331F0933049F40D
:105290009091E7059F5F03C09091E705915090932F
:1052A000E7058093E8051F910F9108950F931F93D1
:1052B000CF93DF938C0167FF03C01092EF0560E08E
:1052C0008091EF0590E0262F062E000C330B281757
:1052D00039070CF16093EF05C8010E942FB7800FCA
:1052E000911FEC01C01BD10BC731D1053CF00197D8
:1052F000FC012491207C2038D1F3F3CFDD27AE01CF
:10530000B80187EB9DE00E9450B7C954D24F188274
:1053100083E080931702DF91CF911F910F91089541
:105320004F925F926F927F928F929F92AF92BF92B5
:10533000CF92DF92EF92FF920F931F93CF93DF9361
:10534000CDB7DEB72A970FB6F894DEBF0FBECDBF3C
:10535000109115021F3F09F44BC00E940E9BC09094
:10536000D005D090D105E090D205F090D305DC01B6
:10537000CB018C199D09AE09BF09B7FD39C08091D9
:10538000110E9091120E8F5F8F70891789F1133073
:1053900009F423C2E090E00B24E01202F001112492
:1053A000EB5AFD4F20E030E040E752E4608171812C
:1053B000828193810E946CBD69837A838B839C83F5
:1053C0001D821E821F821886AE014B5F5F4F6A01ED
:1053D0008E010F5F1F4F2EEF3BE04AEF5BE066EF61
:1053E0007BE082EF9BE00E94F7358FEF8093150200
:1053F0000E9402298091E90582FF40C08091E60564
:1054000081113EC081E08093E6059091E8028927F2
:105410008093DA051092E80283E0809317021092DD
:10542000E9050E940E9BDC01CB018C509E4FAF4FD3
:10543000BF4F8093EA059093EB05A093EC05B093E2
:10544000ED0588E893E19A87898782E090E09A8366
:105450008983BE01675F7F4FCE0101960E945099FC
:1054600016E0115069F087EA9EE00E94531662E050
:1054700070E080E090E00E94D49AF3CF1092E605AD
:105480000E940E9B6B017C018091E2059091E305E7
:10549000A091E405B091E505A7019601281B390B01
:1054A0004A0B5B0B57FF05C08091D905882309F48F
:1054B000C6C1D701C6018C599F4FAF4FBF4F8093D4
:1054C000E2059093E305A093E405B093E505809190
:1054D000E705082E000C990B97FF03C09195819565
:1054E000910984302CF48091DA05811194C0A4C014
:1054F0008091CC0B882309F467C08091E7058090E8
:10550000D5059090D605A090D705B090D805811408
:105510009104A104B10409F44AC0082E000C990BAF
:1055200097FF03C0919581959109682F87FF02C06D
:1055300063E0680F65956595062E000C770B880B68
:10554000990B0E94E8B72B013C01C701B60168190D
:1055500079098A099B090E94E6B79B01AC01C30146
:10556000B2010E946CBD20E030E04AE754E40E94A2
:1055700047B84B015C0120E030E040E253E40E9478
:10558000D2BE87FF0FC020E030E046E952E4C501FB
:10559000B4010E94D2BE87FD0AC02AE030E040E09C
:1055A00050E009C024E630E040E050E004C021E0D3
:1055B00030E040E050E0C092D505D092D605E092B0
:1055C000D705F092D80504C021E030E040E050E07B
:1055D000A091E7050A2E000CBB0B0E941EBC24E024
:1055E00030E040E050E00E94F4BB8091C80B909105
:1055F000C90BA091CA0BB091CB0B820F931FA41FB4
:10560000B51F8093C80B9093C90BA093CA0BB0939E
:10561000CB0B1092E705D701C6018856954CAF4FCA
:10562000BF4F8093DE059093DF05A093E005B09314
:10563000E10581E0809317028091390290913A024E
:105640008650914941F480911602882309F4C7C01D
:1056500081508093160280916F00282F227081FF65
:1056600005C080916F008D7F80936F008091300620
:1056700090913106A0913206B0913306222329F091
:1056800020916F00226020936F003AE0B695A795B5
:10569000979587953A95D1F7009741E0A407B10512
:1056A00020F08FEF9FEFA0E0B0E0969587952091D6
:1056B0001702211105C03091D9053111BCC059C064
:1056C000009741F04091DC055091DD0548175907DE
:1056D00008F04FC08091D905811113C0223050F0DD
:1056E000243028F0243031F41092170203C081E0F6
:1056F000809317020E94EB9881E08093C70B809300
:10570000D90584E00E94A59081E08093F40DE0919A
:105710003902F0913A0219951092C70B8091D90580
:10572000882351F00E94CC9791E0811101C090E054
:105730009093D905811163C01092DA058090DC0541
:105740009090DD05A12CB12C0E940E9BDC01CB01B9
:105750008C199D09AE09BF0988169906AA06BB06D1
:1057600040F40E940E9B6C197D097093DD056093D7
:10577000DC058091390290913A028650914921F0DE
:105780008091D405882379F088E9C80E8AE3D81E71
:10579000E11CF11CC092DE05D092DF05E092E0052D
:1057A000F092E1050FC08091DE059091DF05A09198
:1057B000E005B091E105C81AD90AEA0AFB0AF7FE2A
:1057C0000E9439908091D905811139C080911702CA
:1057D0008130A9F51092170232C0E12CDDCD8CE0AA
:1057E000809316028091DC059091DD0501979093DE
:1057F000DD058093DC0581E0809317022CCF80903B
:10580000DC059090DD05A12CB12C0E940E9BDC01E3
:10581000CB018C199D09AE09BF0988169906AA0605
:10582000BB0668F40E940E9B6C197D097093DD0520
:105830006093DC0504C0009709F463CF43CF2A9638
:105840000FB6F894DEBF0FBECDBFDF91CF911F9191
:105850000F91FF90EF90DF90CF90BF90AF909F900F
:105860008F907F906F905F904F900895FC0180E043
:1058700090E02491222339F02491207C203809F0F3
:1058800001963196F6CF0895FC0120E030E0919129
:10589000992331F0907C9038D1F32F5F3F4FF7CFB1
:1058A000C90108950E9486903E98469A3C98449A71
:1058B0003A98429A0E9402291092E7050895CF92E1
:1058C000DF92EF92FF920F931F93CF93DF9300D05D
:1058D0001F92CDB7DEB78091C80B9091C90BA091F4
:1058E000CA0BB091CB0BB7FF08C01092C80B109237
:1058F000C90B1092CA0B1092CB0B8091B40B9091F4
:10590000B50BA091B60BB091B70B4091C80B50915D
:10591000C90B6091CA0B7091CB0B84179507A60732
:10592000B70744F48093C80B9093C90BA093CA0B9C
:10593000B093CB0B80911702882379F14091C80B6B
:105940005091C90B6091CA0B7091CB0B8091B80B31
:105950009091B90BA091BA0BB091BB0B6A017B017E
:10596000C80ED91EEA1EFB1EC701B6010E94E6B78B
:1059700020E030E048EC52E40E9447B869837A8323
:105980008B839C83CE0101960E94F025BC018091FF
:10599000BE0B9091BF0B0E94B5941091DA051111C6
:1059A0000AC08091C00B882309F442C0809117027D
:1059B000882309F43DC04091C80B5091C90B6091F8
:1059C000CA0B7091CB0B8091B80B9091B90BA09141
:1059D000BA0BB091BB0B6A017B01C80ED91EEA1E3F
:1059E000FB1EC701B6010E94E6B720E030E048EC9C
:1059F00052E40E9447B80E94E5BDE091BC0BF091D3
:105A0000BD0B309721F06083718382839383E09193
:105A1000C10BF091C20B309731F08091C00B811116
:105A200001C0111119958091DA0581110E944090F1
:105A30001092DA050F900F900F900F90DF91CF9199
:105A40001F910F91FF90EF90DF90CF900895CF922C
:105A5000DF92EF92FF920F931F93CF93DF9300D0CB
:105A60001F92CDB7DEB78091C80B9091C90BA09162
:105A7000CA0BB091CB0BB7FF08C01092C80B1092A5
:105A8000C90B1092CA0B1092CB0B8091B40B909162
:105A9000B50BA091B60BB091B70B4091C80B5091CC
:105AA000C90B6091CA0B7091CB0B84179507A607A1
:105AB000B70744F48093C80B9093C90BA093CA0B0B
:105AC000B093CB0B80911702882379F14091C80BDA
:105AD0005091C90B6091CA0B7091CB0B8091B80BA0
